{
	"contracts/Experiment2.sol": {
		"ChotaliyaNeel2": {
			"abi": [
				{
					"inputs": [],
					"name": "Neel_myAddress",
					"outputs": [
						{
							"internalType": "address",
							"name": "",
							"type": "address"
						}
					],
					"stateMutability": "view",
					"type": "function"
				},
				{
					"inputs": [],
					"name": "Neel_myBool",
					"outputs": [
						{
							"internalType": "bool",
							"name": "",
							"type": "bool"
						}
					],
					"stateMutability": "view",
					"type": "function"
				},
				{
					"inputs": [],
					"name": "Neel_myBytes1",
					"outputs": [
						{
							"internalType": "bytes1",
							"name": "",
							"type": "bytes1"
						}
					],
					"stateMutability": "view",
					"type": "function"
				},
				{
					"inputs": [
						{
							"internalType": "uint256",
							"name": "",
							"type": "uint256"
						}
					],
					"name": "Neel_myDynamicArray",
					"outputs": [
						{
							"internalType": "uint8",
							"name": "",
							"type": "uint8"
						}
					],
					"stateMutability": "view",
					"type": "function"
				},
				{
					"inputs": [
						{
							"internalType": "uint256",
							"name": "",
							"type": "uint256"
						}
					],
					"name": "Neel_myFixedArray",
					"outputs": [
						{
							"internalType": "uint8",
							"name": "",
							"type": "uint8"
						}
					],
					"stateMutability": "view",
					"type": "function"
				},
				{
					"inputs": [],
					"name": "Neel_myInt256",
					"outputs": [
						{
							"internalType": "int256",
							"name": "",
							"type": "int256"
						}
					],
					"stateMutability": "view",
					"type": "function"
				},
				{
					"inputs": [],
					"name": "Neel_myInt32",
					"outputs": [
						{
							"internalType": "int32",
							"name": "",
							"type": "int32"
						}
					],
					"stateMutability": "view",
					"type": "function"
				},
				{
					"inputs": [],
					"name": "Neel_myInt8",
					"outputs": [
						{
							"internalType": "int8",
							"name": "",
							"type": "int8"
						}
					],
					"stateMutability": "view",
					"type": "function"
				},
				{
					"inputs": [],
					"name": "Neel_myStatus",
					"outputs": [
						{
							"internalType": "enum ChotaliyaNeel2.Neel_myEnum",
							"name": "",
							"type": "uint8"
						}
					],
					"stateMutability": "view",
					"type": "function"
				},
				{
					"inputs": [],
					"name": "Neel_myString",
					"outputs": [
						{
							"internalType": "string",
							"name": "",
							"type": "string"
						}
					],
					"stateMutability": "view",
					"type": "function"
				},
				{
					"inputs": [],
					"name": "Neel_myUint256",
					"outputs": [
						{
							"internalType": "uint256",
							"name": "",
							"type": "uint256"
						}
					],
					"stateMutability": "view",
					"type": "function"
				},
				{
					"inputs": [],
					"name": "Neel_myUint32",
					"outputs": [
						{
							"internalType": "uint32",
							"name": "",
							"type": "uint32"
						}
					],
					"stateMutability": "view",
					"type": "function"
				},
				{
					"inputs": [],
					"name": "Neel_myUint8",
					"outputs": [
						{
							"internalType": "uint8",
							"name": "",
							"type": "uint8"
						}
					],
					"stateMutability": "view",
					"type": "function"
				},
				{
					"inputs": [],
					"name": "Neel_user",
					"outputs": [
						{
							"internalType": "uint256",
							"name": "id",
							"type": "uint256"
						},
						{
							"internalType": "string",
							"name": "name",
							"type": "string"
						},
						{
							"internalType": "bool",
							"name": "isActive",
							"type": "bool"
						}
					],
					"stateMutability": "view",
					"type": "function"
				}
			],
			"devdoc": {
				"kind": "dev",
				"methods": {},
				"version": 1
			},
			"evm": {
				"assembly": "    /* \"contracts/Experiment2.sol\":134:1820  contract ChotaliyaNeel2 {... */\n  mstore(0x40, 0x80)\n    /* \"contracts/Experiment2.sol\":319:323  1033 */\n  0x0409\n    /* \"contracts/Experiment2.sol\":289:323  uint32 public Neel_myUint32 = 1033 */\n  0x00\n  exp(0x0100, 0x01)\n  dup2\n  sload\n  dup2\n  0xffffffff\n  mul\n  not\n  and\n  swap1\n  dup4\n  0xffffffff\n  and\n  mul\n  or\n  swap1\n  sstore\n  pop\n    /* \"contracts/Experiment2.sol\":388:392  3301 */\n  0x0ce5\n    /* \"contracts/Experiment2.sol\":356:392  uint256 public Neel_myUint256 = 3301 */\n  0x01\n  sstore\n    /* \"contracts/Experiment2.sol\":625:640  type(int32).min */\n  0xffffffffffffffffffffffffffffffffffffffffffffffffffffffff80000000\n    /* \"contracts/Experiment2.sol\":597:640  int32 public Neel_myInt32 = type(int32).min */\n  0x02\n  exp(0x0100, 0x01)\n  dup2\n  sload\n  dup2\n  0xffffffff\n  mul\n  not\n  and\n  swap1\n  dup4\n  0x03\n  signextend\n  0xffffffff\n  and\n  mul\n  or\n  swap1\n  sstore\n  pop\n    /* \"contracts/Experiment2.sol\":749:765  type(int256).min */\n  0x8000000000000000000000000000000000000000000000000000000000000000\n    /* \"contracts/Experiment2.sol\":719:765  int256 public Neel_myInt256 = type(int256).min */\n  0x03\n  sstore\n    /* \"contracts/Experiment2.sol\":855:919  string public Neel_myString = \"Hello, My Name Is Neel Chotaliya\" */\n  mload(0x40)\n  dup1\n  0x40\n  add\n  0x40\n  mstore\n  dup1\n  0x20\n  dup2\n  mstore\n  0x20\n  add\n  0x48656c6c6f2c204d79204e616d65204973204e65656c2043686f74616c697961\n  dup2\n  mstore\n  pop\n  0x04\n  swap1\n  dup2\n  tag_1\n  swap2\n  swap1\n  tag_2\n  jump\t// in\ntag_1:\n  pop\n    /* \"contracts/Experiment2.sol\":1270:1322  uint8[] public Neel_myFixedArray = [1,2,3,4,5,6,7,8] */\n  mload(0x40)\n  dup1\n  0x0100\n  add\n  0x40\n  mstore\n  dup1\n    /* \"contracts/Experiment2.sol\":1306:1307  1 */\n  0x01\n    /* \"contracts/Experiment2.sol\":1270:1322  uint8[] public Neel_myFixedArray = [1,2,3,4,5,6,7,8] */\n  0xff\n  and\n  dup2\n  mstore\n  0x20\n  add\n    /* \"contracts/Experiment2.sol\":1308:1309  2 */\n  0x02\n    /* \"contracts/Experiment2.sol\":1270:1322  uint8[] public Neel_myFixedArray = [1,2,3,4,5,6,7,8] */\n  0xff\n  and\n  dup2\n  mstore\n  0x20\n  add\n    /* \"contracts/Experiment2.sol\":1310:1311  3 */\n  0x03\n    /* \"contracts/Experiment2.sol\":1270:1322  uint8[] public Neel_myFixedArray = [1,2,3,4,5,6,7,8] */\n  0xff\n  and\n  dup2\n  mstore\n  0x20\n  add\n    /* \"contracts/Experiment2.sol\":1312:1313  4 */\n  0x04\n    /* \"contracts/Experiment2.sol\":1270:1322  uint8[] public Neel_myFixedArray = [1,2,3,4,5,6,7,8] */\n  0xff\n  and\n  dup2\n  mstore\n  0x20\n  add\n    /* \"contracts/Experiment2.sol\":1314:1315  5 */\n  0x05\n    /* \"contracts/Experiment2.sol\":1270:1322  uint8[] public Neel_myFixedArray = [1,2,3,4,5,6,7,8] */\n  0xff\n  and\n  dup2\n  mstore\n  0x20\n  add\n    /* \"contracts/Experiment2.sol\":1316:1317  6 */\n  0x06\n    /* \"contracts/Experiment2.sol\":1270:1322  uint8[] public Neel_myFixedArray = [1,2,3,4,5,6,7,8] */\n  0xff\n  and\n  dup2\n  mstore\n  0x20\n  add\n    /* \"contracts/Experiment2.sol\":1318:1319  7 */\n  0x07\n    /* \"contracts/Experiment2.sol\":1270:1322  uint8[] public Neel_myFixedArray = [1,2,3,4,5,6,7,8] */\n  0xff\n  and\n  dup2\n  mstore\n  0x20\n  add\n    /* \"contracts/Experiment2.sol\":1320:1321  8 */\n  0x08\n    /* \"contracts/Experiment2.sol\":1270:1322  uint8[] public Neel_myFixedArray = [1,2,3,4,5,6,7,8] */\n  0xff\n  and\n  dup2\n  mstore\n  pop\n  0x07\n  swap1\n  0x08\n  tag_3\n  swap3\n  swap2\n  swap1\n  tag_4\n  jump\t// in\ntag_3:\n  pop\n    /* \"contracts/Experiment2.sol\":1403:1407  0xab */\n  0xab\n    /* \"contracts/Experiment2.sol\":1372:1407  bytes1 public  Neel_myBytes1 = 0xab */\n  0xf8\n  shl\n  0x08\n  exp(0x0100, 0x00)\n  dup2\n  sload\n  dup2\n  0xff\n  mul\n  not\n  and\n  swap1\n  dup4\n  0xf8\n  shr\n  mul\n  or\n  swap1\n  sstore\n  pop\n    /* \"contracts/Experiment2.sol\":1579:1597  Neel_myEnum.Active */\n  0x01\n    /* \"contracts/Experiment2.sol\":1544:1597  Neel_myEnum public Neel_myStatus = Neel_myEnum.Active */\n  0x08\n  exp(0x0100, 0x01)\n  dup2\n  sload\n  dup2\n  0xff\n  mul\n  not\n  and\n  swap1\n  dup4\n  0x02\n  dup2\n  gt\n  iszero\n  tag_5\n  jumpi\n  tag_6\n  tag_7\n  jump\t// in\ntag_6:\ntag_5:\n  mul\n  or\n  swap1\n  sstore\n  pop\n    /* \"contracts/Experiment2.sol\":134:1820  contract ChotaliyaNeel2 {... */\n  callvalue\n  dup1\n  iszero\n  tag_8\n  jumpi\n  0x00\n  dup1\n  revert\ntag_8:\n  pop\n  jump(tag_9)\ntag_4:\n  dup3\n  dup1\n  sload\n  dup3\n  dup3\n  sstore\n  swap1\n  0x00\n  mstore\n  keccak256(0x00, 0x20)\n  swap1\n  0x1f\n  add\n  0x20\n  swap1\n  div\n  dup2\n  add\n  swap3\n  dup3\n  iszero\n  tag_10\n  jumpi\n  swap2\n  0x20\n  mul\n  dup3\n  add\n  0x00\ntag_11:\n  dup4\n  dup3\n  gt\n  iszero\n  tag_12\n  jumpi\n  dup4\n  mload\n  dup4\n  dup3\n  0x0100\n  exp\n  dup2\n  sload\n  dup2\n  0xff\n  mul\n  not\n  and\n  swap1\n  dup4\n  0xff\n  and\n  mul\n  or\n  swap1\n  sstore\n  pop\n  swap3\n  0x20\n  add\n  swap3\n  0x01\n  add\n  0x20\n  dup2\n  0x00\n  add\n  div\n  swap3\n  dup4\n  add\n  swap3\n  0x01\n  sub\n  mul\n  jump(tag_11)\ntag_12:\n  dup1\n  iszero\n  tag_13\n  jumpi\n  dup3\n  dup2\n  0x0100\n  exp\n  dup2\n  sload\n  swap1\n  0xff\n  mul\n  not\n  and\n  swap1\n  sstore\n  0x01\n  add\n  0x20\n  dup2\n  0x00\n  add\n  div\n  swap3\n  dup4\n  add\n  swap3\n  0x01\n  sub\n  mul\n  jump(tag_12)\ntag_13:\n  pop\ntag_10:\n  pop\n  swap1\n  pop\n  tag_14\n  swap2\n  swap1\n  tag_15\n  jump\t// in\ntag_14:\n  pop\n  swap1\n  jump\t// out\ntag_15:\ntag_16:\n  dup1\n  dup3\n  gt\n  iszero\n  tag_17\n  jumpi\n  0x00\n  dup2\n  0x00\n  swap1\n  sstore\n  pop\n  0x01\n  add\n  jump(tag_16)\ntag_17:\n  pop\n  swap1\n  jump\t// out\n    /* \"#utility.yul\":7:106   */\ntag_18:\n    /* \"#utility.yul\":59:65   */\n  0x00\n    /* \"#utility.yul\":93:98   */\n  dup2\n    /* \"#utility.yul\":87:99   */\n  mload\n    /* \"#utility.yul\":77:99   */\n  swap1\n  pop\n    /* \"#utility.yul\":7:106   */\n  swap2\n  swap1\n  pop\n  jump\t// out\n    /* \"#utility.yul\":112:292   */\ntag_19:\n    /* \"#utility.yul\":160:237   */\n  0x4e487b7100000000000000000000000000000000000000000000000000000000\n    /* \"#utility.yul\":157:158   */\n  0x00\n    /* \"#utility.yul\":150:238   */\n  mstore\n    /* \"#utility.yul\":257:261   */\n  0x41\n    /* \"#utility.yul\":254:255   */\n  0x04\n    /* \"#utility.yul\":247:262   */\n  mstore\n    /* \"#utility.yul\":281:285   */\n  0x24\n    /* \"#utility.yul\":278:279   */\n  0x00\n    /* \"#utility.yul\":271:286   */\n  revert\n    /* \"#utility.yul\":298:478   */\ntag_20:\n    /* \"#utility.yul\":346:423   */\n  0x4e487b7100000000000000000000000000000000000000000000000000000000\n    /* \"#utility.yul\":343:344   */\n  0x00\n    /* \"#utility.yul\":336:424   */\n  mstore\n    /* \"#utility.yul\":443:447   */\n  0x22\n    /* \"#utility.yul\":440:441   */\n  0x04\n    /* \"#utility.yul\":433:448   */\n  mstore\n    /* \"#utility.yul\":467:471   */\n  0x24\n    /* \"#utility.yul\":464:465   */\n  0x00\n    /* \"#utility.yul\":457:472   */\n  revert\n    /* \"#utility.yul\":484:804   */\ntag_21:\n    /* \"#utility.yul\":528:534   */\n  0x00\n    /* \"#utility.yul\":565:566   */\n  0x02\n    /* \"#utility.yul\":559:563   */\n  dup3\n    /* \"#utility.yul\":555:567   */\n  div\n    /* \"#utility.yul\":545:567   */\n  swap1\n  pop\n    /* \"#utility.yul\":612:613   */\n  0x01\n    /* \"#utility.yul\":606:610   */\n  dup3\n    /* \"#utility.yul\":602:614   */\n  and\n    /* \"#utility.yul\":633:651   */\n  dup1\n    /* \"#utility.yul\":623:704   */\n  tag_43\n  jumpi\n    /* \"#utility.yul\":689:693   */\n  0x7f\n    /* \"#utility.yul\":681:687   */\n  dup3\n    /* \"#utility.yul\":677:694   */\n  and\n    /* \"#utility.yul\":667:694   */\n  swap2\n  pop\n    /* \"#utility.yul\":623:704   */\ntag_43:\n    /* \"#utility.yul\":751:753   */\n  0x20\n    /* \"#utility.yul\":743:749   */\n  dup3\n    /* \"#utility.yul\":740:754   */\n  lt\n    /* \"#utility.yul\":720:738   */\n  dup2\n    /* \"#utility.yul\":717:755   */\n  sub\n    /* \"#utility.yul\":714:798   */\n  tag_44\n  jumpi\n    /* \"#utility.yul\":770:788   */\n  tag_45\n  tag_20\n  jump\t// in\ntag_45:\n    /* \"#utility.yul\":714:798   */\ntag_44:\n    /* \"#utility.yul\":535:804   */\n  pop\n    /* \"#utility.yul\":484:804   */\n  swap2\n  swap1\n  pop\n  jump\t// out\n    /* \"#utility.yul\":810:951   */\ntag_22:\n    /* \"#utility.yul\":859:863   */\n  0x00\n    /* \"#utility.yul\":882:885   */\n  dup2\n    /* \"#utility.yul\":874:885   */\n  swap1\n  pop\n    /* \"#utility.yul\":905:908   */\n  dup2\n    /* \"#utility.yul\":902:903   */\n  0x00\n    /* \"#utility.yul\":895:909   */\n  mstore\n    /* \"#utility.yul\":939:943   */\n  0x20\n    /* \"#utility.yul\":936:937   */\n  0x00\n    /* \"#utility.yul\":926:944   */\n  keccak256\n    /* \"#utility.yul\":918:944   */\n  swap1\n  pop\n    /* \"#utility.yul\":810:951   */\n  swap2\n  swap1\n  pop\n  jump\t// out\n    /* \"#utility.yul\":957:1050   */\ntag_23:\n    /* \"#utility.yul\":994:1000   */\n  0x00\n    /* \"#utility.yul\":1041:1043   */\n  0x20\n    /* \"#utility.yul\":1036:1038   */\n  0x1f\n    /* \"#utility.yul\":1029:1034   */\n  dup4\n    /* \"#utility.yul\":1025:1039   */\n  add\n    /* \"#utility.yul\":1021:1044   */\n  div\n    /* \"#utility.yul\":1011:1044   */\n  swap1\n  pop\n    /* \"#utility.yul\":957:1050   */\n  swap2\n  swap1\n  pop\n  jump\t// out\n    /* \"#utility.yul\":1056:1163   */\ntag_24:\n    /* \"#utility.yul\":1100:1108   */\n  0x00\n    /* \"#utility.yul\":1150:1155   */\n  dup3\n    /* \"#utility.yul\":1144:1148   */\n  dup3\n    /* \"#utility.yul\":1140:1156   */\n  shl\n    /* \"#utility.yul\":1119:1156   */\n  swap1\n  pop\n    /* \"#utility.yul\":1056:1163   */\n  swap3\n  swap2\n  pop\n  pop\n  jump\t// out\n    /* \"#utility.yul\":1169:1562   */\ntag_25:\n    /* \"#utility.yul\":1238:1244   */\n  0x00\n    /* \"#utility.yul\":1288:1289   */\n  0x08\n    /* \"#utility.yul\":1276:1286   */\n  dup4\n    /* \"#utility.yul\":1272:1290   */\n  mul\n    /* \"#utility.yul\":1311:1408   */\n  tag_50\n    /* \"#utility.yul\":1341:1407   */\n  0xffffffffffffffffffffffffffffffffffffffffffffffffffffffffffffffff\n    /* \"#utility.yul\":1330:1339   */\n  dup3\n    /* \"#utility.yul\":1311:1408   */\n  tag_24\n  jump\t// in\ntag_50:\n    /* \"#utility.yul\":1429:1468   */\n  tag_51\n    /* \"#utility.yul\":1459:1467   */\n  dup7\n    /* \"#utility.yul\":1448:1457   */\n  dup4\n    /* \"#utility.yul\":1429:1468   */\n  tag_24\n  jump\t// in\ntag_51:\n    /* \"#utility.yul\":1417:1468   */\n  swap6\n  pop\n    /* \"#utility.yul\":1501:1505   */\n  dup1\n    /* \"#utility.yul\":1497:1506   */\n  not\n    /* \"#utility.yul\":1490:1495   */\n  dup5\n    /* \"#utility.yul\":1486:1507   */\n  and\n    /* \"#utility.yul\":1477:1507   */\n  swap4\n  pop\n    /* \"#utility.yul\":1550:1554   */\n  dup1\n    /* \"#utility.yul\":1540:1548   */\n  dup7\n    /* \"#utility.yul\":1536:1555   */\n  and\n    /* \"#utility.yul\":1529:1534   */\n  dup5\n    /* \"#utility.yul\":1526:1556   */\n  or\n    /* \"#utility.yul\":1516:1556   */\n  swap3\n  pop\n    /* \"#utility.yul\":1245:1562   */\n  pop\n  pop\n    /* \"#utility.yul\":1169:1562   */\n  swap4\n  swap3\n  pop\n  pop\n  pop\n  jump\t// out\n    /* \"#utility.yul\":1568:1645   */\ntag_26:\n    /* \"#utility.yul\":1605:1612   */\n  0x00\n    /* \"#utility.yul\":1634:1639   */\n  dup2\n    /* \"#utility.yul\":1623:1639   */\n  swap1\n  pop\n    /* \"#utility.yul\":1568:1645   */\n  swap2\n  swap1\n  pop\n  jump\t// out\n    /* \"#utility.yul\":1651:1711   */\ntag_27:\n    /* \"#utility.yul\":1679:1682   */\n  0x00\n    /* \"#utility.yul\":1700:1705   */\n  dup2\n    /* \"#utility.yul\":1693:1705   */\n  swap1\n  pop\n    /* \"#utility.yul\":1651:1711   */\n  swap2\n  swap1\n  pop\n  jump\t// out\n    /* \"#utility.yul\":1717:1859   */\ntag_28:\n    /* \"#utility.yul\":1767:1776   */\n  0x00\n    /* \"#utility.yul\":1800:1853   */\n  tag_55\n    /* \"#utility.yul\":1818:1852   */\n  tag_56\n    /* \"#utility.yul\":1827:1851   */\n  tag_57\n    /* \"#utility.yul\":1845:1850   */\n  dup5\n    /* \"#utility.yul\":1827:1851   */\n  tag_26\n  jump\t// in\ntag_57:\n    /* \"#utility.yul\":1818:1852   */\n  tag_27\n  jump\t// in\ntag_56:\n    /* \"#utility.yul\":1800:1853   */\n  tag_26\n  jump\t// in\ntag_55:\n    /* \"#utility.yul\":1787:1853   */\n  swap1\n  pop\n    /* \"#utility.yul\":1717:1859   */\n  swap2\n  swap1\n  pop\n  jump\t// out\n    /* \"#utility.yul\":1865:1940   */\ntag_29:\n    /* \"#utility.yul\":1908:1911   */\n  0x00\n    /* \"#utility.yul\":1929:1934   */\n  dup2\n    /* \"#utility.yul\":1922:1934   */\n  swap1\n  pop\n    /* \"#utility.yul\":1865:1940   */\n  swap2\n  swap1\n  pop\n  jump\t// out\n    /* \"#utility.yul\":1946:2215   */\ntag_30:\n    /* \"#utility.yul\":2056:2095   */\n  tag_60\n    /* \"#utility.yul\":2087:2094   */\n  dup4\n    /* \"#utility.yul\":2056:2095   */\n  tag_28\n  jump\t// in\ntag_60:\n    /* \"#utility.yul\":2117:2208   */\n  tag_61\n    /* \"#utility.yul\":2166:2207   */\n  tag_62\n    /* \"#utility.yul\":2190:2206   */\n  dup3\n    /* \"#utility.yul\":2166:2207   */\n  tag_29\n  jump\t// in\ntag_62:\n    /* \"#utility.yul\":2158:2164   */\n  dup5\n    /* \"#utility.yul\":2151:2155   */\n  dup5\n    /* \"#utility.yul\":2145:2156   */\n  sload\n    /* \"#utility.yul\":2117:2208   */\n  tag_25\n  jump\t// in\ntag_61:\n    /* \"#utility.yul\":2111:2115   */\n  dup3\n    /* \"#utility.yul\":2104:2209   */\n  sstore\n    /* \"#utility.yul\":2022:2215   */\n  pop\n    /* \"#utility.yul\":1946:2215   */\n  pop\n  pop\n  pop\n  jump\t// out\n    /* \"#utility.yul\":2221:2294   */\ntag_31:\n    /* \"#utility.yul\":2266:2269   */\n  0x00\n    /* \"#utility.yul\":2221:2294   */\n  swap1\n  jump\t// out\n    /* \"#utility.yul\":2300:2489   */\ntag_32:\n    /* \"#utility.yul\":2377:2409   */\n  tag_65\n  tag_31\n  jump\t// in\ntag_65:\n    /* \"#utility.yul\":2418:2483   */\n  tag_66\n    /* \"#utility.yul\":2476:2482   */\n  dup2\n    /* \"#utility.yul\":2468:2474   */\n  dup5\n    /* \"#utility.yul\":2462:2466   */\n  dup5\n    /* \"#utility.yul\":2418:2483   */\n  tag_30\n  jump\t// in\ntag_66:\n    /* \"#utility.yul\":2353:2489   */\n  pop\n    /* \"#utility.yul\":2300:2489   */\n  pop\n  pop\n  jump\t// out\n    /* \"#utility.yul\":2495:2681   */\ntag_33:\n    /* \"#utility.yul\":2555:2675   */\ntag_68:\n    /* \"#utility.yul\":2572:2575   */\n  dup2\n    /* \"#utility.yul\":2565:2570   */\n  dup2\n    /* \"#utility.yul\":2562:2576   */\n  lt\n    /* \"#utility.yul\":2555:2675   */\n  iszero\n  tag_70\n  jumpi\n    /* \"#utility.yul\":2626:2665   */\n  tag_71\n    /* \"#utility.yul\":2663:2664   */\n  0x00\n    /* \"#utility.yul\":2656:2661   */\n  dup3\n    /* \"#utility.yul\":2626:2665   */\n  tag_32\n  jump\t// in\ntag_71:\n    /* \"#utility.yul\":2599:2600   */\n  0x01\n    /* \"#utility.yul\":2592:2597   */\n  dup2\n    /* \"#utility.yul\":2588:2601   */\n  add\n    /* \"#utility.yul\":2579:2601   */\n  swap1\n  pop\n    /* \"#utility.yul\":2555:2675   */\n  jump(tag_68)\ntag_70:\n    /* \"#utility.yul\":2495:2681   */\n  pop\n  pop\n  jump\t// out\n    /* \"#utility.yul\":2687:3230   */\ntag_34:\n    /* \"#utility.yul\":2788:2790   */\n  0x1f\n    /* \"#utility.yul\":2783:2786   */\n  dup3\n    /* \"#utility.yul\":2780:2791   */\n  gt\n    /* \"#utility.yul\":2777:3223   */\n  iszero\n  tag_73\n  jumpi\n    /* \"#utility.yul\":2822:2860   */\n  tag_74\n    /* \"#utility.yul\":2854:2859   */\n  dup2\n    /* \"#utility.yul\":2822:2860   */\n  tag_22\n  jump\t// in\ntag_74:\n    /* \"#utility.yul\":2906:2935   */\n  tag_75\n    /* \"#utility.yul\":2924:2934   */\n  dup5\n    /* \"#utility.yul\":2906:2935   */\n  tag_23\n  jump\t// in\ntag_75:\n    /* \"#utility.yul\":2896:2904   */\n  dup2\n    /* \"#utility.yul\":2892:2936   */\n  add\n    /* \"#utility.yul\":3089:3091   */\n  0x20\n    /* \"#utility.yul\":3077:3087   */\n  dup6\n    /* \"#utility.yul\":3074:3092   */\n  lt\n    /* \"#utility.yul\":3071:3120   */\n  iszero\n  tag_76\n  jumpi\n    /* \"#utility.yul\":3110:3118   */\n  dup2\n    /* \"#utility.yul\":3095:3118   */\n  swap1\n  pop\n    /* \"#utility.yul\":3071:3120   */\ntag_76:\n    /* \"#utility.yul\":3133:3213   */\n  tag_77\n    /* \"#utility.yul\":3189:3211   */\n  tag_78\n    /* \"#utility.yul\":3207:3210   */\n  dup6\n    /* \"#utility.yul\":3189:3211   */\n  tag_23\n  jump\t// in\ntag_78:\n    /* \"#utility.yul\":3179:3187   */\n  dup4\n    /* \"#utility.yul\":3175:3212   */\n  add\n    /* \"#utility.yul\":3162:3173   */\n  dup3\n    /* \"#utility.yul\":3133:3213   */\n  tag_33\n  jump\t// in\ntag_77:\n    /* \"#utility.yul\":2792:3223   */\n  pop\n  pop\n    /* \"#utility.yul\":2777:3223   */\ntag_73:\n    /* \"#utility.yul\":2687:3230   */\n  pop\n  pop\n  pop\n  jump\t// out\n    /* \"#utility.yul\":3236:3353   */\ntag_35:\n    /* \"#utility.yul\":3290:3298   */\n  0x00\n    /* \"#utility.yul\":3340:3345   */\n  dup3\n    /* \"#utility.yul\":3334:3338   */\n  dup3\n    /* \"#utility.yul\":3330:3346   */\n  shr\n    /* \"#utility.yul\":3309:3346   */\n  swap1\n  pop\n    /* \"#utility.yul\":3236:3353   */\n  swap3\n  swap2\n  pop\n  pop\n  jump\t// out\n    /* \"#utility.yul\":3359:3528   */\ntag_36:\n    /* \"#utility.yul\":3403:3409   */\n  0x00\n    /* \"#utility.yul\":3436:3487   */\n  tag_81\n    /* \"#utility.yul\":3484:3485   */\n  0x00\n    /* \"#utility.yul\":3480:3486   */\n  not\n    /* \"#utility.yul\":3472:3477   */\n  dup5\n    /* \"#utility.yul\":3469:3470   */\n  0x08\n    /* \"#utility.yul\":3465:3478   */\n  mul\n    /* \"#utility.yul\":3436:3487   */\n  tag_35\n  jump\t// in\ntag_81:\n    /* \"#utility.yul\":3432:3488   */\n  not\n    /* \"#utility.yul\":3517:3521   */\n  dup1\n    /* \"#utility.yul\":3511:3515   */\n  dup4\n    /* \"#utility.yul\":3507:3522   */\n  and\n    /* \"#utility.yul\":3497:3522   */\n  swap2\n  pop\n    /* \"#utility.yul\":3410:3528   */\n  pop\n    /* \"#utility.yul\":3359:3528   */\n  swap3\n  swap2\n  pop\n  pop\n  jump\t// out\n    /* \"#utility.yul\":3533:3828   */\ntag_37:\n    /* \"#utility.yul\":3609:3613   */\n  0x00\n    /* \"#utility.yul\":3755:3784   */\n  tag_83\n    /* \"#utility.yul\":3780:3783   */\n  dup4\n    /* \"#utility.yul\":3774:3778   */\n  dup4\n    /* \"#utility.yul\":3755:3784   */\n  tag_36\n  jump\t// in\ntag_83:\n    /* \"#utility.yul\":3747:3784   */\n  swap2\n  pop\n    /* \"#utility.yul\":3817:3820   */\n  dup3\n    /* \"#utility.yul\":3814:3815   */\n  0x02\n    /* \"#utility.yul\":3810:3821   */\n  mul\n    /* \"#utility.yul\":3804:3808   */\n  dup3\n    /* \"#utility.yul\":3801:3822   */\n  or\n    /* \"#utility.yul\":3793:3822   */\n  swap1\n  pop\n    /* \"#utility.yul\":3533:3828   */\n  swap3\n  swap2\n  pop\n  pop\n  jump\t// out\n    /* \"#utility.yul\":3833:5228   */\ntag_2:\n    /* \"#utility.yul\":3950:3987   */\n  tag_85\n    /* \"#utility.yul\":3983:3986   */\n  dup3\n    /* \"#utility.yul\":3950:3987   */\n  tag_18\n  jump\t// in\ntag_85:\n    /* \"#utility.yul\":4052:4070   */\n  0xffffffffffffffff\n    /* \"#utility.yul\":4044:4050   */\n  dup2\n    /* \"#utility.yul\":4041:4071   */\n  gt\n    /* \"#utility.yul\":4038:4094   */\n  iszero\n  tag_86\n  jumpi\n    /* \"#utility.yul\":4074:4092   */\n  tag_87\n  tag_19\n  jump\t// in\ntag_87:\n    /* \"#utility.yul\":4038:4094   */\ntag_86:\n    /* \"#utility.yul\":4118:4156   */\n  tag_88\n    /* \"#utility.yul\":4150:4154   */\n  dup3\n    /* \"#utility.yul\":4144:4155   */\n  sload\n    /* \"#utility.yul\":4118:4156   */\n  tag_21\n  jump\t// in\ntag_88:\n    /* \"#utility.yul\":4203:4270   */\n  tag_89\n    /* \"#utility.yul\":4263:4269   */\n  dup3\n    /* \"#utility.yul\":4255:4261   */\n  dup3\n    /* \"#utility.yul\":4249:4253   */\n  dup6\n    /* \"#utility.yul\":4203:4270   */\n  tag_34\n  jump\t// in\ntag_89:\n    /* \"#utility.yul\":4297:4298   */\n  0x00\n    /* \"#utility.yul\":4321:4325   */\n  0x20\n    /* \"#utility.yul\":4308:4325   */\n  swap1\n  pop\n    /* \"#utility.yul\":4353:4355   */\n  0x1f\n    /* \"#utility.yul\":4345:4351   */\n  dup4\n    /* \"#utility.yul\":4342:4356   */\n  gt\n    /* \"#utility.yul\":4370:4371   */\n  0x01\n    /* \"#utility.yul\":4365:4983   */\n  dup2\n  eq\n  tag_91\n  jumpi\n    /* \"#utility.yul\":5027:5028   */\n  0x00\n    /* \"#utility.yul\":5044:5050   */\n  dup5\n    /* \"#utility.yul\":5041:5118   */\n  iszero\n  tag_92\n  jumpi\n    /* \"#utility.yul\":5093:5102   */\n  dup3\n    /* \"#utility.yul\":5088:5091   */\n  dup8\n    /* \"#utility.yul\":5084:5103   */\n  add\n    /* \"#utility.yul\":5078:5104   */\n  mload\n    /* \"#utility.yul\":5069:5104   */\n  swap1\n  pop\n    /* \"#utility.yul\":5041:5118   */\ntag_92:\n    /* \"#utility.yul\":5144:5211   */\n  tag_93\n    /* \"#utility.yul\":5204:5210   */\n  dup6\n    /* \"#utility.yul\":5197:5202   */\n  dup3\n    /* \"#utility.yul\":5144:5211   */\n  tag_37\n  jump\t// in\ntag_93:\n    /* \"#utility.yul\":5138:5142   */\n  dup7\n    /* \"#utility.yul\":5131:5212   */\n  sstore\n    /* \"#utility.yul\":5000:5222   */\n  pop\n    /* \"#utility.yul\":4335:5222   */\n  jump(tag_90)\n    /* \"#utility.yul\":4365:4983   */\ntag_91:\n    /* \"#utility.yul\":4417:4421   */\n  0x1f\n    /* \"#utility.yul\":4413:4422   */\n  not\n    /* \"#utility.yul\":4405:4411   */\n  dup5\n    /* \"#utility.yul\":4401:4423   */\n  and\n    /* \"#utility.yul\":4451:4488   */\n  tag_94\n    /* \"#utility.yul\":4483:4487   */\n  dup7\n    /* \"#utility.yul\":4451:4488   */\n  tag_22\n  jump\t// in\ntag_94:\n    /* \"#utility.yul\":4510:4511   */\n  0x00\n    /* \"#utility.yul\":4524:4732   */\ntag_95:\n    /* \"#utility.yul\":4538:4545   */\n  dup3\n    /* \"#utility.yul\":4535:4536   */\n  dup2\n    /* \"#utility.yul\":4532:4546   */\n  lt\n    /* \"#utility.yul\":4524:4732   */\n  iszero\n  tag_97\n  jumpi\n    /* \"#utility.yul\":4617:4626   */\n  dup5\n    /* \"#utility.yul\":4612:4615   */\n  dup10\n    /* \"#utility.yul\":4608:4627   */\n  add\n    /* \"#utility.yul\":4602:4628   */\n  mload\n    /* \"#utility.yul\":4594:4600   */\n  dup3\n    /* \"#utility.yul\":4587:4629   */\n  sstore\n    /* \"#utility.yul\":4668:4669   */\n  0x01\n    /* \"#utility.yul\":4660:4666   */\n  dup3\n    /* \"#utility.yul\":4656:4670   */\n  add\n    /* \"#utility.yul\":4646:4670   */\n  swap2\n  pop\n    /* \"#utility.yul\":4715:4717   */\n  0x20\n    /* \"#utility.yul\":4704:4713   */\n  dup6\n    /* \"#utility.yul\":4700:4718   */\n  add\n    /* \"#utility.yul\":4687:4718   */\n  swap5\n  pop\n    /* \"#utility.yul\":4561:4565   */\n  0x20\n    /* \"#utility.yul\":4558:4559   */\n  dup2\n    /* \"#utility.yul\":4554:4566   */\n  add\n    /* \"#utility.yul\":4549:4566   */\n  swap1\n  pop\n    /* \"#utility.yul\":4524:4732   */\n  jump(tag_95)\ntag_97:\n    /* \"#utility.yul\":4760:4766   */\n  dup7\n    /* \"#utility.yul\":4751:4758   */\n  dup4\n    /* \"#utility.yul\":4748:4767   */\n  lt\n    /* \"#utility.yul\":4745:4924   */\n  iszero\n  tag_98\n  jumpi\n    /* \"#utility.yul\":4818:4827   */\n  dup5\n    /* \"#utility.yul\":4813:4816   */\n  dup10\n    /* \"#utility.yul\":4809:4828   */\n  add\n    /* \"#utility.yul\":4803:4829   */\n  mload\n    /* \"#utility.yul\":4861:4909   */\n  tag_99\n    /* \"#utility.yul\":4903:4907   */\n  0x1f\n    /* \"#utility.yul\":4895:4901   */\n  dup10\n    /* \"#utility.yul\":4891:4908   */\n  and\n    /* \"#utility.yul\":4880:4889   */\n  dup3\n    /* \"#utility.yul\":4861:4909   */\n  tag_36\n  jump\t// in\ntag_99:\n    /* \"#utility.yul\":4853:4859   */\n  dup4\n    /* \"#utility.yul\":4846:4910   */\n  sstore\n    /* \"#utility.yul\":4768:4924   */\n  pop\n    /* \"#utility.yul\":4745:4924   */\ntag_98:\n    /* \"#utility.yul\":4970:4971   */\n  0x01\n    /* \"#utility.yul\":4966:4967   */\n  0x02\n    /* \"#utility.yul\":4958:4964   */\n  dup9\n    /* \"#utility.yul\":4954:4968   */\n  mul\n    /* \"#utility.yul\":4950:4972   */\n  add\n    /* \"#utility.yul\":4944:4948   */\n  dup9\n    /* \"#utility.yul\":4937:4973   */\n  sstore\n    /* \"#utility.yul\":4372:4983   */\n  pop\n  pop\n  pop\n    /* \"#utility.yul\":4335:5222   */\ntag_90:\n  pop\n    /* \"#utility.yul\":3925:5228   */\n  pop\n  pop\n  pop\n    /* \"#utility.yul\":3833:5228   */\n  pop\n  pop\n  jump\t// out\n    /* \"#utility.yul\":5234:5414   */\ntag_7:\n    /* \"#utility.yul\":5282:5359   */\n  0x4e487b7100000000000000000000000000000000000000000000000000000000\n    /* \"#utility.yul\":5279:5280   */\n  0x00\n    /* \"#utility.yul\":5272:5360   */\n  mstore\n    /* \"#utility.yul\":5379:5383   */\n  0x21\n    /* \"#utility.yul\":5376:5377   */\n  0x04\n    /* \"#utility.yul\":5369:5384   */\n  mstore\n    /* \"#utility.yul\":5403:5407   */\n  0x24\n    /* \"#utility.yul\":5400:5401   */\n  0x00\n    /* \"#utility.yul\":5393:5408   */\n  revert\n    /* \"contracts/Experiment2.sol\":134:1820  contract ChotaliyaNeel2 {... */\ntag_9:\n  dataSize(sub_0)\n  dup1\n  dataOffset(sub_0)\n  0x00\n  codecopy\n  0x00\n  return\nstop\n\nsub_0: assembly {\n        /* \"contracts/Experiment2.sol\":134:1820  contract ChotaliyaNeel2 {... */\n      mstore(0x40, 0x80)\n      callvalue\n      dup1\n      iszero\n      tag_1\n      jumpi\n      0x00\n      dup1\n      revert\n    tag_1:\n      pop\n      jumpi(tag_2, lt(calldatasize, 0x04))\n      shr(0xe0, calldataload(0x00))\n      dup1\n      0x74893c2b\n      gt\n      tag_17\n      jumpi\n      dup1\n      0x911382d3\n      gt\n      tag_18\n      jumpi\n      dup1\n      0x911382d3\n      eq\n      tag_13\n      jumpi\n      dup1\n      0xc2479c35\n      eq\n      tag_14\n      jumpi\n      dup1\n      0xcf2ad580\n      eq\n      tag_15\n      jumpi\n      dup1\n      0xd8d0b42d\n      eq\n      tag_16\n      jumpi\n      jump(tag_2)\n    tag_18:\n      dup1\n      0x74893c2b\n      eq\n      tag_10\n      jumpi\n      dup1\n      0x8862e2fe\n      eq\n      tag_11\n      jumpi\n      dup1\n      0x8ca18e3f\n      eq\n      tag_12\n      jumpi\n      jump(tag_2)\n    tag_17:\n      dup1\n      0x32df637d\n      gt\n      tag_19\n      jumpi\n      dup1\n      0x32df637d\n      eq\n      tag_6\n      jumpi\n      dup1\n      0x57ff38de\n      eq\n      tag_7\n      jumpi\n      dup1\n      0x603ac709\n      eq\n      tag_8\n      jumpi\n      dup1\n      0x65908f1e\n      eq\n      tag_9\n      jumpi\n      jump(tag_2)\n    tag_19:\n      dup1\n      0x0e7452f1\n      eq\n      tag_3\n      jumpi\n      dup1\n      0x17226d50\n      eq\n      tag_4\n      jumpi\n      dup1\n      0x19fb90e0\n      eq\n      tag_5\n      jumpi\n    tag_2:\n      0x00\n      dup1\n      revert\n        /* \"contracts/Experiment2.sol\":1099:1128  address public Neel_myAddress */\n    tag_3:\n      tag_20\n      tag_21\n      jump\t// in\n    tag_20:\n      mload(0x40)\n      tag_22\n      swap2\n      swap1\n      tag_23\n      jump\t// in\n    tag_22:\n      mload(0x40)\n      dup1\n      swap2\n      sub\n      swap1\n      return\n        /* \"contracts/Experiment2.sol\":1184:1218  uint8[] public Neel_myDynamicArray */\n    tag_4:\n      tag_24\n      0x04\n      dup1\n      calldatasize\n      sub\n      dup2\n      add\n      swap1\n      tag_25\n      swap2\n      swap1\n      tag_26\n      jump\t// in\n    tag_25:\n      tag_27\n      jump\t// in\n    tag_24:\n      mload(0x40)\n      tag_28\n      swap2\n      swap1\n      tag_29\n      jump\t// in\n    tag_28:\n      mload(0x40)\n      dup1\n      swap2\n      sub\n      swap1\n      return\n        /* \"contracts/Experiment2.sol\":1790:1816  Neel_User public Neel_user */\n    tag_5:\n      tag_30\n      tag_31\n      jump\t// in\n    tag_30:\n      mload(0x40)\n      tag_32\n      swap4\n      swap3\n      swap2\n      swap1\n      tag_33\n      jump\t// in\n    tag_32:\n      mload(0x40)\n      dup1\n      swap2\n      sub\n      swap1\n      return\n        /* \"contracts/Experiment2.sol\":502:525  int8 public Neel_myInt8 */\n    tag_6:\n      tag_34\n      tag_35\n      jump\t// in\n    tag_34:\n      mload(0x40)\n      tag_36\n      swap2\n      swap1\n      tag_37\n      jump\t// in\n    tag_36:\n      mload(0x40)\n      dup1\n      swap2\n      sub\n      swap1\n      return\n        /* \"contracts/Experiment2.sol\":1270:1322  uint8[] public Neel_myFixedArray = [1,2,3,4,5,6,7,8] */\n    tag_7:\n      tag_38\n      0x04\n      dup1\n      calldatasize\n      sub\n      dup2\n      add\n      swap1\n      tag_39\n      swap2\n      swap1\n      tag_26\n      jump\t// in\n    tag_39:\n      tag_40\n      jump\t// in\n    tag_38:\n      mload(0x40)\n      tag_41\n      swap2\n      swap1\n      tag_29\n      jump\t// in\n    tag_41:\n      mload(0x40)\n      dup1\n      swap2\n      sub\n      swap1\n      return\n        /* \"contracts/Experiment2.sol\":356:392  uint256 public Neel_myUint256 = 3301 */\n    tag_8:\n      tag_42\n      tag_43\n      jump\t// in\n    tag_42:\n      mload(0x40)\n      tag_44\n      swap2\n      swap1\n      tag_45\n      jump\t// in\n    tag_44:\n      mload(0x40)\n      dup1\n      swap2\n      sub\n      swap1\n      return\n        /* \"contracts/Experiment2.sol\":719:765  int256 public Neel_myInt256 = type(int256).min */\n    tag_9:\n      tag_46\n      tag_47\n      jump\t// in\n    tag_46:\n      mload(0x40)\n      tag_48\n      swap2\n      swap1\n      tag_49\n      jump\t// in\n    tag_48:\n      mload(0x40)\n      dup1\n      swap2\n      sub\n      swap1\n      return\n        /* \"contracts/Experiment2.sol\":977:1000  bool public Neel_myBool */\n    tag_10:\n      tag_50\n      tag_51\n      jump\t// in\n    tag_50:\n      mload(0x40)\n      tag_52\n      swap2\n      swap1\n      tag_53\n      jump\t// in\n    tag_52:\n      mload(0x40)\n      dup1\n      swap2\n      sub\n      swap1\n      return\n        /* \"contracts/Experiment2.sol\":1544:1597  Neel_myEnum public Neel_myStatus = Neel_myEnum.Active */\n    tag_11:\n      tag_54\n      tag_55\n      jump\t// in\n    tag_54:\n      mload(0x40)\n      tag_56\n      swap2\n      swap1\n      tag_57\n      jump\t// in\n    tag_56:\n      mload(0x40)\n      dup1\n      swap2\n      sub\n      swap1\n      return\n        /* \"contracts/Experiment2.sol\":597:640  int32 public Neel_myInt32 = type(int32).min */\n    tag_12:\n      tag_58\n      tag_59\n      jump\t// in\n    tag_58:\n      mload(0x40)\n      tag_60\n      swap2\n      swap1\n      tag_61\n      jump\t// in\n    tag_60:\n      mload(0x40)\n      dup1\n      swap2\n      sub\n      swap1\n      return\n        /* \"contracts/Experiment2.sol\":232:257  uint8 public Neel_myUint8 */\n    tag_13:\n      tag_62\n      tag_63\n      jump\t// in\n    tag_62:\n      mload(0x40)\n      tag_64\n      swap2\n      swap1\n      tag_29\n      jump\t// in\n    tag_64:\n      mload(0x40)\n      dup1\n      swap2\n      sub\n      swap1\n      return\n        /* \"contracts/Experiment2.sol\":855:919  string public Neel_myString = \"Hello, My Name Is Neel Chotaliya\" */\n    tag_14:\n      tag_65\n      tag_66\n      jump\t// in\n    tag_65:\n      mload(0x40)\n      tag_67\n      swap2\n      swap1\n      tag_68\n      jump\t// in\n    tag_67:\n      mload(0x40)\n      dup1\n      swap2\n      sub\n      swap1\n      return\n        /* \"contracts/Experiment2.sol\":289:323  uint32 public Neel_myUint32 = 1033 */\n    tag_15:\n      tag_69\n      tag_70\n      jump\t// in\n    tag_69:\n      mload(0x40)\n      tag_71\n      swap2\n      swap1\n      tag_72\n      jump\t// in\n    tag_71:\n      mload(0x40)\n      dup1\n      swap2\n      sub\n      swap1\n      return\n        /* \"contracts/Experiment2.sol\":1372:1407  bytes1 public  Neel_myBytes1 = 0xab */\n    tag_16:\n      tag_73\n      tag_74\n      jump\t// in\n    tag_73:\n      mload(0x40)\n      tag_75\n      swap2\n      swap1\n      tag_76\n      jump\t// in\n    tag_75:\n      mload(0x40)\n      dup1\n      swap2\n      sub\n      swap1\n      return\n        /* \"contracts/Experiment2.sol\":1099:1128  address public Neel_myAddress */\n    tag_21:\n      0x05\n      0x01\n      swap1\n      sload\n      swap1\n      0x0100\n      exp\n      swap1\n      div\n      0xffffffffffffffffffffffffffffffffffffffff\n      and\n      dup2\n      jump\t// out\n        /* \"contracts/Experiment2.sol\":1184:1218  uint8[] public Neel_myDynamicArray */\n    tag_27:\n      0x06\n      dup2\n      dup2\n      sload\n      dup2\n      lt\n      tag_77\n      jumpi\n      0x00\n      dup1\n      revert\n    tag_77:\n      swap1\n      0x00\n      mstore\n      keccak256(0x00, 0x20)\n      swap1\n      0x20\n      swap2\n      dup3\n      dup3\n      div\n      add\n      swap2\n      swap1\n      mod\n      swap2\n      pop\n      sload\n      swap1\n      0x0100\n      exp\n      swap1\n      div\n      0xff\n      and\n      dup2\n      jump\t// out\n        /* \"contracts/Experiment2.sol\":1790:1816  Neel_User public Neel_user */\n    tag_31:\n      0x09\n      dup1\n      0x00\n      add\n      sload\n      swap1\n      dup1\n      0x01\n      add\n      dup1\n      sload\n      tag_79\n      swap1\n      tag_80\n      jump\t// in\n    tag_79:\n      dup1\n      0x1f\n      add\n      0x20\n      dup1\n      swap2\n      div\n      mul\n      0x20\n      add\n      mload(0x40)\n      swap1\n      dup2\n      add\n      0x40\n      mstore\n      dup1\n      swap3\n      swap2\n      swap1\n      dup2\n      dup2\n      mstore\n      0x20\n      add\n      dup3\n      dup1\n      sload\n      tag_81\n      swap1\n      tag_80\n      jump\t// in\n    tag_81:\n      dup1\n      iszero\n      tag_82\n      jumpi\n      dup1\n      0x1f\n      lt\n      tag_83\n      jumpi\n      0x0100\n      dup1\n      dup4\n      sload\n      div\n      mul\n      dup4\n      mstore\n      swap2\n      0x20\n      add\n      swap2\n      jump(tag_82)\n    tag_83:\n      dup3\n      add\n      swap2\n      swap1\n      0x00\n      mstore\n      keccak256(0x00, 0x20)\n      swap1\n    tag_84:\n      dup2\n      sload\n      dup2\n      mstore\n      swap1\n      0x01\n      add\n      swap1\n      0x20\n      add\n      dup1\n      dup4\n      gt\n      tag_84\n      jumpi\n      dup3\n      swap1\n      sub\n      0x1f\n      and\n      dup3\n      add\n      swap2\n    tag_82:\n      pop\n      pop\n      pop\n      pop\n      pop\n      swap1\n      dup1\n      0x02\n      add\n      0x00\n      swap1\n      sload\n      swap1\n      0x0100\n      exp\n      swap1\n      div\n      0xff\n      and\n      swap1\n      pop\n      dup4\n      jump\t// out\n        /* \"contracts/Experiment2.sol\":502:525  int8 public Neel_myInt8 */\n    tag_35:\n      0x02\n      0x00\n      swap1\n      sload\n      swap1\n      0x0100\n      exp\n      swap1\n      div\n      0x00\n      signextend\n      dup2\n      jump\t// out\n        /* \"contracts/Experiment2.sol\":1270:1322  uint8[] public Neel_myFixedArray = [1,2,3,4,5,6,7,8] */\n    tag_40:\n      0x07\n      dup2\n      dup2\n      sload\n      dup2\n      lt\n      tag_85\n      jumpi\n      0x00\n      dup1\n      revert\n    tag_85:\n      swap1\n      0x00\n      mstore\n      keccak256(0x00, 0x20)\n      swap1\n      0x20\n      swap2\n      dup3\n      dup3\n      div\n      add\n      swap2\n      swap1\n      mod\n      swap2\n      pop\n      sload\n      swap1\n      0x0100\n      exp\n      swap1\n      div\n      0xff\n      and\n      dup2\n      jump\t// out\n        /* \"contracts/Experiment2.sol\":356:392  uint256 public Neel_myUint256 = 3301 */\n    tag_43:\n      sload(0x01)\n      dup2\n      jump\t// out\n        /* \"contracts/Experiment2.sol\":719:765  int256 public Neel_myInt256 = type(int256).min */\n    tag_47:\n      sload(0x03)\n      dup2\n      jump\t// out\n        /* \"contracts/Experiment2.sol\":977:1000  bool public Neel_myBool */\n    tag_51:\n      0x05\n      0x00\n      swap1\n      sload\n      swap1\n      0x0100\n      exp\n      swap1\n      div\n      0xff\n      and\n      dup2\n      jump\t// out\n        /* \"contracts/Experiment2.sol\":1544:1597  Neel_myEnum public Neel_myStatus = Neel_myEnum.Active */\n    tag_55:\n      0x08\n      0x01\n      swap1\n      sload\n      swap1\n      0x0100\n      exp\n      swap1\n      div\n      0xff\n      and\n      dup2\n      jump\t// out\n        /* \"contracts/Experiment2.sol\":597:640  int32 public Neel_myInt32 = type(int32).min */\n    tag_59:\n      0x02\n      0x01\n      swap1\n      sload\n      swap1\n      0x0100\n      exp\n      swap1\n      div\n      0x03\n      signextend\n      dup2\n      jump\t// out\n        /* \"contracts/Experiment2.sol\":232:257  uint8 public Neel_myUint8 */\n    tag_63:\n      0x00\n      dup1\n      sload\n      swap1\n      0x0100\n      exp\n      swap1\n      div\n      0xff\n      and\n      dup2\n      jump\t// out\n        /* \"contracts/Experiment2.sol\":855:919  string public Neel_myString = \"Hello, My Name Is Neel Chotaliya\" */\n    tag_66:\n      0x04\n      dup1\n      sload\n      tag_87\n      swap1\n      tag_80\n      jump\t// in\n    tag_87:\n      dup1\n      0x1f\n      add\n      0x20\n      dup1\n      swap2\n      div\n      mul\n      0x20\n      add\n      mload(0x40)\n      swap1\n      dup2\n      add\n      0x40\n      mstore\n      dup1\n      swap3\n      swap2\n      swap1\n      dup2\n      dup2\n      mstore\n      0x20\n      add\n      dup3\n      dup1\n      sload\n      tag_88\n      swap1\n      tag_80\n      jump\t// in\n    tag_88:\n      dup1\n      iszero\n      tag_89\n      jumpi\n      dup1\n      0x1f\n      lt\n      tag_90\n      jumpi\n      0x0100\n      dup1\n      dup4\n      sload\n      div\n      mul\n      dup4\n      mstore\n      swap2\n      0x20\n      add\n      swap2\n      jump(tag_89)\n    tag_90:\n      dup3\n      add\n      swap2\n      swap1\n      0x00\n      mstore\n      keccak256(0x00, 0x20)\n      swap1\n    tag_91:\n      dup2\n      sload\n      dup2\n      mstore\n      swap1\n      0x01\n      add\n      swap1\n      0x20\n      add\n      dup1\n      dup4\n      gt\n      tag_91\n      jumpi\n      dup3\n      swap1\n      sub\n      0x1f\n      and\n      dup3\n      add\n      swap2\n    tag_89:\n      pop\n      pop\n      pop\n      pop\n      pop\n      dup2\n      jump\t// out\n        /* \"contracts/Experiment2.sol\":289:323  uint32 public Neel_myUint32 = 1033 */\n    tag_70:\n      0x00\n      0x01\n      swap1\n      sload\n      swap1\n      0x0100\n      exp\n      swap1\n      div\n      0xffffffff\n      and\n      dup2\n      jump\t// out\n        /* \"contracts/Experiment2.sol\":1372:1407  bytes1 public  Neel_myBytes1 = 0xab */\n    tag_74:\n      0x08\n      0x00\n      swap1\n      sload\n      swap1\n      0x0100\n      exp\n      swap1\n      div\n      0xf8\n      shl\n      dup2\n      jump\t// out\n        /* \"#utility.yul\":7:133   */\n    tag_92:\n        /* \"#utility.yul\":44:51   */\n      0x00\n        /* \"#utility.yul\":84:126   */\n      0xffffffffffffffffffffffffffffffffffffffff\n        /* \"#utility.yul\":77:82   */\n      dup3\n        /* \"#utility.yul\":73:127   */\n      and\n        /* \"#utility.yul\":62:127   */\n      swap1\n      pop\n        /* \"#utility.yul\":7:133   */\n      swap2\n      swap1\n      pop\n      jump\t// out\n        /* \"#utility.yul\":139:235   */\n    tag_93:\n        /* \"#utility.yul\":176:183   */\n      0x00\n        /* \"#utility.yul\":205:229   */\n      tag_130\n        /* \"#utility.yul\":223:228   */\n      dup3\n        /* \"#utility.yul\":205:229   */\n      tag_92\n      jump\t// in\n    tag_130:\n        /* \"#utility.yul\":194:229   */\n      swap1\n      pop\n        /* \"#utility.yul\":139:235   */\n      swap2\n      swap1\n      pop\n      jump\t// out\n        /* \"#utility.yul\":241:359   */\n    tag_94:\n        /* \"#utility.yul\":328:352   */\n      tag_132\n        /* \"#utility.yul\":346:351   */\n      dup2\n        /* \"#utility.yul\":328:352   */\n      tag_93\n      jump\t// in\n    tag_132:\n        /* \"#utility.yul\":323:326   */\n      dup3\n        /* \"#utility.yul\":316:353   */\n      mstore\n        /* \"#utility.yul\":241:359   */\n      pop\n      pop\n      jump\t// out\n        /* \"#utility.yul\":365:587   */\n    tag_23:\n        /* \"#utility.yul\":458:462   */\n      0x00\n        /* \"#utility.yul\":496:498   */\n      0x20\n        /* \"#utility.yul\":485:494   */\n      dup3\n        /* \"#utility.yul\":481:499   */\n      add\n        /* \"#utility.yul\":473:499   */\n      swap1\n      pop\n        /* \"#utility.yul\":509:580   */\n      tag_134\n        /* \"#utility.yul\":577:578   */\n      0x00\n        /* \"#utility.yul\":566:575   */\n      dup4\n        /* \"#utility.yul\":562:579   */\n      add\n        /* \"#utility.yul\":553:559   */\n      dup5\n        /* \"#utility.yul\":509:580   */\n      tag_94\n      jump\t// in\n    tag_134:\n        /* \"#utility.yul\":365:587   */\n      swap3\n      swap2\n      pop\n      pop\n      jump\t// out\n        /* \"#utility.yul\":674:791   */\n    tag_96:\n        /* \"#utility.yul\":783:784   */\n      0x00\n        /* \"#utility.yul\":780:781   */\n      dup1\n        /* \"#utility.yul\":773:785   */\n      revert\n        /* \"#utility.yul\":920:997   */\n    tag_98:\n        /* \"#utility.yul\":957:964   */\n      0x00\n        /* \"#utility.yul\":986:991   */\n      dup2\n        /* \"#utility.yul\":975:991   */\n      swap1\n      pop\n        /* \"#utility.yul\":920:997   */\n      swap2\n      swap1\n      pop\n      jump\t// out\n        /* \"#utility.yul\":1003:1125   */\n    tag_99:\n        /* \"#utility.yul\":1076:1100   */\n      tag_140\n        /* \"#utility.yul\":1094:1099   */\n      dup2\n        /* \"#utility.yul\":1076:1100   */\n      tag_98\n      jump\t// in\n    tag_140:\n        /* \"#utility.yul\":1069:1074   */\n      dup2\n        /* \"#utility.yul\":1066:1101   */\n      eq\n        /* \"#utility.yul\":1056:1119   */\n      tag_141\n      jumpi\n        /* \"#utility.yul\":1115:1116   */\n      0x00\n        /* \"#utility.yul\":1112:1113   */\n      dup1\n        /* \"#utility.yul\":1105:1117   */\n      revert\n        /* \"#utility.yul\":1056:1119   */\n    tag_141:\n        /* \"#utility.yul\":1003:1125   */\n      pop\n      jump\t// out\n        /* \"#utility.yul\":1131:1270   */\n    tag_100:\n        /* \"#utility.yul\":1177:1182   */\n      0x00\n        /* \"#utility.yul\":1215:1221   */\n      dup2\n        /* \"#utility.yul\":1202:1222   */\n      calldataload\n        /* \"#utility.yul\":1193:1222   */\n      swap1\n      pop\n        /* \"#utility.yul\":1231:1264   */\n      tag_143\n        /* \"#utility.yul\":1258:1263   */\n      dup2\n        /* \"#utility.yul\":1231:1264   */\n      tag_99\n      jump\t// in\n    tag_143:\n        /* \"#utility.yul\":1131:1270   */\n      swap3\n      swap2\n      pop\n      pop\n      jump\t// out\n        /* \"#utility.yul\":1276:1605   */\n    tag_26:\n        /* \"#utility.yul\":1335:1341   */\n      0x00\n        /* \"#utility.yul\":1384:1386   */\n      0x20\n        /* \"#utility.yul\":1372:1381   */\n      dup3\n        /* \"#utility.yul\":1363:1370   */\n      dup5\n        /* \"#utility.yul\":1359:1382   */\n      sub\n        /* \"#utility.yul\":1355:1387   */\n      slt\n        /* \"#utility.yul\":1352:1471   */\n      iszero\n      tag_145\n      jumpi\n        /* \"#utility.yul\":1390:1469   */\n      tag_146\n      tag_96\n      jump\t// in\n    tag_146:\n        /* \"#utility.yul\":1352:1471   */\n    tag_145:\n        /* \"#utility.yul\":1510:1511   */\n      0x00\n        /* \"#utility.yul\":1535:1588   */\n      tag_147\n        /* \"#utility.yul\":1580:1587   */\n      dup5\n        /* \"#utility.yul\":1571:1577   */\n      dup3\n        /* \"#utility.yul\":1560:1569   */\n      dup6\n        /* \"#utility.yul\":1556:1578   */\n      add\n        /* \"#utility.yul\":1535:1588   */\n      tag_100\n      jump\t// in\n    tag_147:\n        /* \"#utility.yul\":1525:1588   */\n      swap2\n      pop\n        /* \"#utility.yul\":1481:1598   */\n      pop\n        /* \"#utility.yul\":1276:1605   */\n      swap3\n      swap2\n      pop\n      pop\n      jump\t// out\n        /* \"#utility.yul\":1611:1697   */\n    tag_101:\n        /* \"#utility.yul\":1646:1653   */\n      0x00\n        /* \"#utility.yul\":1686:1690   */\n      0xff\n        /* \"#utility.yul\":1679:1684   */\n      dup3\n        /* \"#utility.yul\":1675:1691   */\n      and\n        /* \"#utility.yul\":1664:1691   */\n      swap1\n      pop\n        /* \"#utility.yul\":1611:1697   */\n      swap2\n      swap1\n      pop\n      jump\t// out\n        /* \"#utility.yul\":1703:1815   */\n    tag_102:\n        /* \"#utility.yul\":1786:1808   */\n      tag_150\n        /* \"#utility.yul\":1802:1807   */\n      dup2\n        /* \"#utility.yul\":1786:1808   */\n      tag_101\n      jump\t// in\n    tag_150:\n        /* \"#utility.yul\":1781:1784   */\n      dup3\n        /* \"#utility.yul\":1774:1809   */\n      mstore\n        /* \"#utility.yul\":1703:1815   */\n      pop\n      pop\n      jump\t// out\n        /* \"#utility.yul\":1821:2035   */\n    tag_29:\n        /* \"#utility.yul\":1910:1914   */\n      0x00\n        /* \"#utility.yul\":1948:1950   */\n      0x20\n        /* \"#utility.yul\":1937:1946   */\n      dup3\n        /* \"#utility.yul\":1933:1951   */\n      add\n        /* \"#utility.yul\":1925:1951   */\n      swap1\n      pop\n        /* \"#utility.yul\":1961:2028   */\n      tag_152\n        /* \"#utility.yul\":2025:2026   */\n      0x00\n        /* \"#utility.yul\":2014:2023   */\n      dup4\n        /* \"#utility.yul\":2010:2027   */\n      add\n        /* \"#utility.yul\":2001:2007   */\n      dup5\n        /* \"#utility.yul\":1961:2028   */\n      tag_102\n      jump\t// in\n    tag_152:\n        /* \"#utility.yul\":1821:2035   */\n      swap3\n      swap2\n      pop\n      pop\n      jump\t// out\n        /* \"#utility.yul\":2041:2159   */\n    tag_103:\n        /* \"#utility.yul\":2128:2152   */\n      tag_154\n        /* \"#utility.yul\":2146:2151   */\n      dup2\n        /* \"#utility.yul\":2128:2152   */\n      tag_98\n      jump\t// in\n    tag_154:\n        /* \"#utility.yul\":2123:2126   */\n      dup3\n        /* \"#utility.yul\":2116:2153   */\n      mstore\n        /* \"#utility.yul\":2041:2159   */\n      pop\n      pop\n      jump\t// out\n        /* \"#utility.yul\":2165:2264   */\n    tag_104:\n        /* \"#utility.yul\":2217:2223   */\n      0x00\n        /* \"#utility.yul\":2251:2256   */\n      dup2\n        /* \"#utility.yul\":2245:2257   */\n      mload\n        /* \"#utility.yul\":2235:2257   */\n      swap1\n      pop\n        /* \"#utility.yul\":2165:2264   */\n      swap2\n      swap1\n      pop\n      jump\t// out\n        /* \"#utility.yul\":2270:2439   */\n    tag_105:\n        /* \"#utility.yul\":2354:2365   */\n      0x00\n        /* \"#utility.yul\":2388:2394   */\n      dup3\n        /* \"#utility.yul\":2383:2386   */\n      dup3\n        /* \"#utility.yul\":2376:2395   */\n      mstore\n        /* \"#utility.yul\":2428:2432   */\n      0x20\n        /* \"#utility.yul\":2423:2426   */\n      dup3\n        /* \"#utility.yul\":2419:2433   */\n      add\n        /* \"#utility.yul\":2404:2433   */\n      swap1\n      pop\n        /* \"#utility.yul\":2270:2439   */\n      swap3\n      swap2\n      pop\n      pop\n      jump\t// out\n        /* \"#utility.yul\":2445:2584   */\n    tag_106:\n        /* \"#utility.yul\":2534:2540   */\n      dup3\n        /* \"#utility.yul\":2529:2532   */\n      dup2\n        /* \"#utility.yul\":2524:2527   */\n      dup4\n        /* \"#utility.yul\":2518:2541   */\n      mcopy\n        /* \"#utility.yul\":2575:2576   */\n      0x00\n        /* \"#utility.yul\":2566:2572   */\n      dup4\n        /* \"#utility.yul\":2561:2564   */\n      dup4\n        /* \"#utility.yul\":2557:2573   */\n      add\n        /* \"#utility.yul\":2550:2577   */\n      mstore\n        /* \"#utility.yul\":2445:2584   */\n      pop\n      pop\n      pop\n      jump\t// out\n        /* \"#utility.yul\":2590:2692   */\n    tag_107:\n        /* \"#utility.yul\":2631:2637   */\n      0x00\n        /* \"#utility.yul\":2682:2684   */\n      0x1f\n        /* \"#utility.yul\":2678:2685   */\n      not\n        /* \"#utility.yul\":2673:2675   */\n      0x1f\n        /* \"#utility.yul\":2666:2671   */\n      dup4\n        /* \"#utility.yul\":2662:2676   */\n      add\n        /* \"#utility.yul\":2658:2686   */\n      and\n        /* \"#utility.yul\":2648:2686   */\n      swap1\n      pop\n        /* \"#utility.yul\":2590:2692   */\n      swap2\n      swap1\n      pop\n      jump\t// out\n        /* \"#utility.yul\":2698:3075   */\n    tag_108:\n        /* \"#utility.yul\":2786:2789   */\n      0x00\n        /* \"#utility.yul\":2814:2853   */\n      tag_160\n        /* \"#utility.yul\":2847:2852   */\n      dup3\n        /* \"#utility.yul\":2814:2853   */\n      tag_104\n      jump\t// in\n    tag_160:\n        /* \"#utility.yul\":2869:2940   */\n      tag_161\n        /* \"#utility.yul\":2933:2939   */\n      dup2\n        /* \"#utility.yul\":2928:2931   */\n      dup6\n        /* \"#utility.yul\":2869:2940   */\n      tag_105\n      jump\t// in\n    tag_161:\n        /* \"#utility.yul\":2862:2940   */\n      swap4\n      pop\n        /* \"#utility.yul\":2949:3014   */\n      tag_162\n        /* \"#utility.yul\":3007:3013   */\n      dup2\n        /* \"#utility.yul\":3002:3005   */\n      dup6\n        /* \"#utility.yul\":2995:2999   */\n      0x20\n        /* \"#utility.yul\":2988:2993   */\n      dup7\n        /* \"#utility.yul\":2984:3000   */\n      add\n        /* \"#utility.yul\":2949:3014   */\n      tag_106\n      jump\t// in\n    tag_162:\n        /* \"#utility.yul\":3039:3068   */\n      tag_163\n        /* \"#utility.yul\":3061:3067   */\n      dup2\n        /* \"#utility.yul\":3039:3068   */\n      tag_107\n      jump\t// in\n    tag_163:\n        /* \"#utility.yul\":3034:3037   */\n      dup5\n        /* \"#utility.yul\":3030:3069   */\n      add\n        /* \"#utility.yul\":3023:3069   */\n      swap2\n      pop\n        /* \"#utility.yul\":2790:3075   */\n      pop\n        /* \"#utility.yul\":2698:3075   */\n      swap3\n      swap2\n      pop\n      pop\n      jump\t// out\n        /* \"#utility.yul\":3081:3171   */\n    tag_109:\n        /* \"#utility.yul\":3115:3122   */\n      0x00\n        /* \"#utility.yul\":3158:3163   */\n      dup2\n        /* \"#utility.yul\":3151:3164   */\n      iszero\n        /* \"#utility.yul\":3144:3165   */\n      iszero\n        /* \"#utility.yul\":3133:3165   */\n      swap1\n      pop\n        /* \"#utility.yul\":3081:3171   */\n      swap2\n      swap1\n      pop\n      jump\t// out\n        /* \"#utility.yul\":3177:3286   */\n    tag_110:\n        /* \"#utility.yul\":3258:3279   */\n      tag_166\n        /* \"#utility.yul\":3273:3278   */\n      dup2\n        /* \"#utility.yul\":3258:3279   */\n      tag_109\n      jump\t// in\n    tag_166:\n        /* \"#utility.yul\":3253:3256   */\n      dup3\n        /* \"#utility.yul\":3246:3280   */\n      mstore\n        /* \"#utility.yul\":3177:3286   */\n      pop\n      pop\n      jump\t// out\n        /* \"#utility.yul\":3292:3813   */\n    tag_33:\n        /* \"#utility.yul\":3455:3459   */\n      0x00\n        /* \"#utility.yul\":3493:3495   */\n      0x60\n        /* \"#utility.yul\":3482:3491   */\n      dup3\n        /* \"#utility.yul\":3478:3496   */\n      add\n        /* \"#utility.yul\":3470:3496   */\n      swap1\n      pop\n        /* \"#utility.yul\":3506:3577   */\n      tag_168\n        /* \"#utility.yul\":3574:3575   */\n      0x00\n        /* \"#utility.yul\":3563:3572   */\n      dup4\n        /* \"#utility.yul\":3559:3576   */\n      add\n        /* \"#utility.yul\":3550:3556   */\n      dup7\n        /* \"#utility.yul\":3506:3577   */\n      tag_103\n      jump\t// in\n    tag_168:\n        /* \"#utility.yul\":3624:3633   */\n      dup2\n        /* \"#utility.yul\":3618:3622   */\n      dup2\n        /* \"#utility.yul\":3614:3634   */\n      sub\n        /* \"#utility.yul\":3609:3611   */\n      0x20\n        /* \"#utility.yul\":3598:3607   */\n      dup4\n        /* \"#utility.yul\":3594:3612   */\n      add\n        /* \"#utility.yul\":3587:3635   */\n      mstore\n        /* \"#utility.yul\":3652:3730   */\n      tag_169\n        /* \"#utility.yul\":3725:3729   */\n      dup2\n        /* \"#utility.yul\":3716:3722   */\n      dup6\n        /* \"#utility.yul\":3652:3730   */\n      tag_108\n      jump\t// in\n    tag_169:\n        /* \"#utility.yul\":3644:3730   */\n      swap1\n      pop\n        /* \"#utility.yul\":3740:3806   */\n      tag_170\n        /* \"#utility.yul\":3802:3804   */\n      0x40\n        /* \"#utility.yul\":3791:3800   */\n      dup4\n        /* \"#utility.yul\":3787:3805   */\n      add\n        /* \"#utility.yul\":3778:3784   */\n      dup5\n        /* \"#utility.yul\":3740:3806   */\n      tag_110\n      jump\t// in\n    tag_170:\n        /* \"#utility.yul\":3292:3813   */\n      swap5\n      swap4\n      pop\n      pop\n      pop\n      pop\n      jump\t// out\n        /* \"#utility.yul\":3819:3908   */\n    tag_111:\n        /* \"#utility.yul\":3853:3860   */\n      0x00\n        /* \"#utility.yul\":3896:3901   */\n      dup2\n        /* \"#utility.yul\":3893:3894   */\n      0x00\n        /* \"#utility.yul\":3882:3902   */\n      signextend\n        /* \"#utility.yul\":3871:3902   */\n      swap1\n      pop\n        /* \"#utility.yul\":3819:3908   */\n      swap2\n      swap1\n      pop\n      jump\t// out\n        /* \"#utility.yul\":3914:4023   */\n    tag_112:\n        /* \"#utility.yul\":3995:4016   */\n      tag_173\n        /* \"#utility.yul\":4010:4015   */\n      dup2\n        /* \"#utility.yul\":3995:4016   */\n      tag_111\n      jump\t// in\n    tag_173:\n        /* \"#utility.yul\":3990:3993   */\n      dup3\n        /* \"#utility.yul\":3983:4017   */\n      mstore\n        /* \"#utility.yul\":3914:4023   */\n      pop\n      pop\n      jump\t// out\n        /* \"#utility.yul\":4029:4239   */\n    tag_37:\n        /* \"#utility.yul\":4116:4120   */\n      0x00\n        /* \"#utility.yul\":4154:4156   */\n      0x20\n        /* \"#utility.yul\":4143:4152   */\n      dup3\n        /* \"#utility.yul\":4139:4157   */\n      add\n        /* \"#utility.yul\":4131:4157   */\n      swap1\n      pop\n        /* \"#utility.yul\":4167:4232   */\n      tag_175\n        /* \"#utility.yul\":4229:4230   */\n      0x00\n        /* \"#utility.yul\":4218:4227   */\n      dup4\n        /* \"#utility.yul\":4214:4231   */\n      add\n        /* \"#utility.yul\":4205:4211   */\n      dup5\n        /* \"#utility.yul\":4167:4232   */\n      tag_112\n      jump\t// in\n    tag_175:\n        /* \"#utility.yul\":4029:4239   */\n      swap3\n      swap2\n      pop\n      pop\n      jump\t// out\n        /* \"#utility.yul\":4245:4467   */\n    tag_45:\n        /* \"#utility.yul\":4338:4342   */\n      0x00\n        /* \"#utility.yul\":4376:4378   */\n      0x20\n        /* \"#utility.yul\":4365:4374   */\n      dup3\n        /* \"#utility.yul\":4361:4379   */\n      add\n        /* \"#utility.yul\":4353:4379   */\n      swap1\n      pop\n        /* \"#utility.yul\":4389:4460   */\n      tag_177\n        /* \"#utility.yul\":4457:4458   */\n      0x00\n        /* \"#utility.yul\":4446:4455   */\n      dup4\n        /* \"#utility.yul\":4442:4459   */\n      add\n        /* \"#utility.yul\":4433:4439   */\n      dup5\n        /* \"#utility.yul\":4389:4460   */\n      tag_103\n      jump\t// in\n    tag_177:\n        /* \"#utility.yul\":4245:4467   */\n      swap3\n      swap2\n      pop\n      pop\n      jump\t// out\n        /* \"#utility.yul\":4473:4549   */\n    tag_113:\n        /* \"#utility.yul\":4509:4516   */\n      0x00\n        /* \"#utility.yul\":4538:4543   */\n      dup2\n        /* \"#utility.yul\":4527:4543   */\n      swap1\n      pop\n        /* \"#utility.yul\":4473:4549   */\n      swap2\n      swap1\n      pop\n      jump\t// out\n        /* \"#utility.yul\":4555:4670   */\n    tag_114:\n        /* \"#utility.yul\":4640:4663   */\n      tag_180\n        /* \"#utility.yul\":4657:4662   */\n      dup2\n        /* \"#utility.yul\":4640:4663   */\n      tag_113\n      jump\t// in\n    tag_180:\n        /* \"#utility.yul\":4635:4638   */\n      dup3\n        /* \"#utility.yul\":4628:4664   */\n      mstore\n        /* \"#utility.yul\":4555:4670   */\n      pop\n      pop\n      jump\t// out\n        /* \"#utility.yul\":4676:4894   */\n    tag_49:\n        /* \"#utility.yul\":4767:4771   */\n      0x00\n        /* \"#utility.yul\":4805:4807   */\n      0x20\n        /* \"#utility.yul\":4794:4803   */\n      dup3\n        /* \"#utility.yul\":4790:4808   */\n      add\n        /* \"#utility.yul\":4782:4808   */\n      swap1\n      pop\n        /* \"#utility.yul\":4818:4887   */\n      tag_182\n        /* \"#utility.yul\":4884:4885   */\n      0x00\n        /* \"#utility.yul\":4873:4882   */\n      dup4\n        /* \"#utility.yul\":4869:4886   */\n      add\n        /* \"#utility.yul\":4860:4866   */\n      dup5\n        /* \"#utility.yul\":4818:4887   */\n      tag_114\n      jump\t// in\n    tag_182:\n        /* \"#utility.yul\":4676:4894   */\n      swap3\n      swap2\n      pop\n      pop\n      jump\t// out\n        /* \"#utility.yul\":4900:5110   */\n    tag_53:\n        /* \"#utility.yul\":4987:4991   */\n      0x00\n        /* \"#utility.yul\":5025:5027   */\n      0x20\n        /* \"#utility.yul\":5014:5023   */\n      dup3\n        /* \"#utility.yul\":5010:5028   */\n      add\n        /* \"#utility.yul\":5002:5028   */\n      swap1\n      pop\n        /* \"#utility.yul\":5038:5103   */\n      tag_184\n        /* \"#utility.yul\":5100:5101   */\n      0x00\n        /* \"#utility.yul\":5089:5098   */\n      dup4\n        /* \"#utility.yul\":5085:5102   */\n      add\n        /* \"#utility.yul\":5076:5082   */\n      dup5\n        /* \"#utility.yul\":5038:5103   */\n      tag_110\n      jump\t// in\n    tag_184:\n        /* \"#utility.yul\":4900:5110   */\n      swap3\n      swap2\n      pop\n      pop\n      jump\t// out\n        /* \"#utility.yul\":5116:5296   */\n    tag_115:\n        /* \"#utility.yul\":5164:5241   */\n      0x4e487b7100000000000000000000000000000000000000000000000000000000\n        /* \"#utility.yul\":5161:5162   */\n      0x00\n        /* \"#utility.yul\":5154:5242   */\n      mstore\n        /* \"#utility.yul\":5261:5265   */\n      0x21\n        /* \"#utility.yul\":5258:5259   */\n      0x04\n        /* \"#utility.yul\":5251:5266   */\n      mstore\n        /* \"#utility.yul\":5285:5289   */\n      0x24\n        /* \"#utility.yul\":5282:5283   */\n      0x00\n        /* \"#utility.yul\":5275:5290   */\n      revert\n        /* \"#utility.yul\":5302:5421   */\n    tag_116:\n        /* \"#utility.yul\":5389:5390   */\n      0x03\n        /* \"#utility.yul\":5382:5387   */\n      dup2\n        /* \"#utility.yul\":5379:5391   */\n      lt\n        /* \"#utility.yul\":5369:5415   */\n      tag_187\n      jumpi\n        /* \"#utility.yul\":5395:5413   */\n      tag_188\n      tag_115\n      jump\t// in\n    tag_188:\n        /* \"#utility.yul\":5369:5415   */\n    tag_187:\n        /* \"#utility.yul\":5302:5421   */\n      pop\n      jump\t// out\n        /* \"#utility.yul\":5427:5566   */\n    tag_117:\n        /* \"#utility.yul\":5478:5485   */\n      0x00\n        /* \"#utility.yul\":5507:5512   */\n      dup2\n        /* \"#utility.yul\":5496:5512   */\n      swap1\n      pop\n        /* \"#utility.yul\":5513:5560   */\n      tag_190\n        /* \"#utility.yul\":5554:5559   */\n      dup3\n        /* \"#utility.yul\":5513:5560   */\n      tag_116\n      jump\t// in\n    tag_190:\n        /* \"#utility.yul\":5427:5566   */\n      swap2\n      swap1\n      pop\n      jump\t// out\n        /* \"#utility.yul\":5572:5711   */\n    tag_118:\n        /* \"#utility.yul\":5634:5643   */\n      0x00\n        /* \"#utility.yul\":5667:5705   */\n      tag_192\n        /* \"#utility.yul\":5699:5704   */\n      dup3\n        /* \"#utility.yul\":5667:5705   */\n      tag_117\n      jump\t// in\n    tag_192:\n        /* \"#utility.yul\":5654:5705   */\n      swap1\n      pop\n        /* \"#utility.yul\":5572:5711   */\n      swap2\n      swap1\n      pop\n      jump\t// out\n        /* \"#utility.yul\":5717:5872   */\n    tag_119:\n        /* \"#utility.yul\":5816:5865   */\n      tag_194\n        /* \"#utility.yul\":5859:5864   */\n      dup2\n        /* \"#utility.yul\":5816:5865   */\n      tag_118\n      jump\t// in\n    tag_194:\n        /* \"#utility.yul\":5811:5814   */\n      dup3\n        /* \"#utility.yul\":5804:5866   */\n      mstore\n        /* \"#utility.yul\":5717:5872   */\n      pop\n      pop\n      jump\t// out\n        /* \"#utility.yul\":5878:6124   */\n    tag_57:\n        /* \"#utility.yul\":5983:5987   */\n      0x00\n        /* \"#utility.yul\":6021:6023   */\n      0x20\n        /* \"#utility.yul\":6010:6019   */\n      dup3\n        /* \"#utility.yul\":6006:6024   */\n      add\n        /* \"#utility.yul\":5998:6024   */\n      swap1\n      pop\n        /* \"#utility.yul\":6034:6117   */\n      tag_196\n        /* \"#utility.yul\":6114:6115   */\n      0x00\n        /* \"#utility.yul\":6103:6112   */\n      dup4\n        /* \"#utility.yul\":6099:6116   */\n      add\n        /* \"#utility.yul\":6090:6096   */\n      dup5\n        /* \"#utility.yul\":6034:6117   */\n      tag_119\n      jump\t// in\n    tag_196:\n        /* \"#utility.yul\":5878:6124   */\n      swap3\n      swap2\n      pop\n      pop\n      jump\t// out\n        /* \"#utility.yul\":6130:6220   */\n    tag_120:\n        /* \"#utility.yul\":6165:6172   */\n      0x00\n        /* \"#utility.yul\":6208:6213   */\n      dup2\n        /* \"#utility.yul\":6205:6206   */\n      0x03\n        /* \"#utility.yul\":6194:6214   */\n      signextend\n        /* \"#utility.yul\":6183:6214   */\n      swap1\n      pop\n        /* \"#utility.yul\":6130:6220   */\n      swap2\n      swap1\n      pop\n      jump\t// out\n        /* \"#utility.yul\":6226:6338   */\n    tag_121:\n        /* \"#utility.yul\":6309:6331   */\n      tag_199\n        /* \"#utility.yul\":6325:6330   */\n      dup2\n        /* \"#utility.yul\":6309:6331   */\n      tag_120\n      jump\t// in\n    tag_199:\n        /* \"#utility.yul\":6304:6307   */\n      dup3\n        /* \"#utility.yul\":6297:6332   */\n      mstore\n        /* \"#utility.yul\":6226:6338   */\n      pop\n      pop\n      jump\t// out\n        /* \"#utility.yul\":6344:6558   */\n    tag_61:\n        /* \"#utility.yul\":6433:6437   */\n      0x00\n        /* \"#utility.yul\":6471:6473   */\n      0x20\n        /* \"#utility.yul\":6460:6469   */\n      dup3\n        /* \"#utility.yul\":6456:6474   */\n      add\n        /* \"#utility.yul\":6448:6474   */\n      swap1\n      pop\n        /* \"#utility.yul\":6484:6551   */\n      tag_201\n        /* \"#utility.yul\":6548:6549   */\n      0x00\n        /* \"#utility.yul\":6537:6546   */\n      dup4\n        /* \"#utility.yul\":6533:6550   */\n      add\n        /* \"#utility.yul\":6524:6530   */\n      dup5\n        /* \"#utility.yul\":6484:6551   */\n      tag_121\n      jump\t// in\n    tag_201:\n        /* \"#utility.yul\":6344:6558   */\n      swap3\n      swap2\n      pop\n      pop\n      jump\t// out\n        /* \"#utility.yul\":6564:6877   */\n    tag_68:\n        /* \"#utility.yul\":6677:6681   */\n      0x00\n        /* \"#utility.yul\":6715:6717   */\n      0x20\n        /* \"#utility.yul\":6704:6713   */\n      dup3\n        /* \"#utility.yul\":6700:6718   */\n      add\n        /* \"#utility.yul\":6692:6718   */\n      swap1\n      pop\n        /* \"#utility.yul\":6764:6773   */\n      dup2\n        /* \"#utility.yul\":6758:6762   */\n      dup2\n        /* \"#utility.yul\":6754:6774   */\n      sub\n        /* \"#utility.yul\":6750:6751   */\n      0x00\n        /* \"#utility.yul\":6739:6748   */\n      dup4\n        /* \"#utility.yul\":6735:6752   */\n      add\n        /* \"#utility.yul\":6728:6775   */\n      mstore\n        /* \"#utility.yul\":6792:6870   */\n      tag_203\n        /* \"#utility.yul\":6865:6869   */\n      dup2\n        /* \"#utility.yul\":6856:6862   */\n      dup5\n        /* \"#utility.yul\":6792:6870   */\n      tag_108\n      jump\t// in\n    tag_203:\n        /* \"#utility.yul\":6784:6870   */\n      swap1\n      pop\n        /* \"#utility.yul\":6564:6877   */\n      swap3\n      swap2\n      pop\n      pop\n      jump\t// out\n        /* \"#utility.yul\":6883:6976   */\n    tag_122:\n        /* \"#utility.yul\":6919:6926   */\n      0x00\n        /* \"#utility.yul\":6959:6969   */\n      0xffffffff\n        /* \"#utility.yul\":6952:6957   */\n      dup3\n        /* \"#utility.yul\":6948:6970   */\n      and\n        /* \"#utility.yul\":6937:6970   */\n      swap1\n      pop\n        /* \"#utility.yul\":6883:6976   */\n      swap2\n      swap1\n      pop\n      jump\t// out\n        /* \"#utility.yul\":6982:7097   */\n    tag_123:\n        /* \"#utility.yul\":7067:7090   */\n      tag_206\n        /* \"#utility.yul\":7084:7089   */\n      dup2\n        /* \"#utility.yul\":7067:7090   */\n      tag_122\n      jump\t// in\n    tag_206:\n        /* \"#utility.yul\":7062:7065   */\n      dup3\n        /* \"#utility.yul\":7055:7091   */\n      mstore\n        /* \"#utility.yul\":6982:7097   */\n      pop\n      pop\n      jump\t// out\n        /* \"#utility.yul\":7103:7321   */\n    tag_72:\n        /* \"#utility.yul\":7194:7198   */\n      0x00\n        /* \"#utility.yul\":7232:7234   */\n      0x20\n        /* \"#utility.yul\":7221:7230   */\n      dup3\n        /* \"#utility.yul\":7217:7235   */\n      add\n        /* \"#utility.yul\":7209:7235   */\n      swap1\n      pop\n        /* \"#utility.yul\":7245:7314   */\n      tag_208\n        /* \"#utility.yul\":7311:7312   */\n      0x00\n        /* \"#utility.yul\":7300:7309   */\n      dup4\n        /* \"#utility.yul\":7296:7313   */\n      add\n        /* \"#utility.yul\":7287:7293   */\n      dup5\n        /* \"#utility.yul\":7245:7314   */\n      tag_123\n      jump\t// in\n    tag_208:\n        /* \"#utility.yul\":7103:7321   */\n      swap3\n      swap2\n      pop\n      pop\n      jump\t// out\n        /* \"#utility.yul\":7327:7476   */\n    tag_124:\n        /* \"#utility.yul\":7363:7370   */\n      0x00\n        /* \"#utility.yul\":7403:7469   */\n      0xff00000000000000000000000000000000000000000000000000000000000000\n        /* \"#utility.yul\":7396:7401   */\n      dup3\n        /* \"#utility.yul\":7392:7470   */\n      and\n        /* \"#utility.yul\":7381:7470   */\n      swap1\n      pop\n        /* \"#utility.yul\":7327:7476   */\n      swap2\n      swap1\n      pop\n      jump\t// out\n        /* \"#utility.yul\":7482:7597   */\n    tag_125:\n        /* \"#utility.yul\":7567:7590   */\n      tag_211\n        /* \"#utility.yul\":7584:7589   */\n      dup2\n        /* \"#utility.yul\":7567:7590   */\n      tag_124\n      jump\t// in\n    tag_211:\n        /* \"#utility.yul\":7562:7565   */\n      dup3\n        /* \"#utility.yul\":7555:7591   */\n      mstore\n        /* \"#utility.yul\":7482:7597   */\n      pop\n      pop\n      jump\t// out\n        /* \"#utility.yul\":7603:7821   */\n    tag_76:\n        /* \"#utility.yul\":7694:7698   */\n      0x00\n        /* \"#utility.yul\":7732:7734   */\n      0x20\n        /* \"#utility.yul\":7721:7730   */\n      dup3\n        /* \"#utility.yul\":7717:7735   */\n      add\n        /* \"#utility.yul\":7709:7735   */\n      swap1\n      pop\n        /* \"#utility.yul\":7745:7814   */\n      tag_213\n        /* \"#utility.yul\":7811:7812   */\n      0x00\n        /* \"#utility.yul\":7800:7809   */\n      dup4\n        /* \"#utility.yul\":7796:7813   */\n      add\n        /* \"#utility.yul\":7787:7793   */\n      dup5\n        /* \"#utility.yul\":7745:7814   */\n      tag_125\n      jump\t// in\n    tag_213:\n        /* \"#utility.yul\":7603:7821   */\n      swap3\n      swap2\n      pop\n      pop\n      jump\t// out\n        /* \"#utility.yul\":7827:8007   */\n    tag_126:\n        /* \"#utility.yul\":7875:7952   */\n      0x4e487b7100000000000000000000000000000000000000000000000000000000\n        /* \"#utility.yul\":7872:7873   */\n      0x00\n        /* \"#utility.yul\":7865:7953   */\n      mstore\n        /* \"#utility.yul\":7972:7976   */\n      0x22\n        /* \"#utility.yul\":7969:7970   */\n      0x04\n        /* \"#utility.yul\":7962:7977   */\n      mstore\n        /* \"#utility.yul\":7996:8000   */\n      0x24\n        /* \"#utility.yul\":7993:7994   */\n      0x00\n        /* \"#utility.yul\":7986:8001   */\n      revert\n        /* \"#utility.yul\":8013:8333   */\n    tag_80:\n        /* \"#utility.yul\":8057:8063   */\n      0x00\n        /* \"#utility.yul\":8094:8095   */\n      0x02\n        /* \"#utility.yul\":8088:8092   */\n      dup3\n        /* \"#utility.yul\":8084:8096   */\n      div\n        /* \"#utility.yul\":8074:8096   */\n      swap1\n      pop\n        /* \"#utility.yul\":8141:8142   */\n      0x01\n        /* \"#utility.yul\":8135:8139   */\n      dup3\n        /* \"#utility.yul\":8131:8143   */\n      and\n        /* \"#utility.yul\":8162:8180   */\n      dup1\n        /* \"#utility.yul\":8152:8233   */\n      tag_216\n      jumpi\n        /* \"#utility.yul\":8218:8222   */\n      0x7f\n        /* \"#utility.yul\":8210:8216   */\n      dup3\n        /* \"#utility.yul\":8206:8223   */\n      and\n        /* \"#utility.yul\":8196:8223   */\n      swap2\n      pop\n        /* \"#utility.yul\":8152:8233   */\n    tag_216:\n        /* \"#utility.yul\":8280:8282   */\n      0x20\n        /* \"#utility.yul\":8272:8278   */\n      dup3\n        /* \"#utility.yul\":8269:8283   */\n      lt\n        /* \"#utility.yul\":8249:8267   */\n      dup2\n        /* \"#utility.yul\":8246:8284   */\n      sub\n        /* \"#utility.yul\":8243:8327   */\n      tag_217\n      jumpi\n        /* \"#utility.yul\":8299:8317   */\n      tag_218\n      tag_126\n      jump\t// in\n    tag_218:\n        /* \"#utility.yul\":8243:8327   */\n    tag_217:\n        /* \"#utility.yul\":8064:8333   */\n      pop\n        /* \"#utility.yul\":8013:8333   */\n      swap2\n      swap1\n      pop\n      jump\t// out\n\n    auxdata: 0xa2646970667358221220dd186ad4d2f4337ff75a44c5af0995d8b90aaa483881a637726989da1c1bbb2b64736f6c634300081a0033\n}\n",
				"bytecode": {
					"linkReferences": {},
					"object": "60806040526104095f60016101000a81548163ffffffff021916908363ffffffff160217905550610ce56001557fffffffffffffffffffffffffffffffffffffffffffffffffffffffff80000000600260016101000a81548163ffffffff021916908360030b63ffffffff1602179055507f80000000000000000000000000000000000000000000000000000000000000006003556040518060400160405280602081526020017f48656c6c6f2c204d79204e616d65204973204e65656c2043686f74616c697961815250600490816100d89190610495565b50604051806101000160405280600160ff168152602001600260ff168152602001600360ff168152602001600460ff168152602001600560ff168152602001600660ff168152602001600760ff168152602001600860ff16815250600790600861014392919061019e565b5060ab60f81b60085f6101000a81548160ff021916908360f81c02179055506001600860016101000a81548160ff0219169083600281111561018857610187610564565b5b0217905550348015610198575f80fd5b50610591565b828054828255905f5260205f2090601f0160209004810192821561022f579160200282015f5b8382111561020157835183826101000a81548160ff021916908360ff16021790555092602001926001016020815f010492830192600103026101c4565b801561022d5782816101000a81549060ff02191690556001016020815f01049283019260010302610201565b505b50905061023c9190610240565b5090565b5b80821115610257575f815f905550600101610241565b5090565b5f81519050919050565b7f4e487b71000000000000000000000000000000000000000000000000000000005f52604160045260245ffd5b7f4e487b71000000000000000000000000000000000000000000000000000000005f52602260045260245ffd5b5f60028204905060018216806102d657607f821691505b6020821081036102e9576102e8610292565b5b50919050565b5f819050815f5260205f209050919050565b5f6020601f8301049050919050565b5f82821b905092915050565b5f6008830261034b7fffffffffffffffffffffffffffffffffffffffffffffffffffffffffffffffff82610310565b6103558683610310565b95508019841693508086168417925050509392505050565b5f819050919050565b5f819050919050565b5f61039961039461038f8461036d565b610376565b61036d565b9050919050565b5f819050919050565b6103b28361037f565b6103c66103be826103a0565b84845461031c565b825550505050565b5f90565b6103da6103ce565b6103e58184846103a9565b505050565b5b81811015610408576103fd5f826103d2565b6001810190506103eb565b5050565b601f82111561044d5761041e816102ef565b61042784610301565b81016020851015610436578190505b61044a61044285610301565b8301826103ea565b50505b505050565b5f82821c905092915050565b5f61046d5f1984600802610452565b1980831691505092915050565b5f610485838361045e565b9150826002028217905092915050565b61049e8261025b565b67ffffffffffffffff8111156104b7576104b6610265565b5b6104c182546102bf565b6104cc82828561040c565b5f60209050601f8311600181146104fd575f84156104eb578287015190505b6104f5858261047a565b86555061055c565b601f19841661050b866102ef565b5f5b828110156105325784890151825560018201915060208501945060208101905061050d565b8683101561054f578489015161054b601f89168261045e565b8355505b6001600288020188555050505b505050505050565b7f4e487b71000000000000000000000000000000000000000000000000000000005f52602160045260245ffd5b6109558061059e5f395ff3fe608060405234801561000f575f80fd5b50600436106100e8575f3560e01c806374893c2b1161008a578063911382d311610064578063911382d31461023e578063c2479c351461025c578063cf2ad5801461027a578063d8d0b42d14610298576100e8565b806374893c2b146101e45780638862e2fe146102025780638ca18e3f14610220576100e8565b806332df637d116100c657806332df637d1461015a57806357ff38de14610178578063603ac709146101a857806365908f1e146101c6576100e8565b80630e7452f1146100ec57806317226d501461010a57806319fb90e01461013a575b5f80fd5b6100f46102b6565b604051610101919061053e565b60405180910390f35b610124600480360381019061011f919061058e565b6102dc565b60405161013191906105d4565b60405180910390f35b61014261030d565b60405161015193929190610686565b60405180910390f35b6101626103b6565b60405161016f91906106dc565b60405180910390f35b610192600480360381019061018d919061058e565b6103c7565b60405161019f91906105d4565b60405180910390f35b6101b06103f8565b6040516101bd91906106f5565b60405180910390f35b6101ce6103fe565b6040516101db9190610726565b60405180910390f35b6101ec610404565b6040516101f9919061073f565b60405180910390f35b61020a610416565b60405161021791906107cb565b60405180910390f35b610228610429565b60405161023591906107ff565b60405180910390f35b61024661043c565b60405161025391906105d4565b60405180910390f35b61026461044c565b6040516102719190610818565b60405180910390f35b6102826104d8565b60405161028f9190610856565b60405180910390f35b6102a06104ed565b6040516102ad91906108a9565b60405180910390f35b600560019054906101000a900473ffffffffffffffffffffffffffffffffffffffff1681565b600681815481106102eb575f80fd5b905f5260205f209060209182820401919006915054906101000a900460ff1681565b6009805f015490806001018054610323906108ef565b80601f016020809104026020016040519081016040528092919081815260200182805461034f906108ef565b801561039a5780601f106103715761010080835404028352916020019161039a565b820191905f5260205f20905b81548152906001019060200180831161037d57829003601f168201915b505050505090806002015f9054906101000a900460ff16905083565b60025f9054906101000a90045f0b81565b600781815481106103d6575f80fd5b905f5260205f209060209182820401919006915054906101000a900460ff1681565b60015481565b60035481565b60055f9054906101000a900460ff1681565b600860019054906101000a900460ff1681565b600260019054906101000a900460030b81565b5f8054906101000a900460ff1681565b60048054610459906108ef565b80601f0160208091040260200160405190810160405280929190818152602001828054610485906108ef565b80156104d05780601f106104a7576101008083540402835291602001916104d0565b820191905f5260205f20905b8154815290600101906020018083116104b357829003601f168201915b505050505081565b5f60019054906101000a900463ffffffff1681565b60085f9054906101000a900460f81b81565b5f73ffffffffffffffffffffffffffffffffffffffff82169050919050565b5f610528826104ff565b9050919050565b6105388161051e565b82525050565b5f6020820190506105515f83018461052f565b92915050565b5f80fd5b5f819050919050565b61056d8161055b565b8114610577575f80fd5b50565b5f8135905061058881610564565b92915050565b5f602082840312156105a3576105a2610557565b5b5f6105b08482850161057a565b91505092915050565b5f60ff82169050919050565b6105ce816105b9565b82525050565b5f6020820190506105e75f8301846105c5565b92915050565b6105f68161055b565b82525050565b5f81519050919050565b5f82825260208201905092915050565b8281835e5f83830152505050565b5f601f19601f8301169050919050565b5f61063e826105fc565b6106488185610606565b9350610658818560208601610616565b61066181610624565b840191505092915050565b5f8115159050919050565b6106808161066c565b82525050565b5f6060820190506106995f8301866105ed565b81810360208301526106ab8185610634565b90506106ba6040830184610677565b949350505050565b5f815f0b9050919050565b6106d6816106c2565b82525050565b5f6020820190506106ef5f8301846106cd565b92915050565b5f6020820190506107085f8301846105ed565b92915050565b5f819050919050565b6107208161070e565b82525050565b5f6020820190506107395f830184610717565b92915050565b5f6020820190506107525f830184610677565b92915050565b7f4e487b71000000000000000000000000000000000000000000000000000000005f52602160045260245ffd5b6003811061079657610795610758565b5b50565b5f8190506107a682610785565b919050565b5f6107b582610799565b9050919050565b6107c5816107ab565b82525050565b5f6020820190506107de5f8301846107bc565b92915050565b5f8160030b9050919050565b6107f9816107e4565b82525050565b5f6020820190506108125f8301846107f0565b92915050565b5f6020820190508181035f8301526108308184610634565b905092915050565b5f63ffffffff82169050919050565b61085081610838565b82525050565b5f6020820190506108695f830184610847565b92915050565b5f7fff0000000000000000000000000000000000000000000000000000000000000082169050919050565b6108a38161086f565b82525050565b5f6020820190506108bc5f83018461089a565b92915050565b7f4e487b71000000000000000000000000000000000000000000000000000000005f52602260045260245ffd5b5f600282049050600182168061090657607f821691505b602082108103610919576109186108c2565b5b5091905056fea2646970667358221220dd186ad4d2f4337ff75a44c5af0995d8b90aaa483881a637726989da1c1bbb2b64736f6c634300081a0033",
					"opcodes": "PUSH1 0x80 PUSH1 0x40 MSTORE PUSH2 0x409 PUSH0 PUSH1 0x1 PUSH2 0x100 EXP DUP2 SLOAD DUP2 PUSH4 0xFFFFFFFF MUL NOT AND SWAP1 DUP4 PUSH4 0xFFFFFFFF AND MUL OR SWAP1 SSTORE POP PUSH2 0xCE5 PUSH1 0x1 SSTORE PUSH32 0xFFFFFFFFFFFFFFFFFFFFFFFFFFFFFFFFFFFFFFFFFFFFFFFFFFFFFFFF80000000 PUSH1 0x2 PUSH1 0x1 PUSH2 0x100 EXP DUP2 SLOAD DUP2 PUSH4 0xFFFFFFFF MUL NOT AND SWAP1 DUP4 PUSH1 0x3 SIGNEXTEND PUSH4 0xFFFFFFFF AND MUL OR SWAP1 SSTORE POP PUSH32 0x8000000000000000000000000000000000000000000000000000000000000000 PUSH1 0x3 SSTORE PUSH1 0x40 MLOAD DUP1 PUSH1 0x40 ADD PUSH1 0x40 MSTORE DUP1 PUSH1 0x20 DUP2 MSTORE PUSH1 0x20 ADD PUSH32 0x48656C6C6F2C204D79204E616D65204973204E65656C2043686F74616C697961 DUP2 MSTORE POP PUSH1 0x4 SWAP1 DUP2 PUSH2 0xD8 SWAP2 SWAP1 PUSH2 0x495 JUMP JUMPDEST POP PUSH1 0x40 MLOAD DUP1 PUSH2 0x100 ADD PUSH1 0x40 MSTORE DUP1 PUSH1 0x1 PUSH1 0xFF AND DUP2 MSTORE PUSH1 0x20 ADD PUSH1 0x2 PUSH1 0xFF AND DUP2 MSTORE PUSH1 0x20 ADD PUSH1 0x3 PUSH1 0xFF AND DUP2 MSTORE PUSH1 0x20 ADD PUSH1 0x4 PUSH1 0xFF AND DUP2 MSTORE PUSH1 0x20 ADD PUSH1 0x5 PUSH1 0xFF AND DUP2 MSTORE PUSH1 0x20 ADD PUSH1 0x6 PUSH1 0xFF AND DUP2 MSTORE PUSH1 0x20 ADD PUSH1 0x7 PUSH1 0xFF AND DUP2 MSTORE PUSH1 0x20 ADD PUSH1 0x8 PUSH1 0xFF AND DUP2 MSTORE POP PUSH1 0x7 SWAP1 PUSH1 0x8 PUSH2 0x143 SWAP3 SWAP2 SWAP1 PUSH2 0x19E JUMP JUMPDEST POP PUSH1 0xAB PUSH1 0xF8 SHL PUSH1 0x8 PUSH0 PUSH2 0x100 EXP DUP2 SLOAD DUP2 PUSH1 0xFF MUL NOT AND SWAP1 DUP4 PUSH1 0xF8 SHR MUL OR SWAP1 SSTORE POP PUSH1 0x1 PUSH1 0x8 PUSH1 0x1 PUSH2 0x100 EXP DUP2 SLOAD DUP2 PUSH1 0xFF MUL NOT AND SWAP1 DUP4 PUSH1 0x2 DUP2 GT ISZERO PUSH2 0x188 JUMPI PUSH2 0x187 PUSH2 0x564 JUMP JUMPDEST JUMPDEST MUL OR SWAP1 SSTORE POP CALLVALUE DUP1 ISZERO PUSH2 0x198 JUMPI PUSH0 DUP1 REVERT JUMPDEST POP PUSH2 0x591 JUMP JUMPDEST DUP3 DUP1 SLOAD DUP3 DUP3 SSTORE SWAP1 PUSH0 MSTORE PUSH1 0x20 PUSH0 KECCAK256 SWAP1 PUSH1 0x1F ADD PUSH1 0x20 SWAP1 DIV DUP2 ADD SWAP3 DUP3 ISZERO PUSH2 0x22F JUMPI SWAP2 PUSH1 0x20 MUL DUP3 ADD PUSH0 JUMPDEST DUP4 DUP3 GT ISZERO PUSH2 0x201 JUMPI DUP4 MLOAD DUP4 DUP3 PUSH2 0x100 EXP DUP2 SLOAD DUP2 PUSH1 0xFF MUL NOT AND SWAP1 DUP4 PUSH1 0xFF AND MUL OR SWAP1 SSTORE POP SWAP3 PUSH1 0x20 ADD SWAP3 PUSH1 0x1 ADD PUSH1 0x20 DUP2 PUSH0 ADD DIV SWAP3 DUP4 ADD SWAP3 PUSH1 0x1 SUB MUL PUSH2 0x1C4 JUMP JUMPDEST DUP1 ISZERO PUSH2 0x22D JUMPI DUP3 DUP2 PUSH2 0x100 EXP DUP2 SLOAD SWAP1 PUSH1 0xFF MUL NOT AND SWAP1 SSTORE PUSH1 0x1 ADD PUSH1 0x20 DUP2 PUSH0 ADD DIV SWAP3 DUP4 ADD SWAP3 PUSH1 0x1 SUB MUL PUSH2 0x201 JUMP JUMPDEST POP JUMPDEST POP SWAP1 POP PUSH2 0x23C SWAP2 SWAP1 PUSH2 0x240 JUMP JUMPDEST POP SWAP1 JUMP JUMPDEST JUMPDEST DUP1 DUP3 GT ISZERO PUSH2 0x257 JUMPI PUSH0 DUP2 PUSH0 SWAP1 SSTORE POP PUSH1 0x1 ADD PUSH2 0x241 JUMP JUMPDEST POP SWAP1 JUMP JUMPDEST PUSH0 DUP2 MLOAD SWAP1 POP SWAP2 SWAP1 POP JUMP JUMPDEST PUSH32 0x4E487B7100000000000000000000000000000000000000000000000000000000 PUSH0 MSTORE PUSH1 0x41 PUSH1 0x4 MSTORE PUSH1 0x24 PUSH0 REVERT JUMPDEST PUSH32 0x4E487B7100000000000000000000000000000000000000000000000000000000 PUSH0 MSTORE PUSH1 0x22 PUSH1 0x4 MSTORE PUSH1 0x24 PUSH0 REVERT JUMPDEST PUSH0 PUSH1 0x2 DUP3 DIV SWAP1 POP PUSH1 0x1 DUP3 AND DUP1 PUSH2 0x2D6 JUMPI PUSH1 0x7F DUP3 AND SWAP2 POP JUMPDEST PUSH1 0x20 DUP3 LT DUP2 SUB PUSH2 0x2E9 JUMPI PUSH2 0x2E8 PUSH2 0x292 JUMP JUMPDEST JUMPDEST POP SWAP2 SWAP1 POP JUMP JUMPDEST PUSH0 DUP2 SWAP1 POP DUP2 PUSH0 MSTORE PUSH1 0x20 PUSH0 KECCAK256 SWAP1 POP SWAP2 SWAP1 POP JUMP JUMPDEST PUSH0 PUSH1 0x20 PUSH1 0x1F DUP4 ADD DIV SWAP1 POP SWAP2 SWAP1 POP JUMP JUMPDEST PUSH0 DUP3 DUP3 SHL SWAP1 POP SWAP3 SWAP2 POP POP JUMP JUMPDEST PUSH0 PUSH1 0x8 DUP4 MUL PUSH2 0x34B PUSH32 0xFFFFFFFFFFFFFFFFFFFFFFFFFFFFFFFFFFFFFFFFFFFFFFFFFFFFFFFFFFFFFFFF DUP3 PUSH2 0x310 JUMP JUMPDEST PUSH2 0x355 DUP7 DUP4 PUSH2 0x310 JUMP JUMPDEST SWAP6 POP DUP1 NOT DUP5 AND SWAP4 POP DUP1 DUP7 AND DUP5 OR SWAP3 POP POP POP SWAP4 SWAP3 POP POP POP JUMP JUMPDEST PUSH0 DUP2 SWAP1 POP SWAP2 SWAP1 POP JUMP JUMPDEST PUSH0 DUP2 SWAP1 POP SWAP2 SWAP1 POP JUMP JUMPDEST PUSH0 PUSH2 0x399 PUSH2 0x394 PUSH2 0x38F DUP5 PUSH2 0x36D JUMP JUMPDEST PUSH2 0x376 JUMP JUMPDEST PUSH2 0x36D JUMP JUMPDEST SWAP1 POP SWAP2 SWAP1 POP JUMP JUMPDEST PUSH0 DUP2 SWAP1 POP SWAP2 SWAP1 POP JUMP JUMPDEST PUSH2 0x3B2 DUP4 PUSH2 0x37F JUMP JUMPDEST PUSH2 0x3C6 PUSH2 0x3BE DUP3 PUSH2 0x3A0 JUMP JUMPDEST DUP5 DUP5 SLOAD PUSH2 0x31C JUMP JUMPDEST DUP3 SSTORE POP POP POP POP JUMP JUMPDEST PUSH0 SWAP1 JUMP JUMPDEST PUSH2 0x3DA PUSH2 0x3CE JUMP JUMPDEST PUSH2 0x3E5 DUP2 DUP5 DUP5 PUSH2 0x3A9 JUMP JUMPDEST POP POP POP JUMP JUMPDEST JUMPDEST DUP2 DUP2 LT ISZERO PUSH2 0x408 JUMPI PUSH2 0x3FD PUSH0 DUP3 PUSH2 0x3D2 JUMP JUMPDEST PUSH1 0x1 DUP2 ADD SWAP1 POP PUSH2 0x3EB JUMP JUMPDEST POP POP JUMP JUMPDEST PUSH1 0x1F DUP3 GT ISZERO PUSH2 0x44D JUMPI PUSH2 0x41E DUP2 PUSH2 0x2EF JUMP JUMPDEST PUSH2 0x427 DUP5 PUSH2 0x301 JUMP JUMPDEST DUP2 ADD PUSH1 0x20 DUP6 LT ISZERO PUSH2 0x436 JUMPI DUP2 SWAP1 POP JUMPDEST PUSH2 0x44A PUSH2 0x442 DUP6 PUSH2 0x301 JUMP JUMPDEST DUP4 ADD DUP3 PUSH2 0x3EA JUMP JUMPDEST POP POP JUMPDEST POP POP POP JUMP JUMPDEST PUSH0 DUP3 DUP3 SHR SWAP1 POP SWAP3 SWAP2 POP POP JUMP JUMPDEST PUSH0 PUSH2 0x46D PUSH0 NOT DUP5 PUSH1 0x8 MUL PUSH2 0x452 JUMP JUMPDEST NOT DUP1 DUP4 AND SWAP2 POP POP SWAP3 SWAP2 POP POP JUMP JUMPDEST PUSH0 PUSH2 0x485 DUP4 DUP4 PUSH2 0x45E JUMP JUMPDEST SWAP2 POP DUP3 PUSH1 0x2 MUL DUP3 OR SWAP1 POP SWAP3 SWAP2 POP POP JUMP JUMPDEST PUSH2 0x49E DUP3 PUSH2 0x25B JUMP JUMPDEST PUSH8 0xFFFFFFFFFFFFFFFF DUP2 GT ISZERO PUSH2 0x4B7 JUMPI PUSH2 0x4B6 PUSH2 0x265 JUMP JUMPDEST JUMPDEST PUSH2 0x4C1 DUP3 SLOAD PUSH2 0x2BF JUMP JUMPDEST PUSH2 0x4CC DUP3 DUP3 DUP6 PUSH2 0x40C JUMP JUMPDEST PUSH0 PUSH1 0x20 SWAP1 POP PUSH1 0x1F DUP4 GT PUSH1 0x1 DUP2 EQ PUSH2 0x4FD JUMPI PUSH0 DUP5 ISZERO PUSH2 0x4EB JUMPI DUP3 DUP8 ADD MLOAD SWAP1 POP JUMPDEST PUSH2 0x4F5 DUP6 DUP3 PUSH2 0x47A JUMP JUMPDEST DUP7 SSTORE POP PUSH2 0x55C JUMP JUMPDEST PUSH1 0x1F NOT DUP5 AND PUSH2 0x50B DUP7 PUSH2 0x2EF JUMP JUMPDEST PUSH0 JUMPDEST DUP3 DUP2 LT ISZERO PUSH2 0x532 JUMPI DUP5 DUP10 ADD MLOAD DUP3 SSTORE PUSH1 0x1 DUP3 ADD SWAP2 POP PUSH1 0x20 DUP6 ADD SWAP5 POP PUSH1 0x20 DUP2 ADD SWAP1 POP PUSH2 0x50D JUMP JUMPDEST DUP7 DUP4 LT ISZERO PUSH2 0x54F JUMPI DUP5 DUP10 ADD MLOAD PUSH2 0x54B PUSH1 0x1F DUP10 AND DUP3 PUSH2 0x45E JUMP JUMPDEST DUP4 SSTORE POP JUMPDEST PUSH1 0x1 PUSH1 0x2 DUP9 MUL ADD DUP9 SSTORE POP POP POP JUMPDEST POP POP POP POP POP POP JUMP JUMPDEST PUSH32 0x4E487B7100000000000000000000000000000000000000000000000000000000 PUSH0 MSTORE PUSH1 0x21 PUSH1 0x4 MSTORE PUSH1 0x24 PUSH0 REVERT JUMPDEST PUSH2 0x955 DUP1 PUSH2 0x59E PUSH0 CODECOPY PUSH0 RETURN INVALID PUSH1 0x80 PUSH1 0x40 MSTORE CALLVALUE DUP1 ISZERO PUSH2 0xF JUMPI PUSH0 DUP1 REVERT JUMPDEST POP PUSH1 0x4 CALLDATASIZE LT PUSH2 0xE8 JUMPI PUSH0 CALLDATALOAD PUSH1 0xE0 SHR DUP1 PUSH4 0x74893C2B GT PUSH2 0x8A JUMPI DUP1 PUSH4 0x911382D3 GT PUSH2 0x64 JUMPI DUP1 PUSH4 0x911382D3 EQ PUSH2 0x23E JUMPI DUP1 PUSH4 0xC2479C35 EQ PUSH2 0x25C JUMPI DUP1 PUSH4 0xCF2AD580 EQ PUSH2 0x27A JUMPI DUP1 PUSH4 0xD8D0B42D EQ PUSH2 0x298 JUMPI PUSH2 0xE8 JUMP JUMPDEST DUP1 PUSH4 0x74893C2B EQ PUSH2 0x1E4 JUMPI DUP1 PUSH4 0x8862E2FE EQ PUSH2 0x202 JUMPI DUP1 PUSH4 0x8CA18E3F EQ PUSH2 0x220 JUMPI PUSH2 0xE8 JUMP JUMPDEST DUP1 PUSH4 0x32DF637D GT PUSH2 0xC6 JUMPI DUP1 PUSH4 0x32DF637D EQ PUSH2 0x15A JUMPI DUP1 PUSH4 0x57FF38DE EQ PUSH2 0x178 JUMPI DUP1 PUSH4 0x603AC709 EQ PUSH2 0x1A8 JUMPI DUP1 PUSH4 0x65908F1E EQ PUSH2 0x1C6 JUMPI PUSH2 0xE8 JUMP JUMPDEST DUP1 PUSH4 0xE7452F1 EQ PUSH2 0xEC JUMPI DUP1 PUSH4 0x17226D50 EQ PUSH2 0x10A JUMPI DUP1 PUSH4 0x19FB90E0 EQ PUSH2 0x13A JUMPI JUMPDEST PUSH0 DUP1 REVERT JUMPDEST PUSH2 0xF4 PUSH2 0x2B6 JUMP JUMPDEST PUSH1 0x40 MLOAD PUSH2 0x101 SWAP2 SWAP1 PUSH2 0x53E JUMP JUMPDEST PUSH1 0x40 MLOAD DUP1 SWAP2 SUB SWAP1 RETURN JUMPDEST PUSH2 0x124 PUSH1 0x4 DUP1 CALLDATASIZE SUB DUP2 ADD SWAP1 PUSH2 0x11F SWAP2 SWAP1 PUSH2 0x58E JUMP JUMPDEST PUSH2 0x2DC JUMP JUMPDEST PUSH1 0x40 MLOAD PUSH2 0x131 SWAP2 SWAP1 PUSH2 0x5D4 JUMP JUMPDEST PUSH1 0x40 MLOAD DUP1 SWAP2 SUB SWAP1 RETURN JUMPDEST PUSH2 0x142 PUSH2 0x30D JUMP JUMPDEST PUSH1 0x40 MLOAD PUSH2 0x151 SWAP4 SWAP3 SWAP2 SWAP1 PUSH2 0x686 JUMP JUMPDEST PUSH1 0x40 MLOAD DUP1 SWAP2 SUB SWAP1 RETURN JUMPDEST PUSH2 0x162 PUSH2 0x3B6 JUMP JUMPDEST PUSH1 0x40 MLOAD PUSH2 0x16F SWAP2 SWAP1 PUSH2 0x6DC JUMP JUMPDEST PUSH1 0x40 MLOAD DUP1 SWAP2 SUB SWAP1 RETURN JUMPDEST PUSH2 0x192 PUSH1 0x4 DUP1 CALLDATASIZE SUB DUP2 ADD SWAP1 PUSH2 0x18D SWAP2 SWAP1 PUSH2 0x58E JUMP JUMPDEST PUSH2 0x3C7 JUMP JUMPDEST PUSH1 0x40 MLOAD PUSH2 0x19F SWAP2 SWAP1 PUSH2 0x5D4 JUMP JUMPDEST PUSH1 0x40 MLOAD DUP1 SWAP2 SUB SWAP1 RETURN JUMPDEST PUSH2 0x1B0 PUSH2 0x3F8 JUMP JUMPDEST PUSH1 0x40 MLOAD PUSH2 0x1BD SWAP2 SWAP1 PUSH2 0x6F5 JUMP JUMPDEST PUSH1 0x40 MLOAD DUP1 SWAP2 SUB SWAP1 RETURN JUMPDEST PUSH2 0x1CE PUSH2 0x3FE JUMP JUMPDEST PUSH1 0x40 MLOAD PUSH2 0x1DB SWAP2 SWAP1 PUSH2 0x726 JUMP JUMPDEST PUSH1 0x40 MLOAD DUP1 SWAP2 SUB SWAP1 RETURN JUMPDEST PUSH2 0x1EC PUSH2 0x404 JUMP JUMPDEST PUSH1 0x40 MLOAD PUSH2 0x1F9 SWAP2 SWAP1 PUSH2 0x73F JUMP JUMPDEST PUSH1 0x40 MLOAD DUP1 SWAP2 SUB SWAP1 RETURN JUMPDEST PUSH2 0x20A PUSH2 0x416 JUMP JUMPDEST PUSH1 0x40 MLOAD PUSH2 0x217 SWAP2 SWAP1 PUSH2 0x7CB JUMP JUMPDEST PUSH1 0x40 MLOAD DUP1 SWAP2 SUB SWAP1 RETURN JUMPDEST PUSH2 0x228 PUSH2 0x429 JUMP JUMPDEST PUSH1 0x40 MLOAD PUSH2 0x235 SWAP2 SWAP1 PUSH2 0x7FF JUMP JUMPDEST PUSH1 0x40 MLOAD DUP1 SWAP2 SUB SWAP1 RETURN JUMPDEST PUSH2 0x246 PUSH2 0x43C JUMP JUMPDEST PUSH1 0x40 MLOAD PUSH2 0x253 SWAP2 SWAP1 PUSH2 0x5D4 JUMP JUMPDEST PUSH1 0x40 MLOAD DUP1 SWAP2 SUB SWAP1 RETURN JUMPDEST PUSH2 0x264 PUSH2 0x44C JUMP JUMPDEST PUSH1 0x40 MLOAD PUSH2 0x271 SWAP2 SWAP1 PUSH2 0x818 JUMP JUMPDEST PUSH1 0x40 MLOAD DUP1 SWAP2 SUB SWAP1 RETURN JUMPDEST PUSH2 0x282 PUSH2 0x4D8 JUMP JUMPDEST PUSH1 0x40 MLOAD PUSH2 0x28F SWAP2 SWAP1 PUSH2 0x856 JUMP JUMPDEST PUSH1 0x40 MLOAD DUP1 SWAP2 SUB SWAP1 RETURN JUMPDEST PUSH2 0x2A0 PUSH2 0x4ED JUMP JUMPDEST PUSH1 0x40 MLOAD PUSH2 0x2AD SWAP2 SWAP1 PUSH2 0x8A9 JUMP JUMPDEST PUSH1 0x40 MLOAD DUP1 SWAP2 SUB SWAP1 RETURN JUMPDEST PUSH1 0x5 PUSH1 0x1 SWAP1 SLOAD SWAP1 PUSH2 0x100 EXP SWAP1 DIV PUSH20 0xFFFFFFFFFFFFFFFFFFFFFFFFFFFFFFFFFFFFFFFF AND DUP2 JUMP JUMPDEST PUSH1 0x6 DUP2 DUP2 SLOAD DUP2 LT PUSH2 0x2EB JUMPI PUSH0 DUP1 REVERT JUMPDEST SWAP1 PUSH0 MSTORE PUSH1 0x20 PUSH0 KECCAK256 SWAP1 PUSH1 0x20 SWAP2 DUP3 DUP3 DIV ADD SWAP2 SWAP1 MOD SWAP2 POP SLOAD SWAP1 PUSH2 0x100 EXP SWAP1 DIV PUSH1 0xFF AND DUP2 JUMP JUMPDEST PUSH1 0x9 DUP1 PUSH0 ADD SLOAD SWAP1 DUP1 PUSH1 0x1 ADD DUP1 SLOAD PUSH2 0x323 SWAP1 PUSH2 0x8EF JUMP JUMPDEST DUP1 PUSH1 0x1F ADD PUSH1 0x20 DUP1 SWAP2 DIV MUL PUSH1 0x20 ADD PUSH1 0x40 MLOAD SWAP1 DUP2 ADD PUSH1 0x40 MSTORE DUP1 SWAP3 SWAP2 SWAP1 DUP2 DUP2 MSTORE PUSH1 0x20 ADD DUP3 DUP1 SLOAD PUSH2 0x34F SWAP1 PUSH2 0x8EF JUMP JUMPDEST DUP1 ISZERO PUSH2 0x39A JUMPI DUP1 PUSH1 0x1F LT PUSH2 0x371 JUMPI PUSH2 0x100 DUP1 DUP4 SLOAD DIV MUL DUP4 MSTORE SWAP2 PUSH1 0x20 ADD SWAP2 PUSH2 0x39A JUMP JUMPDEST DUP3 ADD SWAP2 SWAP1 PUSH0 MSTORE PUSH1 0x20 PUSH0 KECCAK256 SWAP1 JUMPDEST DUP2 SLOAD DUP2 MSTORE SWAP1 PUSH1 0x1 ADD SWAP1 PUSH1 0x20 ADD DUP1 DUP4 GT PUSH2 0x37D JUMPI DUP3 SWAP1 SUB PUSH1 0x1F AND DUP3 ADD SWAP2 JUMPDEST POP POP POP POP POP SWAP1 DUP1 PUSH1 0x2 ADD PUSH0 SWAP1 SLOAD SWAP1 PUSH2 0x100 EXP SWAP1 DIV PUSH1 0xFF AND SWAP1 POP DUP4 JUMP JUMPDEST PUSH1 0x2 PUSH0 SWAP1 SLOAD SWAP1 PUSH2 0x100 EXP SWAP1 DIV PUSH0 SIGNEXTEND DUP2 JUMP JUMPDEST PUSH1 0x7 DUP2 DUP2 SLOAD DUP2 LT PUSH2 0x3D6 JUMPI PUSH0 DUP1 REVERT JUMPDEST SWAP1 PUSH0 MSTORE PUSH1 0x20 PUSH0 KECCAK256 SWAP1 PUSH1 0x20 SWAP2 DUP3 DUP3 DIV ADD SWAP2 SWAP1 MOD SWAP2 POP SLOAD SWAP1 PUSH2 0x100 EXP SWAP1 DIV PUSH1 0xFF AND DUP2 JUMP JUMPDEST PUSH1 0x1 SLOAD DUP2 JUMP JUMPDEST PUSH1 0x3 SLOAD DUP2 JUMP JUMPDEST PUSH1 0x5 PUSH0 SWAP1 SLOAD SWAP1 PUSH2 0x100 EXP SWAP1 DIV PUSH1 0xFF AND DUP2 JUMP JUMPDEST PUSH1 0x8 PUSH1 0x1 SWAP1 SLOAD SWAP1 PUSH2 0x100 EXP SWAP1 DIV PUSH1 0xFF AND DUP2 JUMP JUMPDEST PUSH1 0x2 PUSH1 0x1 SWAP1 SLOAD SWAP1 PUSH2 0x100 EXP SWAP1 DIV PUSH1 0x3 SIGNEXTEND DUP2 JUMP JUMPDEST PUSH0 DUP1 SLOAD SWAP1 PUSH2 0x100 EXP SWAP1 DIV PUSH1 0xFF AND DUP2 JUMP JUMPDEST PUSH1 0x4 DUP1 SLOAD PUSH2 0x459 SWAP1 PUSH2 0x8EF JUMP JUMPDEST DUP1 PUSH1 0x1F ADD PUSH1 0x20 DUP1 SWAP2 DIV MUL PUSH1 0x20 ADD PUSH1 0x40 MLOAD SWAP1 DUP2 ADD PUSH1 0x40 MSTORE DUP1 SWAP3 SWAP2 SWAP1 DUP2 DUP2 MSTORE PUSH1 0x20 ADD DUP3 DUP1 SLOAD PUSH2 0x485 SWAP1 PUSH2 0x8EF JUMP JUMPDEST DUP1 ISZERO PUSH2 0x4D0 JUMPI DUP1 PUSH1 0x1F LT PUSH2 0x4A7 JUMPI PUSH2 0x100 DUP1 DUP4 SLOAD DIV MUL DUP4 MSTORE SWAP2 PUSH1 0x20 ADD SWAP2 PUSH2 0x4D0 JUMP JUMPDEST DUP3 ADD SWAP2 SWAP1 PUSH0 MSTORE PUSH1 0x20 PUSH0 KECCAK256 SWAP1 JUMPDEST DUP2 SLOAD DUP2 MSTORE SWAP1 PUSH1 0x1 ADD SWAP1 PUSH1 0x20 ADD DUP1 DUP4 GT PUSH2 0x4B3 JUMPI DUP3 SWAP1 SUB PUSH1 0x1F AND DUP3 ADD SWAP2 JUMPDEST POP POP POP POP POP DUP2 JUMP JUMPDEST PUSH0 PUSH1 0x1 SWAP1 SLOAD SWAP1 PUSH2 0x100 EXP SWAP1 DIV PUSH4 0xFFFFFFFF AND DUP2 JUMP JUMPDEST PUSH1 0x8 PUSH0 SWAP1 SLOAD SWAP1 PUSH2 0x100 EXP SWAP1 DIV PUSH1 0xF8 SHL DUP2 JUMP JUMPDEST PUSH0 PUSH20 0xFFFFFFFFFFFFFFFFFFFFFFFFFFFFFFFFFFFFFFFF DUP3 AND SWAP1 POP SWAP2 SWAP1 POP JUMP JUMPDEST PUSH0 PUSH2 0x528 DUP3 PUSH2 0x4FF JUMP JUMPDEST SWAP1 POP SWAP2 SWAP1 POP JUMP JUMPDEST PUSH2 0x538 DUP2 PUSH2 0x51E JUMP JUMPDEST DUP3 MSTORE POP POP JUMP JUMPDEST PUSH0 PUSH1 0x20 DUP3 ADD SWAP1 POP PUSH2 0x551 PUSH0 DUP4 ADD DUP5 PUSH2 0x52F JUMP JUMPDEST SWAP3 SWAP2 POP POP JUMP JUMPDEST PUSH0 DUP1 REVERT JUMPDEST PUSH0 DUP2 SWAP1 POP SWAP2 SWAP1 POP JUMP JUMPDEST PUSH2 0x56D DUP2 PUSH2 0x55B JUMP JUMPDEST DUP2 EQ PUSH2 0x577 JUMPI PUSH0 DUP1 REVERT JUMPDEST POP JUMP JUMPDEST PUSH0 DUP2 CALLDATALOAD SWAP1 POP PUSH2 0x588 DUP2 PUSH2 0x564 JUMP JUMPDEST SWAP3 SWAP2 POP POP JUMP JUMPDEST PUSH0 PUSH1 0x20 DUP3 DUP5 SUB SLT ISZERO PUSH2 0x5A3 JUMPI PUSH2 0x5A2 PUSH2 0x557 JUMP JUMPDEST JUMPDEST PUSH0 PUSH2 0x5B0 DUP5 DUP3 DUP6 ADD PUSH2 0x57A JUMP JUMPDEST SWAP2 POP POP SWAP3 SWAP2 POP POP JUMP JUMPDEST PUSH0 PUSH1 0xFF DUP3 AND SWAP1 POP SWAP2 SWAP1 POP JUMP JUMPDEST PUSH2 0x5CE DUP2 PUSH2 0x5B9 JUMP JUMPDEST DUP3 MSTORE POP POP JUMP JUMPDEST PUSH0 PUSH1 0x20 DUP3 ADD SWAP1 POP PUSH2 0x5E7 PUSH0 DUP4 ADD DUP5 PUSH2 0x5C5 JUMP JUMPDEST SWAP3 SWAP2 POP POP JUMP JUMPDEST PUSH2 0x5F6 DUP2 PUSH2 0x55B JUMP JUMPDEST DUP3 MSTORE POP POP JUMP JUMPDEST PUSH0 DUP2 MLOAD SWAP1 POP SWAP2 SWAP1 POP JUMP JUMPDEST PUSH0 DUP3 DUP3 MSTORE PUSH1 0x20 DUP3 ADD SWAP1 POP SWAP3 SWAP2 POP POP JUMP JUMPDEST DUP3 DUP2 DUP4 MCOPY PUSH0 DUP4 DUP4 ADD MSTORE POP POP POP JUMP JUMPDEST PUSH0 PUSH1 0x1F NOT PUSH1 0x1F DUP4 ADD AND SWAP1 POP SWAP2 SWAP1 POP JUMP JUMPDEST PUSH0 PUSH2 0x63E DUP3 PUSH2 0x5FC JUMP JUMPDEST PUSH2 0x648 DUP2 DUP6 PUSH2 0x606 JUMP JUMPDEST SWAP4 POP PUSH2 0x658 DUP2 DUP6 PUSH1 0x20 DUP7 ADD PUSH2 0x616 JUMP JUMPDEST PUSH2 0x661 DUP2 PUSH2 0x624 JUMP JUMPDEST DUP5 ADD SWAP2 POP POP SWAP3 SWAP2 POP POP JUMP JUMPDEST PUSH0 DUP2 ISZERO ISZERO SWAP1 POP SWAP2 SWAP1 POP JUMP JUMPDEST PUSH2 0x680 DUP2 PUSH2 0x66C JUMP JUMPDEST DUP3 MSTORE POP POP JUMP JUMPDEST PUSH0 PUSH1 0x60 DUP3 ADD SWAP1 POP PUSH2 0x699 PUSH0 DUP4 ADD DUP7 PUSH2 0x5ED JUMP JUMPDEST DUP2 DUP2 SUB PUSH1 0x20 DUP4 ADD MSTORE PUSH2 0x6AB DUP2 DUP6 PUSH2 0x634 JUMP JUMPDEST SWAP1 POP PUSH2 0x6BA PUSH1 0x40 DUP4 ADD DUP5 PUSH2 0x677 JUMP JUMPDEST SWAP5 SWAP4 POP POP POP POP JUMP JUMPDEST PUSH0 DUP2 PUSH0 SIGNEXTEND SWAP1 POP SWAP2 SWAP1 POP JUMP JUMPDEST PUSH2 0x6D6 DUP2 PUSH2 0x6C2 JUMP JUMPDEST DUP3 MSTORE POP POP JUMP JUMPDEST PUSH0 PUSH1 0x20 DUP3 ADD SWAP1 POP PUSH2 0x6EF PUSH0 DUP4 ADD DUP5 PUSH2 0x6CD JUMP JUMPDEST SWAP3 SWAP2 POP POP JUMP JUMPDEST PUSH0 PUSH1 0x20 DUP3 ADD SWAP1 POP PUSH2 0x708 PUSH0 DUP4 ADD DUP5 PUSH2 0x5ED JUMP JUMPDEST SWAP3 SWAP2 POP POP JUMP JUMPDEST PUSH0 DUP2 SWAP1 POP SWAP2 SWAP1 POP JUMP JUMPDEST PUSH2 0x720 DUP2 PUSH2 0x70E JUMP JUMPDEST DUP3 MSTORE POP POP JUMP JUMPDEST PUSH0 PUSH1 0x20 DUP3 ADD SWAP1 POP PUSH2 0x739 PUSH0 DUP4 ADD DUP5 PUSH2 0x717 JUMP JUMPDEST SWAP3 SWAP2 POP POP JUMP JUMPDEST PUSH0 PUSH1 0x20 DUP3 ADD SWAP1 POP PUSH2 0x752 PUSH0 DUP4 ADD DUP5 PUSH2 0x677 JUMP JUMPDEST SWAP3 SWAP2 POP POP JUMP JUMPDEST PUSH32 0x4E487B7100000000000000000000000000000000000000000000000000000000 PUSH0 MSTORE PUSH1 0x21 PUSH1 0x4 MSTORE PUSH1 0x24 PUSH0 REVERT JUMPDEST PUSH1 0x3 DUP2 LT PUSH2 0x796 JUMPI PUSH2 0x795 PUSH2 0x758 JUMP JUMPDEST JUMPDEST POP JUMP JUMPDEST PUSH0 DUP2 SWAP1 POP PUSH2 0x7A6 DUP3 PUSH2 0x785 JUMP JUMPDEST SWAP2 SWAP1 POP JUMP JUMPDEST PUSH0 PUSH2 0x7B5 DUP3 PUSH2 0x799 JUMP JUMPDEST SWAP1 POP SWAP2 SWAP1 POP JUMP JUMPDEST PUSH2 0x7C5 DUP2 PUSH2 0x7AB JUMP JUMPDEST DUP3 MSTORE POP POP JUMP JUMPDEST PUSH0 PUSH1 0x20 DUP3 ADD SWAP1 POP PUSH2 0x7DE PUSH0 DUP4 ADD DUP5 PUSH2 0x7BC JUMP JUMPDEST SWAP3 SWAP2 POP POP JUMP JUMPDEST PUSH0 DUP2 PUSH1 0x3 SIGNEXTEND SWAP1 POP SWAP2 SWAP1 POP JUMP JUMPDEST PUSH2 0x7F9 DUP2 PUSH2 0x7E4 JUMP JUMPDEST DUP3 MSTORE POP POP JUMP JUMPDEST PUSH0 PUSH1 0x20 DUP3 ADD SWAP1 POP PUSH2 0x812 PUSH0 DUP4 ADD DUP5 PUSH2 0x7F0 JUMP JUMPDEST SWAP3 SWAP2 POP POP JUMP JUMPDEST PUSH0 PUSH1 0x20 DUP3 ADD SWAP1 POP DUP2 DUP2 SUB PUSH0 DUP4 ADD MSTORE PUSH2 0x830 DUP2 DUP5 PUSH2 0x634 JUMP JUMPDEST SWAP1 POP SWAP3 SWAP2 POP POP JUMP JUMPDEST PUSH0 PUSH4 0xFFFFFFFF DUP3 AND SWAP1 POP SWAP2 SWAP1 POP JUMP JUMPDEST PUSH2 0x850 DUP2 PUSH2 0x838 JUMP JUMPDEST DUP3 MSTORE POP POP JUMP JUMPDEST PUSH0 PUSH1 0x20 DUP3 ADD SWAP1 POP PUSH2 0x869 PUSH0 DUP4 ADD DUP5 PUSH2 0x847 JUMP JUMPDEST SWAP3 SWAP2 POP POP JUMP JUMPDEST PUSH0 PUSH32 0xFF00000000000000000000000000000000000000000000000000000000000000 DUP3 AND SWAP1 POP SWAP2 SWAP1 POP JUMP JUMPDEST PUSH2 0x8A3 DUP2 PUSH2 0x86F JUMP JUMPDEST DUP3 MSTORE POP POP JUMP JUMPDEST PUSH0 PUSH1 0x20 DUP3 ADD SWAP1 POP PUSH2 0x8BC PUSH0 DUP4 ADD DUP5 PUSH2 0x89A JUMP JUMPDEST SWAP3 SWAP2 POP POP JUMP JUMPDEST PUSH32 0x4E487B7100000000000000000000000000000000000000000000000000000000 PUSH0 MSTORE PUSH1 0x22 PUSH1 0x4 MSTORE PUSH1 0x24 PUSH0 REVERT JUMPDEST PUSH0 PUSH1 0x2 DUP3 DIV SWAP1 POP PUSH1 0x1 DUP3 AND DUP1 PUSH2 0x906 JUMPI PUSH1 0x7F DUP3 AND SWAP2 POP JUMPDEST PUSH1 0x20 DUP3 LT DUP2 SUB PUSH2 0x919 JUMPI PUSH2 0x918 PUSH2 0x8C2 JUMP JUMPDEST JUMPDEST POP SWAP2 SWAP1 POP JUMP INVALID LOG2 PUSH5 0x6970667358 0x22 SLT KECCAK256 0xDD XOR PUSH11 0xD4D2F4337FF75A44C5AF09 SWAP6 0xD8 0xB9 EXP 0xAA BASEFEE CODESIZE DUP2 0xA6 CALLDATACOPY PUSH19 0x6989DA1C1BBB2B64736F6C634300081A003300 "
				},
				"gasEstimates": {
					"creation": {
						"codeDepositCost": "477800",
						"executionCost": "infinite",
						"totalCost": "infinite"
					},
					"external": {
						"Neel_myAddress()": "2583",
						"Neel_myBool()": "2489",
						"Neel_myBytes1()": "2554",
						"Neel_myDynamicArray(uint256)": "6577",
						"Neel_myFixedArray(uint256)": "6576",
						"Neel_myInt256()": "2514",
						"Neel_myInt32()": "2588",
						"Neel_myInt8()": "2491",
						"Neel_myStatus()": "2650",
						"Neel_myString()": "infinite",
						"Neel_myUint256()": "2492",
						"Neel_myUint32()": "2582",
						"Neel_myUint8()": "2485",
						"Neel_user()": "infinite"
					}
				},
				"methodIdentifiers": {
					"Neel_myAddress()": "0e7452f1",
					"Neel_myBool()": "74893c2b",
					"Neel_myBytes1()": "d8d0b42d",
					"Neel_myDynamicArray(uint256)": "17226d50",
					"Neel_myFixedArray(uint256)": "57ff38de",
					"Neel_myInt256()": "65908f1e",
					"Neel_myInt32()": "8ca18e3f",
					"Neel_myInt8()": "32df637d",
					"Neel_myStatus()": "8862e2fe",
					"Neel_myString()": "c2479c35",
					"Neel_myUint256()": "603ac709",
					"Neel_myUint32()": "cf2ad580",
					"Neel_myUint8()": "911382d3",
					"Neel_user()": "19fb90e0"
				}
			},
			"storageLayout": {
				"storage": [
					{
						"astId": 3,
						"contract": "contracts/Experiment2.sol:ChotaliyaNeel2",
						"label": "Neel_myUint8",
						"offset": 0,
						"slot": "0",
						"type": "t_uint8"
					},
					{
						"astId": 6,
						"contract": "contracts/Experiment2.sol:ChotaliyaNeel2",
						"label": "Neel_myUint32",
						"offset": 1,
						"slot": "0",
						"type": "t_uint32"
					},
					{
						"astId": 9,
						"contract": "contracts/Experiment2.sol:ChotaliyaNeel2",
						"label": "Neel_myUint256",
						"offset": 0,
						"slot": "1",
						"type": "t_uint256"
					},
					{
						"astId": 11,
						"contract": "contracts/Experiment2.sol:ChotaliyaNeel2",
						"label": "Neel_myInt8",
						"offset": 0,
						"slot": "2",
						"type": "t_int8"
					},
					{
						"astId": 18,
						"contract": "contracts/Experiment2.sol:ChotaliyaNeel2",
						"label": "Neel_myInt32",
						"offset": 1,
						"slot": "2",
						"type": "t_int32"
					},
					{
						"astId": 25,
						"contract": "contracts/Experiment2.sol:ChotaliyaNeel2",
						"label": "Neel_myInt256",
						"offset": 0,
						"slot": "3",
						"type": "t_int256"
					},
					{
						"astId": 28,
						"contract": "contracts/Experiment2.sol:ChotaliyaNeel2",
						"label": "Neel_myString",
						"offset": 0,
						"slot": "4",
						"type": "t_string_storage"
					},
					{
						"astId": 30,
						"contract": "contracts/Experiment2.sol:ChotaliyaNeel2",
						"label": "Neel_myBool",
						"offset": 0,
						"slot": "5",
						"type": "t_bool"
					},
					{
						"astId": 32,
						"contract": "contracts/Experiment2.sol:ChotaliyaNeel2",
						"label": "Neel_myAddress",
						"offset": 1,
						"slot": "5",
						"type": "t_address"
					},
					{
						"astId": 35,
						"contract": "contracts/Experiment2.sol:ChotaliyaNeel2",
						"label": "Neel_myDynamicArray",
						"offset": 0,
						"slot": "6",
						"type": "t_array(t_uint8)dyn_storage"
					},
					{
						"astId": 47,
						"contract": "contracts/Experiment2.sol:ChotaliyaNeel2",
						"label": "Neel_myFixedArray",
						"offset": 0,
						"slot": "7",
						"type": "t_array(t_uint8)dyn_storage"
					},
					{
						"astId": 50,
						"contract": "contracts/Experiment2.sol:ChotaliyaNeel2",
						"label": "Neel_myBytes1",
						"offset": 0,
						"slot": "8",
						"type": "t_bytes1"
					},
					{
						"astId": 59,
						"contract": "contracts/Experiment2.sol:ChotaliyaNeel2",
						"label": "Neel_myStatus",
						"offset": 1,
						"slot": "8",
						"type": "t_enum(Neel_myEnum)54"
					},
					{
						"astId": 69,
						"contract": "contracts/Experiment2.sol:ChotaliyaNeel2",
						"label": "Neel_user",
						"offset": 0,
						"slot": "9",
						"type": "t_struct(Neel_User)66_storage"
					}
				],
				"types": {
					"t_address": {
						"encoding": "inplace",
						"label": "address",
						"numberOfBytes": "20"
					},
					"t_array(t_uint8)dyn_storage": {
						"base": "t_uint8",
						"encoding": "dynamic_array",
						"label": "uint8[]",
						"numberOfBytes": "32"
					},
					"t_bool": {
						"encoding": "inplace",
						"label": "bool",
						"numberOfBytes": "1"
					},
					"t_bytes1": {
						"encoding": "inplace",
						"label": "bytes1",
						"numberOfBytes": "1"
					},
					"t_enum(Neel_myEnum)54": {
						"encoding": "inplace",
						"label": "enum ChotaliyaNeel2.Neel_myEnum",
						"numberOfBytes": "1"
					},
					"t_int256": {
						"encoding": "inplace",
						"label": "int256",
						"numberOfBytes": "32"
					},
					"t_int32": {
						"encoding": "inplace",
						"label": "int32",
						"numberOfBytes": "4"
					},
					"t_int8": {
						"encoding": "inplace",
						"label": "int8",
						"numberOfBytes": "1"
					},
					"t_string_storage": {
						"encoding": "bytes",
						"label": "string",
						"numberOfBytes": "32"
					},
					"t_struct(Neel_User)66_storage": {
						"encoding": "inplace",
						"label": "struct ChotaliyaNeel2.Neel_User",
						"members": [
							{
								"astId": 61,
								"contract": "contracts/Experiment2.sol:ChotaliyaNeel2",
								"label": "id",
								"offset": 0,
								"slot": "0",
								"type": "t_uint256"
							},
							{
								"astId": 63,
								"contract": "contracts/Experiment2.sol:ChotaliyaNeel2",
								"label": "name",
								"offset": 0,
								"slot": "1",
								"type": "t_string_storage"
							},
							{
								"astId": 65,
								"contract": "contracts/Experiment2.sol:ChotaliyaNeel2",
								"label": "isActive",
								"offset": 0,
								"slot": "2",
								"type": "t_bool"
							}
						],
						"numberOfBytes": "96"
					},
					"t_uint256": {
						"encoding": "inplace",
						"label": "uint256",
						"numberOfBytes": "32"
					},
					"t_uint32": {
						"encoding": "inplace",
						"label": "uint32",
						"numberOfBytes": "4"
					},
					"t_uint8": {
						"encoding": "inplace",
						"label": "uint8",
						"numberOfBytes": "1"
					}
				}
			},
			"userdoc": {
				"kind": "user",
				"methods": {},
				"version": 1
			}
		}
	}
}