{
	"data": {
		"bytecode": {
			"linkReferences": {},
			"object": "60806040527fffffffffffffffffffffffffffffffffffffffffffffffffffffffffffffffff6001556040518060400160405280601081526020017f48656c6c6f2c20536f6c696469747921000000000000000000000000000000008152506002908161006c9190610326565b50348015610078575f80fd5b5060405180604001604052806040518060400160405280600581526020017f416c6963650000000000000000000000000000000000000000000000000000008152508152602001601e81525060055f820151815f0190816100d99190610326565b50602082015181600101559050506103f5565b5f81519050919050565b7f4e487b71000000000000000000000000000000000000000000000000000000005f52604160045260245ffd5b7f4e487b71000000000000000000000000000000000000000000000000000000005f52602260045260245ffd5b5f600282049050600182168061016757607f821691505b60208210810361017a57610179610123565b5b50919050565b5f819050815f5260205f209050919050565b5f6020601f8301049050919050565b5f82821b905092915050565b5f600883026101dc7fffffffffffffffffffffffffffffffffffffffffffffffffffffffffffffffff826101a1565b6101e686836101a1565b95508019841693508086168417925050509392505050565b5f819050919050565b5f819050919050565b5f61022a610225610220846101fe565b610207565b6101fe565b9050919050565b5f819050919050565b61024383610210565b61025761024f82610231565b8484546101ad565b825550505050565b5f90565b61026b61025f565b61027681848461023a565b505050565b5b818110156102995761028e5f82610263565b60018101905061027c565b5050565b601f8211156102de576102af81610180565b6102b884610192565b810160208510156102c7578190505b6102db6102d385610192565b83018261027b565b50505b505050565b5f82821c905092915050565b5f6102fe5f19846008026102e3565b1980831691505092915050565b5f61031683836102ef565b9150826002028217905092915050565b61032f826100ec565b67ffffffffffffffff811115610348576103476100f6565b5b6103528254610150565b61035d82828561029d565b5f60209050601f83116001811461038e575f841561037c578287015190505b610386858261030b565b8655506103ed565b601f19841661039c86610180565b5f5b828110156103c35784890151825560018201915060208501945060208101905061039e565b868310156103e057848901516103dc601f8916826102ef565b8355505b6001600288020188555050505b505050505050565b610d7d806104025f395ff3fe608060405234801561000f575f80fd5b50600436106100e8575f3560e01c80636deecdbe1161008a57806377ec2b551161006457806377ec2b551461020e5780637fcaf6661461022d578063cc3e57d914610249578063e30081a014610279576100e8565b80636deecdbe146101b8578063741d3b42146101d6578063747586b8146101f2576100e8565b80632cb777a6116100c65780632cb777a6146101445780632fda437e14610162578063492bfa181461017e5780634ef65c3b1461019c576100e8565b806306540f7e146100ec5780631e26fd331461010a57806326b85ee114610126575b5f80fd5b6100f4610295565b6040516101019190610530565b60405180910390f35b610124600480360381019061011f919061058f565b61029a565b005b61012e6102b6565b60405161013b91906105f9565b60405180910390f35b61014c6102dc565b604051610159919061062a565b60405180910390f35b61017c600480360381019061017791906107a9565b6102e2565b005b610186610302565b6040516101939190610863565b60405180910390f35b6101b660048036038101906101b19190610883565b61038e565b005b6101c0610397565b6040516101cd91906108bd565b60405180910390f35b6101f060048036038101906101eb919061090c565b6103a9565b005b61020c60048036038101906102079190610961565b6103ef565b005b6102166103f9565b60405161022492919061098c565b60405180910390f35b610247600480360381019061024291906109ba565b610490565b005b610263600480360381019061025e9190610883565b6104a3565b6040516102709190610a10565b60405180910390f35b610293600480360381019061028e9190610a53565b6104d4565b005b5f5481565b8060035f6101000a81548160ff02191690831515021790555050565b600360019054906101000a900473ffffffffffffffffffffffffffffffffffffffff1681565b60015481565b8160055f0190816102f39190610c78565b50806005600101819055505050565b6002805461030f90610aab565b80601f016020809104026020016040519081016040528092919081815260200182805461033b90610aab565b80156103865780601f1061035d57610100808354040283529160200191610386565b820191905f5260205f20905b81548152906001019060200180831161036957829003601f168201915b505050505081565b805f8190555050565b60035f9054906101000a900460ff1681565b600481908060018154018082558091505060019003905f5260205f2090602091828204019190069091909190916101000a81548160ff021916908360ff16021790555050565b8060018190555050565b6005805f01805461040990610aab565b80601f016020809104026020016040519081016040528092919081815260200182805461043590610aab565b80156104805780601f1061045757610100808354040283529160200191610480565b820191905f5260205f20905b81548152906001019060200180831161046357829003601f168201915b5050505050908060010154905082565b806002908161049f9190610c78565b5050565b600481815481106104b2575f80fd5b905f5260205f209060209182820401919006915054906101000a900460ff1681565b80600360016101000a81548173ffffffffffffffffffffffffffffffffffffffff021916908373ffffffffffffffffffffffffffffffffffffffff16021790555050565b5f819050919050565b61052a81610518565b82525050565b5f6020820190506105435f830184610521565b92915050565b5f604051905090565b5f80fd5b5f80fd5b5f8115159050919050565b61056e8161055a565b8114610578575f80fd5b50565b5f8135905061058981610565565b92915050565b5f602082840312156105a4576105a3610552565b5b5f6105b18482850161057b565b91505092915050565b5f73ffffffffffffffffffffffffffffffffffffffff82169050919050565b5f6105e3826105ba565b9050919050565b6105f3816105d9565b82525050565b5f60208201905061060c5f8301846105ea565b92915050565b5f819050919050565b61062481610612565b82525050565b5f60208201905061063d5f83018461061b565b92915050565b5f80fd5b5f80fd5b5f601f19601f8301169050919050565b7f4e487b71000000000000000000000000000000000000000000000000000000005f52604160045260245ffd5b6106918261064b565b810181811067ffffffffffffffff821117156106b0576106af61065b565b5b80604052505050565b5f6106c2610549565b90506106ce8282610688565b919050565b5f67ffffffffffffffff8211156106ed576106ec61065b565b5b6106f68261064b565b9050602081019050919050565b828183375f83830152505050565b5f61072361071e846106d3565b6106b9565b90508281526020810184848401111561073f5761073e610647565b5b61074a848285610703565b509392505050565b5f82601f83011261076657610765610643565b5b8135610776848260208601610711565b91505092915050565b61078881610518565b8114610792575f80fd5b50565b5f813590506107a38161077f565b92915050565b5f80604083850312156107bf576107be610552565b5b5f83013567ffffffffffffffff8111156107dc576107db610556565b5b6107e885828601610752565b92505060206107f985828601610795565b9150509250929050565b5f81519050919050565b5f82825260208201905092915050565b8281835e5f83830152505050565b5f61083582610803565b61083f818561080d565b935061084f81856020860161081d565b6108588161064b565b840191505092915050565b5f6020820190508181035f83015261087b818461082b565b905092915050565b5f6020828403121561089857610897610552565b5b5f6108a584828501610795565b91505092915050565b6108b78161055a565b82525050565b5f6020820190506108d05f8301846108ae565b92915050565b5f60ff82169050919050565b6108eb816108d6565b81146108f5575f80fd5b50565b5f81359050610906816108e2565b92915050565b5f6020828403121561092157610920610552565b5b5f61092e848285016108f8565b91505092915050565b61094081610612565b811461094a575f80fd5b50565b5f8135905061095b81610937565b92915050565b5f6020828403121561097657610975610552565b5b5f6109838482850161094d565b91505092915050565b5f6040820190508181035f8301526109a4818561082b565b90506109b36020830184610521565b9392505050565b5f602082840312156109cf576109ce610552565b5b5f82013567ffffffffffffffff8111156109ec576109eb610556565b5b6109f884828501610752565b91505092915050565b610a0a816108d6565b82525050565b5f602082019050610a235f830184610a01565b92915050565b610a32816105d9565b8114610a3c575f80fd5b50565b5f81359050610a4d81610a29565b92915050565b5f60208284031215610a6857610a67610552565b5b5f610a7584828501610a3f565b91505092915050565b7f4e487b71000000000000000000000000000000000000000000000000000000005f52602260045260245ffd5b5f6002820490506001821680610ac257607f821691505b602082108103610ad557610ad4610a7e565b5b50919050565b5f819050815f5260205f209050919050565b5f6020601f8301049050919050565b5f82821b905092915050565b5f60088302610b377fffffffffffffffffffffffffffffffffffffffffffffffffffffffffffffffff82610afc565b610b418683610afc565b95508019841693508086168417925050509392505050565b5f819050919050565b5f610b7c610b77610b7284610518565b610b59565b610518565b9050919050565b5f819050919050565b610b9583610b62565b610ba9610ba182610b83565b848454610b08565b825550505050565b5f90565b610bbd610bb1565b610bc8818484610b8c565b505050565b5b81811015610beb57610be05f82610bb5565b600181019050610bce565b5050565b601f821115610c3057610c0181610adb565b610c0a84610aed565b81016020851015610c19578190505b610c2d610c2585610aed565b830182610bcd565b50505b505050565b5f82821c905092915050565b5f610c505f1984600802610c35565b1980831691505092915050565b5f610c688383610c41565b9150826002028217905092915050565b610c8182610803565b67ffffffffffffffff811115610c9a57610c9961065b565b5b610ca48254610aab565b610caf828285610bef565b5f60209050601f831160018114610ce0575f8415610cce578287015190505b610cd88582610c5d565b865550610d3f565b601f198416610cee86610adb565b5f5b82811015610d1557848901518255600182019150602085019450602081019050610cf0565b86831015610d325784890151610d2e601f891682610c41565b8355505b6001600288020188555050505b50505050505056fea2646970667358221220c7c8f431d238ba8da47422c2d1a2d1ec007c9604e919750c663a71750d2a12e464736f6c634300081a0033",
			"opcodes": "PUSH1 0x80 PUSH1 0x40 MSTORE PUSH32 0xFFFFFFFFFFFFFFFFFFFFFFFFFFFFFFFFFFFFFFFFFFFFFFFFFFFFFFFFFFFFFFFF PUSH1 0x1 SSTORE PUSH1 0x40 MLOAD DUP1 PUSH1 0x40 ADD PUSH1 0x40 MSTORE DUP1 PUSH1 0x10 DUP2 MSTORE PUSH1 0x20 ADD PUSH32 0x48656C6C6F2C20536F6C69646974792100000000000000000000000000000000 DUP2 MSTORE POP PUSH1 0x2 SWAP1 DUP2 PUSH2 0x6C SWAP2 SWAP1 PUSH2 0x326 JUMP JUMPDEST POP CALLVALUE DUP1 ISZERO PUSH2 0x78 JUMPI PUSH0 DUP1 REVERT JUMPDEST POP PUSH1 0x40 MLOAD DUP1 PUSH1 0x40 ADD PUSH1 0x40 MSTORE DUP1 PUSH1 0x40 MLOAD DUP1 PUSH1 0x40 ADD PUSH1 0x40 MSTORE DUP1 PUSH1 0x5 DUP2 MSTORE PUSH1 0x20 ADD PUSH32 0x416C696365000000000000000000000000000000000000000000000000000000 DUP2 MSTORE POP DUP2 MSTORE PUSH1 0x20 ADD PUSH1 0x1E DUP2 MSTORE POP PUSH1 0x5 PUSH0 DUP3 ADD MLOAD DUP2 PUSH0 ADD SWAP1 DUP2 PUSH2 0xD9 SWAP2 SWAP1 PUSH2 0x326 JUMP JUMPDEST POP PUSH1 0x20 DUP3 ADD MLOAD DUP2 PUSH1 0x1 ADD SSTORE SWAP1 POP POP PUSH2 0x3F5 JUMP JUMPDEST PUSH0 DUP2 MLOAD SWAP1 POP SWAP2 SWAP1 POP JUMP JUMPDEST PUSH32 0x4E487B7100000000000000000000000000000000000000000000000000000000 PUSH0 MSTORE PUSH1 0x41 PUSH1 0x4 MSTORE PUSH1 0x24 PUSH0 REVERT JUMPDEST PUSH32 0x4E487B7100000000000000000000000000000000000000000000000000000000 PUSH0 MSTORE PUSH1 0x22 PUSH1 0x4 MSTORE PUSH1 0x24 PUSH0 REVERT JUMPDEST PUSH0 PUSH1 0x2 DUP3 DIV SWAP1 POP PUSH1 0x1 DUP3 AND DUP1 PUSH2 0x167 JUMPI PUSH1 0x7F DUP3 AND SWAP2 POP JUMPDEST PUSH1 0x20 DUP3 LT DUP2 SUB PUSH2 0x17A JUMPI PUSH2 0x179 PUSH2 0x123 JUMP JUMPDEST JUMPDEST POP SWAP2 SWAP1 POP JUMP JUMPDEST PUSH0 DUP2 SWAP1 POP DUP2 PUSH0 MSTORE PUSH1 0x20 PUSH0 KECCAK256 SWAP1 POP SWAP2 SWAP1 POP JUMP JUMPDEST PUSH0 PUSH1 0x20 PUSH1 0x1F DUP4 ADD DIV SWAP1 POP SWAP2 SWAP1 POP JUMP JUMPDEST PUSH0 DUP3 DUP3 SHL SWAP1 POP SWAP3 SWAP2 POP POP JUMP JUMPDEST PUSH0 PUSH1 0x8 DUP4 MUL PUSH2 0x1DC PUSH32 0xFFFFFFFFFFFFFFFFFFFFFFFFFFFFFFFFFFFFFFFFFFFFFFFFFFFFFFFFFFFFFFFF DUP3 PUSH2 0x1A1 JUMP JUMPDEST PUSH2 0x1E6 DUP7 DUP4 PUSH2 0x1A1 JUMP JUMPDEST SWAP6 POP DUP1 NOT DUP5 AND SWAP4 POP DUP1 DUP7 AND DUP5 OR SWAP3 POP POP POP SWAP4 SWAP3 POP POP POP JUMP JUMPDEST PUSH0 DUP2 SWAP1 POP SWAP2 SWAP1 POP JUMP JUMPDEST PUSH0 DUP2 SWAP1 POP SWAP2 SWAP1 POP JUMP JUMPDEST PUSH0 PUSH2 0x22A PUSH2 0x225 PUSH2 0x220 DUP5 PUSH2 0x1FE JUMP JUMPDEST PUSH2 0x207 JUMP JUMPDEST PUSH2 0x1FE JUMP JUMPDEST SWAP1 POP SWAP2 SWAP1 POP JUMP JUMPDEST PUSH0 DUP2 SWAP1 POP SWAP2 SWAP1 POP JUMP JUMPDEST PUSH2 0x243 DUP4 PUSH2 0x210 JUMP JUMPDEST PUSH2 0x257 PUSH2 0x24F DUP3 PUSH2 0x231 JUMP JUMPDEST DUP5 DUP5 SLOAD PUSH2 0x1AD JUMP JUMPDEST DUP3 SSTORE POP POP POP POP JUMP JUMPDEST PUSH0 SWAP1 JUMP JUMPDEST PUSH2 0x26B PUSH2 0x25F JUMP JUMPDEST PUSH2 0x276 DUP2 DUP5 DUP5 PUSH2 0x23A JUMP JUMPDEST POP POP POP JUMP JUMPDEST JUMPDEST DUP2 DUP2 LT ISZERO PUSH2 0x299 JUMPI PUSH2 0x28E PUSH0 DUP3 PUSH2 0x263 JUMP JUMPDEST PUSH1 0x1 DUP2 ADD SWAP1 POP PUSH2 0x27C JUMP JUMPDEST POP POP JUMP JUMPDEST PUSH1 0x1F DUP3 GT ISZERO PUSH2 0x2DE JUMPI PUSH2 0x2AF DUP2 PUSH2 0x180 JUMP JUMPDEST PUSH2 0x2B8 DUP5 PUSH2 0x192 JUMP JUMPDEST DUP2 ADD PUSH1 0x20 DUP6 LT ISZERO PUSH2 0x2C7 JUMPI DUP2 SWAP1 POP JUMPDEST PUSH2 0x2DB PUSH2 0x2D3 DUP6 PUSH2 0x192 JUMP JUMPDEST DUP4 ADD DUP3 PUSH2 0x27B JUMP JUMPDEST POP POP JUMPDEST POP POP POP JUMP JUMPDEST PUSH0 DUP3 DUP3 SHR SWAP1 POP SWAP3 SWAP2 POP POP JUMP JUMPDEST PUSH0 PUSH2 0x2FE PUSH0 NOT DUP5 PUSH1 0x8 MUL PUSH2 0x2E3 JUMP JUMPDEST NOT DUP1 DUP4 AND SWAP2 POP POP SWAP3 SWAP2 POP POP JUMP JUMPDEST PUSH0 PUSH2 0x316 DUP4 DUP4 PUSH2 0x2EF JUMP JUMPDEST SWAP2 POP DUP3 PUSH1 0x2 MUL DUP3 OR SWAP1 POP SWAP3 SWAP2 POP POP JUMP JUMPDEST PUSH2 0x32F DUP3 PUSH2 0xEC JUMP JUMPDEST PUSH8 0xFFFFFFFFFFFFFFFF DUP2 GT ISZERO PUSH2 0x348 JUMPI PUSH2 0x347 PUSH2 0xF6 JUMP JUMPDEST JUMPDEST PUSH2 0x352 DUP3 SLOAD PUSH2 0x150 JUMP JUMPDEST PUSH2 0x35D DUP3 DUP3 DUP6 PUSH2 0x29D JUMP JUMPDEST PUSH0 PUSH1 0x20 SWAP1 POP PUSH1 0x1F DUP4 GT PUSH1 0x1 DUP2 EQ PUSH2 0x38E JUMPI PUSH0 DUP5 ISZERO PUSH2 0x37C JUMPI DUP3 DUP8 ADD MLOAD SWAP1 POP JUMPDEST PUSH2 0x386 DUP6 DUP3 PUSH2 0x30B JUMP JUMPDEST DUP7 SSTORE POP PUSH2 0x3ED JUMP JUMPDEST PUSH1 0x1F NOT DUP5 AND PUSH2 0x39C DUP7 PUSH2 0x180 JUMP JUMPDEST PUSH0 JUMPDEST DUP3 DUP2 LT ISZERO PUSH2 0x3C3 JUMPI DUP5 DUP10 ADD MLOAD DUP3 SSTORE PUSH1 0x1 DUP3 ADD SWAP2 POP PUSH1 0x20 DUP6 ADD SWAP5 POP PUSH1 0x20 DUP2 ADD SWAP1 POP PUSH2 0x39E JUMP JUMPDEST DUP7 DUP4 LT ISZERO PUSH2 0x3E0 JUMPI DUP5 DUP10 ADD MLOAD PUSH2 0x3DC PUSH1 0x1F DUP10 AND DUP3 PUSH2 0x2EF JUMP JUMPDEST DUP4 SSTORE POP JUMPDEST PUSH1 0x1 PUSH1 0x2 DUP9 MUL ADD DUP9 SSTORE POP POP POP JUMPDEST POP POP POP POP POP POP JUMP JUMPDEST PUSH2 0xD7D DUP1 PUSH2 0x402 PUSH0 CODECOPY PUSH0 RETURN INVALID PUSH1 0x80 PUSH1 0x40 MSTORE CALLVALUE DUP1 ISZERO PUSH2 0xF JUMPI PUSH0 DUP1 REVERT JUMPDEST POP PUSH1 0x4 CALLDATASIZE LT PUSH2 0xE8 JUMPI PUSH0 CALLDATALOAD PUSH1 0xE0 SHR DUP1 PUSH4 0x6DEECDBE GT PUSH2 0x8A JUMPI DUP1 PUSH4 0x77EC2B55 GT PUSH2 0x64 JUMPI DUP1 PUSH4 0x77EC2B55 EQ PUSH2 0x20E JUMPI DUP1 PUSH4 0x7FCAF666 EQ PUSH2 0x22D JUMPI DUP1 PUSH4 0xCC3E57D9 EQ PUSH2 0x249 JUMPI DUP1 PUSH4 0xE30081A0 EQ PUSH2 0x279 JUMPI PUSH2 0xE8 JUMP JUMPDEST DUP1 PUSH4 0x6DEECDBE EQ PUSH2 0x1B8 JUMPI DUP1 PUSH4 0x741D3B42 EQ PUSH2 0x1D6 JUMPI DUP1 PUSH4 0x747586B8 EQ PUSH2 0x1F2 JUMPI PUSH2 0xE8 JUMP JUMPDEST DUP1 PUSH4 0x2CB777A6 GT PUSH2 0xC6 JUMPI DUP1 PUSH4 0x2CB777A6 EQ PUSH2 0x144 JUMPI DUP1 PUSH4 0x2FDA437E EQ PUSH2 0x162 JUMPI DUP1 PUSH4 0x492BFA18 EQ PUSH2 0x17E JUMPI DUP1 PUSH4 0x4EF65C3B EQ PUSH2 0x19C JUMPI PUSH2 0xE8 JUMP JUMPDEST DUP1 PUSH4 0x6540F7E EQ PUSH2 0xEC JUMPI DUP1 PUSH4 0x1E26FD33 EQ PUSH2 0x10A JUMPI DUP1 PUSH4 0x26B85EE1 EQ PUSH2 0x126 JUMPI JUMPDEST PUSH0 DUP1 REVERT JUMPDEST PUSH2 0xF4 PUSH2 0x295 JUMP JUMPDEST PUSH1 0x40 MLOAD PUSH2 0x101 SWAP2 SWAP1 PUSH2 0x530 JUMP JUMPDEST PUSH1 0x40 MLOAD DUP1 SWAP2 SUB SWAP1 RETURN JUMPDEST PUSH2 0x124 PUSH1 0x4 DUP1 CALLDATASIZE SUB DUP2 ADD SWAP1 PUSH2 0x11F SWAP2 SWAP1 PUSH2 0x58F JUMP JUMPDEST PUSH2 0x29A JUMP JUMPDEST STOP JUMPDEST PUSH2 0x12E PUSH2 0x2B6 JUMP JUMPDEST PUSH1 0x40 MLOAD PUSH2 0x13B SWAP2 SWAP1 PUSH2 0x5F9 JUMP JUMPDEST PUSH1 0x40 MLOAD DUP1 SWAP2 SUB SWAP1 RETURN JUMPDEST PUSH2 0x14C PUSH2 0x2DC JUMP JUMPDEST PUSH1 0x40 MLOAD PUSH2 0x159 SWAP2 SWAP1 PUSH2 0x62A JUMP JUMPDEST PUSH1 0x40 MLOAD DUP1 SWAP2 SUB SWAP1 RETURN JUMPDEST PUSH2 0x17C PUSH1 0x4 DUP1 CALLDATASIZE SUB DUP2 ADD SWAP1 PUSH2 0x177 SWAP2 SWAP1 PUSH2 0x7A9 JUMP JUMPDEST PUSH2 0x2E2 JUMP JUMPDEST STOP JUMPDEST PUSH2 0x186 PUSH2 0x302 JUMP JUMPDEST PUSH1 0x40 MLOAD PUSH2 0x193 SWAP2 SWAP1 PUSH2 0x863 JUMP JUMPDEST PUSH1 0x40 MLOAD DUP1 SWAP2 SUB SWAP1 RETURN JUMPDEST PUSH2 0x1B6 PUSH1 0x4 DUP1 CALLDATASIZE SUB DUP2 ADD SWAP1 PUSH2 0x1B1 SWAP2 SWAP1 PUSH2 0x883 JUMP JUMPDEST PUSH2 0x38E JUMP JUMPDEST STOP JUMPDEST PUSH2 0x1C0 PUSH2 0x397 JUMP JUMPDEST PUSH1 0x40 MLOAD PUSH2 0x1CD SWAP2 SWAP1 PUSH2 0x8BD JUMP JUMPDEST PUSH1 0x40 MLOAD DUP1 SWAP2 SUB SWAP1 RETURN JUMPDEST PUSH2 0x1F0 PUSH1 0x4 DUP1 CALLDATASIZE SUB DUP2 ADD SWAP1 PUSH2 0x1EB SWAP2 SWAP1 PUSH2 0x90C JUMP JUMPDEST PUSH2 0x3A9 JUMP JUMPDEST STOP JUMPDEST PUSH2 0x20C PUSH1 0x4 DUP1 CALLDATASIZE SUB DUP2 ADD SWAP1 PUSH2 0x207 SWAP2 SWAP1 PUSH2 0x961 JUMP JUMPDEST PUSH2 0x3EF JUMP JUMPDEST STOP JUMPDEST PUSH2 0x216 PUSH2 0x3F9 JUMP JUMPDEST PUSH1 0x40 MLOAD PUSH2 0x224 SWAP3 SWAP2 SWAP1 PUSH2 0x98C JUMP JUMPDEST PUSH1 0x40 MLOAD DUP1 SWAP2 SUB SWAP1 RETURN JUMPDEST PUSH2 0x247 PUSH1 0x4 DUP1 CALLDATASIZE SUB DUP2 ADD SWAP1 PUSH2 0x242 SWAP2 SWAP1 PUSH2 0x9BA JUMP JUMPDEST PUSH2 0x490 JUMP JUMPDEST STOP JUMPDEST PUSH2 0x263 PUSH1 0x4 DUP1 CALLDATASIZE SUB DUP2 ADD SWAP1 PUSH2 0x25E SWAP2 SWAP1 PUSH2 0x883 JUMP JUMPDEST PUSH2 0x4A3 JUMP JUMPDEST PUSH1 0x40 MLOAD PUSH2 0x270 SWAP2 SWAP1 PUSH2 0xA10 JUMP JUMPDEST PUSH1 0x40 MLOAD DUP1 SWAP2 SUB SWAP1 RETURN JUMPDEST PUSH2 0x293 PUSH1 0x4 DUP1 CALLDATASIZE SUB DUP2 ADD SWAP1 PUSH2 0x28E SWAP2 SWAP1 PUSH2 0xA53 JUMP JUMPDEST PUSH2 0x4D4 JUMP JUMPDEST STOP JUMPDEST PUSH0 SLOAD DUP2 JUMP JUMPDEST DUP1 PUSH1 0x3 PUSH0 PUSH2 0x100 EXP DUP2 SLOAD DUP2 PUSH1 0xFF MUL NOT AND SWAP1 DUP4 ISZERO ISZERO MUL OR SWAP1 SSTORE POP POP JUMP JUMPDEST PUSH1 0x3 PUSH1 0x1 SWAP1 SLOAD SWAP1 PUSH2 0x100 EXP SWAP1 DIV PUSH20 0xFFFFFFFFFFFFFFFFFFFFFFFFFFFFFFFFFFFFFFFF AND DUP2 JUMP JUMPDEST PUSH1 0x1 SLOAD DUP2 JUMP JUMPDEST DUP2 PUSH1 0x5 PUSH0 ADD SWAP1 DUP2 PUSH2 0x2F3 SWAP2 SWAP1 PUSH2 0xC78 JUMP JUMPDEST POP DUP1 PUSH1 0x5 PUSH1 0x1 ADD DUP2 SWAP1 SSTORE POP POP POP JUMP JUMPDEST PUSH1 0x2 DUP1 SLOAD PUSH2 0x30F SWAP1 PUSH2 0xAAB JUMP JUMPDEST DUP1 PUSH1 0x1F ADD PUSH1 0x20 DUP1 SWAP2 DIV MUL PUSH1 0x20 ADD PUSH1 0x40 MLOAD SWAP1 DUP2 ADD PUSH1 0x40 MSTORE DUP1 SWAP3 SWAP2 SWAP1 DUP2 DUP2 MSTORE PUSH1 0x20 ADD DUP3 DUP1 SLOAD PUSH2 0x33B SWAP1 PUSH2 0xAAB JUMP JUMPDEST DUP1 ISZERO PUSH2 0x386 JUMPI DUP1 PUSH1 0x1F LT PUSH2 0x35D JUMPI PUSH2 0x100 DUP1 DUP4 SLOAD DIV MUL DUP4 MSTORE SWAP2 PUSH1 0x20 ADD SWAP2 PUSH2 0x386 JUMP JUMPDEST DUP3 ADD SWAP2 SWAP1 PUSH0 MSTORE PUSH1 0x20 PUSH0 KECCAK256 SWAP1 JUMPDEST DUP2 SLOAD DUP2 MSTORE SWAP1 PUSH1 0x1 ADD SWAP1 PUSH1 0x20 ADD DUP1 DUP4 GT PUSH2 0x369 JUMPI DUP3 SWAP1 SUB PUSH1 0x1F AND DUP3 ADD SWAP2 JUMPDEST POP POP POP POP POP DUP2 JUMP JUMPDEST DUP1 PUSH0 DUP2 SWAP1 SSTORE POP POP JUMP JUMPDEST PUSH1 0x3 PUSH0 SWAP1 SLOAD SWAP1 PUSH2 0x100 EXP SWAP1 DIV PUSH1 0xFF AND DUP2 JUMP JUMPDEST PUSH1 0x4 DUP2 SWAP1 DUP1 PUSH1 0x1 DUP2 SLOAD ADD DUP1 DUP3 SSTORE DUP1 SWAP2 POP POP PUSH1 0x1 SWAP1 SUB SWAP1 PUSH0 MSTORE PUSH1 0x20 PUSH0 KECCAK256 SWAP1 PUSH1 0x20 SWAP2 DUP3 DUP3 DIV ADD SWAP2 SWAP1 MOD SWAP1 SWAP2 SWAP1 SWAP2 SWAP1 SWAP2 PUSH2 0x100 EXP DUP2 SLOAD DUP2 PUSH1 0xFF MUL NOT AND SWAP1 DUP4 PUSH1 0xFF AND MUL OR SWAP1 SSTORE POP POP JUMP JUMPDEST DUP1 PUSH1 0x1 DUP2 SWAP1 SSTORE POP POP JUMP JUMPDEST PUSH1 0x5 DUP1 PUSH0 ADD DUP1 SLOAD PUSH2 0x409 SWAP1 PUSH2 0xAAB JUMP JUMPDEST DUP1 PUSH1 0x1F ADD PUSH1 0x20 DUP1 SWAP2 DIV MUL PUSH1 0x20 ADD PUSH1 0x40 MLOAD SWAP1 DUP2 ADD PUSH1 0x40 MSTORE DUP1 SWAP3 SWAP2 SWAP1 DUP2 DUP2 MSTORE PUSH1 0x20 ADD DUP3 DUP1 SLOAD PUSH2 0x435 SWAP1 PUSH2 0xAAB JUMP JUMPDEST DUP1 ISZERO PUSH2 0x480 JUMPI DUP1 PUSH1 0x1F LT PUSH2 0x457 JUMPI PUSH2 0x100 DUP1 DUP4 SLOAD DIV MUL DUP4 MSTORE SWAP2 PUSH1 0x20 ADD SWAP2 PUSH2 0x480 JUMP JUMPDEST DUP3 ADD SWAP2 SWAP1 PUSH0 MSTORE PUSH1 0x20 PUSH0 KECCAK256 SWAP1 JUMPDEST DUP2 SLOAD DUP2 MSTORE SWAP1 PUSH1 0x1 ADD SWAP1 PUSH1 0x20 ADD DUP1 DUP4 GT PUSH2 0x463 JUMPI DUP3 SWAP1 SUB PUSH1 0x1F AND DUP3 ADD SWAP2 JUMPDEST POP POP POP POP POP SWAP1 DUP1 PUSH1 0x1 ADD SLOAD SWAP1 POP DUP3 JUMP JUMPDEST DUP1 PUSH1 0x2 SWAP1 DUP2 PUSH2 0x49F SWAP2 SWAP1 PUSH2 0xC78 JUMP JUMPDEST POP POP JUMP JUMPDEST PUSH1 0x4 DUP2 DUP2 SLOAD DUP2 LT PUSH2 0x4B2 JUMPI PUSH0 DUP1 REVERT JUMPDEST SWAP1 PUSH0 MSTORE PUSH1 0x20 PUSH0 KECCAK256 SWAP1 PUSH1 0x20 SWAP2 DUP3 DUP3 DIV ADD SWAP2 SWAP1 MOD SWAP2 POP SLOAD SWAP1 PUSH2 0x100 EXP SWAP1 DIV PUSH1 0xFF AND DUP2 JUMP JUMPDEST DUP1 PUSH1 0x3 PUSH1 0x1 PUSH2 0x100 EXP DUP2 SLOAD DUP2 PUSH20 0xFFFFFFFFFFFFFFFFFFFFFFFFFFFFFFFFFFFFFFFF MUL NOT AND SWAP1 DUP4 PUSH20 0xFFFFFFFFFFFFFFFFFFFFFFFFFFFFFFFFFFFFFFFF AND MUL OR SWAP1 SSTORE POP POP JUMP JUMPDEST PUSH0 DUP2 SWAP1 POP SWAP2 SWAP1 POP JUMP JUMPDEST PUSH2 0x52A DUP2 PUSH2 0x518 JUMP JUMPDEST DUP3 MSTORE POP POP JUMP JUMPDEST PUSH0 PUSH1 0x20 DUP3 ADD SWAP1 POP PUSH2 0x543 PUSH0 DUP4 ADD DUP5 PUSH2 0x521 JUMP JUMPDEST SWAP3 SWAP2 POP POP JUMP JUMPDEST PUSH0 PUSH1 0x40 MLOAD SWAP1 POP SWAP1 JUMP JUMPDEST PUSH0 DUP1 REVERT JUMPDEST PUSH0 DUP1 REVERT JUMPDEST PUSH0 DUP2 ISZERO ISZERO SWAP1 POP SWAP2 SWAP1 POP JUMP JUMPDEST PUSH2 0x56E DUP2 PUSH2 0x55A JUMP JUMPDEST DUP2 EQ PUSH2 0x578 JUMPI PUSH0 DUP1 REVERT JUMPDEST POP JUMP JUMPDEST PUSH0 DUP2 CALLDATALOAD SWAP1 POP PUSH2 0x589 DUP2 PUSH2 0x565 JUMP JUMPDEST SWAP3 SWAP2 POP POP JUMP JUMPDEST PUSH0 PUSH1 0x20 DUP3 DUP5 SUB SLT ISZERO PUSH2 0x5A4 JUMPI PUSH2 0x5A3 PUSH2 0x552 JUMP JUMPDEST JUMPDEST PUSH0 PUSH2 0x5B1 DUP5 DUP3 DUP6 ADD PUSH2 0x57B JUMP JUMPDEST SWAP2 POP POP SWAP3 SWAP2 POP POP JUMP JUMPDEST PUSH0 PUSH20 0xFFFFFFFFFFFFFFFFFFFFFFFFFFFFFFFFFFFFFFFF DUP3 AND SWAP1 POP SWAP2 SWAP1 POP JUMP JUMPDEST PUSH0 PUSH2 0x5E3 DUP3 PUSH2 0x5BA JUMP JUMPDEST SWAP1 POP SWAP2 SWAP1 POP JUMP JUMPDEST PUSH2 0x5F3 DUP2 PUSH2 0x5D9 JUMP JUMPDEST DUP3 MSTORE POP POP JUMP JUMPDEST PUSH0 PUSH1 0x20 DUP3 ADD SWAP1 POP PUSH2 0x60C PUSH0 DUP4 ADD DUP5 PUSH2 0x5EA JUMP JUMPDEST SWAP3 SWAP2 POP POP JUMP JUMPDEST PUSH0 DUP2 SWAP1 POP SWAP2 SWAP1 POP JUMP JUMPDEST PUSH2 0x624 DUP2 PUSH2 0x612 JUMP JUMPDEST DUP3 MSTORE POP POP JUMP JUMPDEST PUSH0 PUSH1 0x20 DUP3 ADD SWAP1 POP PUSH2 0x63D PUSH0 DUP4 ADD DUP5 PUSH2 0x61B JUMP JUMPDEST SWAP3 SWAP2 POP POP JUMP JUMPDEST PUSH0 DUP1 REVERT JUMPDEST PUSH0 DUP1 REVERT JUMPDEST PUSH0 PUSH1 0x1F NOT PUSH1 0x1F DUP4 ADD AND SWAP1 POP SWAP2 SWAP1 POP JUMP JUMPDEST PUSH32 0x4E487B7100000000000000000000000000000000000000000000000000000000 PUSH0 MSTORE PUSH1 0x41 PUSH1 0x4 MSTORE PUSH1 0x24 PUSH0 REVERT JUMPDEST PUSH2 0x691 DUP3 PUSH2 0x64B JUMP JUMPDEST DUP2 ADD DUP2 DUP2 LT PUSH8 0xFFFFFFFFFFFFFFFF DUP3 GT OR ISZERO PUSH2 0x6B0 JUMPI PUSH2 0x6AF PUSH2 0x65B JUMP JUMPDEST JUMPDEST DUP1 PUSH1 0x40 MSTORE POP POP POP JUMP JUMPDEST PUSH0 PUSH2 0x6C2 PUSH2 0x549 JUMP JUMPDEST SWAP1 POP PUSH2 0x6CE DUP3 DUP3 PUSH2 0x688 JUMP JUMPDEST SWAP2 SWAP1 POP JUMP JUMPDEST PUSH0 PUSH8 0xFFFFFFFFFFFFFFFF DUP3 GT ISZERO PUSH2 0x6ED JUMPI PUSH2 0x6EC PUSH2 0x65B JUMP JUMPDEST JUMPDEST PUSH2 0x6F6 DUP3 PUSH2 0x64B JUMP JUMPDEST SWAP1 POP PUSH1 0x20 DUP2 ADD SWAP1 POP SWAP2 SWAP1 POP JUMP JUMPDEST DUP3 DUP2 DUP4 CALLDATACOPY PUSH0 DUP4 DUP4 ADD MSTORE POP POP POP JUMP JUMPDEST PUSH0 PUSH2 0x723 PUSH2 0x71E DUP5 PUSH2 0x6D3 JUMP JUMPDEST PUSH2 0x6B9 JUMP JUMPDEST SWAP1 POP DUP3 DUP2 MSTORE PUSH1 0x20 DUP2 ADD DUP5 DUP5 DUP5 ADD GT ISZERO PUSH2 0x73F JUMPI PUSH2 0x73E PUSH2 0x647 JUMP JUMPDEST JUMPDEST PUSH2 0x74A DUP5 DUP3 DUP6 PUSH2 0x703 JUMP JUMPDEST POP SWAP4 SWAP3 POP POP POP JUMP JUMPDEST PUSH0 DUP3 PUSH1 0x1F DUP4 ADD SLT PUSH2 0x766 JUMPI PUSH2 0x765 PUSH2 0x643 JUMP JUMPDEST JUMPDEST DUP2 CALLDATALOAD PUSH2 0x776 DUP5 DUP3 PUSH1 0x20 DUP7 ADD PUSH2 0x711 JUMP JUMPDEST SWAP2 POP POP SWAP3 SWAP2 POP POP JUMP JUMPDEST PUSH2 0x788 DUP2 PUSH2 0x518 JUMP JUMPDEST DUP2 EQ PUSH2 0x792 JUMPI PUSH0 DUP1 REVERT JUMPDEST POP JUMP JUMPDEST PUSH0 DUP2 CALLDATALOAD SWAP1 POP PUSH2 0x7A3 DUP2 PUSH2 0x77F JUMP JUMPDEST SWAP3 SWAP2 POP POP JUMP JUMPDEST PUSH0 DUP1 PUSH1 0x40 DUP4 DUP6 SUB SLT ISZERO PUSH2 0x7BF JUMPI PUSH2 0x7BE PUSH2 0x552 JUMP JUMPDEST JUMPDEST PUSH0 DUP4 ADD CALLDATALOAD PUSH8 0xFFFFFFFFFFFFFFFF DUP2 GT ISZERO PUSH2 0x7DC JUMPI PUSH2 0x7DB PUSH2 0x556 JUMP JUMPDEST JUMPDEST PUSH2 0x7E8 DUP6 DUP3 DUP7 ADD PUSH2 0x752 JUMP JUMPDEST SWAP3 POP POP PUSH1 0x20 PUSH2 0x7F9 DUP6 DUP3 DUP7 ADD PUSH2 0x795 JUMP JUMPDEST SWAP2 POP POP SWAP3 POP SWAP3 SWAP1 POP JUMP JUMPDEST PUSH0 DUP2 MLOAD SWAP1 POP SWAP2 SWAP1 POP JUMP JUMPDEST PUSH0 DUP3 DUP3 MSTORE PUSH1 0x20 DUP3 ADD SWAP1 POP SWAP3 SWAP2 POP POP JUMP JUMPDEST DUP3 DUP2 DUP4 MCOPY PUSH0 DUP4 DUP4 ADD MSTORE POP POP POP JUMP JUMPDEST PUSH0 PUSH2 0x835 DUP3 PUSH2 0x803 JUMP JUMPDEST PUSH2 0x83F DUP2 DUP6 PUSH2 0x80D JUMP JUMPDEST SWAP4 POP PUSH2 0x84F DUP2 DUP6 PUSH1 0x20 DUP7 ADD PUSH2 0x81D JUMP JUMPDEST PUSH2 0x858 DUP2 PUSH2 0x64B JUMP JUMPDEST DUP5 ADD SWAP2 POP POP SWAP3 SWAP2 POP POP JUMP JUMPDEST PUSH0 PUSH1 0x20 DUP3 ADD SWAP1 POP DUP2 DUP2 SUB PUSH0 DUP4 ADD MSTORE PUSH2 0x87B DUP2 DUP5 PUSH2 0x82B JUMP JUMPDEST SWAP1 POP SWAP3 SWAP2 POP POP JUMP JUMPDEST PUSH0 PUSH1 0x20 DUP3 DUP5 SUB SLT ISZERO PUSH2 0x898 JUMPI PUSH2 0x897 PUSH2 0x552 JUMP JUMPDEST JUMPDEST PUSH0 PUSH2 0x8A5 DUP5 DUP3 DUP6 ADD PUSH2 0x795 JUMP JUMPDEST SWAP2 POP POP SWAP3 SWAP2 POP POP JUMP JUMPDEST PUSH2 0x8B7 DUP2 PUSH2 0x55A JUMP JUMPDEST DUP3 MSTORE POP POP JUMP JUMPDEST PUSH0 PUSH1 0x20 DUP3 ADD SWAP1 POP PUSH2 0x8D0 PUSH0 DUP4 ADD DUP5 PUSH2 0x8AE JUMP JUMPDEST SWAP3 SWAP2 POP POP JUMP JUMPDEST PUSH0 PUSH1 0xFF DUP3 AND SWAP1 POP SWAP2 SWAP1 POP JUMP JUMPDEST PUSH2 0x8EB DUP2 PUSH2 0x8D6 JUMP JUMPDEST DUP2 EQ PUSH2 0x8F5 JUMPI PUSH0 DUP1 REVERT JUMPDEST POP JUMP JUMPDEST PUSH0 DUP2 CALLDATALOAD SWAP1 POP PUSH2 0x906 DUP2 PUSH2 0x8E2 JUMP JUMPDEST SWAP3 SWAP2 POP POP JUMP JUMPDEST PUSH0 PUSH1 0x20 DUP3 DUP5 SUB SLT ISZERO PUSH2 0x921 JUMPI PUSH2 0x920 PUSH2 0x552 JUMP JUMPDEST JUMPDEST PUSH0 PUSH2 0x92E DUP5 DUP3 DUP6 ADD PUSH2 0x8F8 JUMP JUMPDEST SWAP2 POP POP SWAP3 SWAP2 POP POP JUMP JUMPDEST PUSH2 0x940 DUP2 PUSH2 0x612 JUMP JUMPDEST DUP2 EQ PUSH2 0x94A JUMPI PUSH0 DUP1 REVERT JUMPDEST POP JUMP JUMPDEST PUSH0 DUP2 CALLDATALOAD SWAP1 POP PUSH2 0x95B DUP2 PUSH2 0x937 JUMP JUMPDEST SWAP3 SWAP2 POP POP JUMP JUMPDEST PUSH0 PUSH1 0x20 DUP3 DUP5 SUB SLT ISZERO PUSH2 0x976 JUMPI PUSH2 0x975 PUSH2 0x552 JUMP JUMPDEST JUMPDEST PUSH0 PUSH2 0x983 DUP5 DUP3 DUP6 ADD PUSH2 0x94D JUMP JUMPDEST SWAP2 POP POP SWAP3 SWAP2 POP POP JUMP JUMPDEST PUSH0 PUSH1 0x40 DUP3 ADD SWAP1 POP DUP2 DUP2 SUB PUSH0 DUP4 ADD MSTORE PUSH2 0x9A4 DUP2 DUP6 PUSH2 0x82B JUMP JUMPDEST SWAP1 POP PUSH2 0x9B3 PUSH1 0x20 DUP4 ADD DUP5 PUSH2 0x521 JUMP JUMPDEST SWAP4 SWAP3 POP POP POP JUMP JUMPDEST PUSH0 PUSH1 0x20 DUP3 DUP5 SUB SLT ISZERO PUSH2 0x9CF JUMPI PUSH2 0x9CE PUSH2 0x552 JUMP JUMPDEST JUMPDEST PUSH0 DUP3 ADD CALLDATALOAD PUSH8 0xFFFFFFFFFFFFFFFF DUP2 GT ISZERO PUSH2 0x9EC JUMPI PUSH2 0x9EB PUSH2 0x556 JUMP JUMPDEST JUMPDEST PUSH2 0x9F8 DUP5 DUP3 DUP6 ADD PUSH2 0x752 JUMP JUMPDEST SWAP2 POP POP SWAP3 SWAP2 POP POP JUMP JUMPDEST PUSH2 0xA0A DUP2 PUSH2 0x8D6 JUMP JUMPDEST DUP3 MSTORE POP POP JUMP JUMPDEST PUSH0 PUSH1 0x20 DUP3 ADD SWAP1 POP PUSH2 0xA23 PUSH0 DUP4 ADD DUP5 PUSH2 0xA01 JUMP JUMPDEST SWAP3 SWAP2 POP POP JUMP JUMPDEST PUSH2 0xA32 DUP2 PUSH2 0x5D9 JUMP JUMPDEST DUP2 EQ PUSH2 0xA3C JUMPI PUSH0 DUP1 REVERT JUMPDEST POP JUMP JUMPDEST PUSH0 DUP2 CALLDATALOAD SWAP1 POP PUSH2 0xA4D DUP2 PUSH2 0xA29 JUMP JUMPDEST SWAP3 SWAP2 POP POP JUMP JUMPDEST PUSH0 PUSH1 0x20 DUP3 DUP5 SUB SLT ISZERO PUSH2 0xA68 JUMPI PUSH2 0xA67 PUSH2 0x552 JUMP JUMPDEST JUMPDEST PUSH0 PUSH2 0xA75 DUP5 DUP3 DUP6 ADD PUSH2 0xA3F JUMP JUMPDEST SWAP2 POP POP SWAP3 SWAP2 POP POP JUMP JUMPDEST PUSH32 0x4E487B7100000000000000000000000000000000000000000000000000000000 PUSH0 MSTORE PUSH1 0x22 PUSH1 0x4 MSTORE PUSH1 0x24 PUSH0 REVERT JUMPDEST PUSH0 PUSH1 0x2 DUP3 DIV SWAP1 POP PUSH1 0x1 DUP3 AND DUP1 PUSH2 0xAC2 JUMPI PUSH1 0x7F DUP3 AND SWAP2 POP JUMPDEST PUSH1 0x20 DUP3 LT DUP2 SUB PUSH2 0xAD5 JUMPI PUSH2 0xAD4 PUSH2 0xA7E JUMP JUMPDEST JUMPDEST POP SWAP2 SWAP1 POP JUMP JUMPDEST PUSH0 DUP2 SWAP1 POP DUP2 PUSH0 MSTORE PUSH1 0x20 PUSH0 KECCAK256 SWAP1 POP SWAP2 SWAP1 POP JUMP JUMPDEST PUSH0 PUSH1 0x20 PUSH1 0x1F DUP4 ADD DIV SWAP1 POP SWAP2 SWAP1 POP JUMP JUMPDEST PUSH0 DUP3 DUP3 SHL SWAP1 POP SWAP3 SWAP2 POP POP JUMP JUMPDEST PUSH0 PUSH1 0x8 DUP4 MUL PUSH2 0xB37 PUSH32 0xFFFFFFFFFFFFFFFFFFFFFFFFFFFFFFFFFFFFFFFFFFFFFFFFFFFFFFFFFFFFFFFF DUP3 PUSH2 0xAFC JUMP JUMPDEST PUSH2 0xB41 DUP7 DUP4 PUSH2 0xAFC JUMP JUMPDEST SWAP6 POP DUP1 NOT DUP5 AND SWAP4 POP DUP1 DUP7 AND DUP5 OR SWAP3 POP POP POP SWAP4 SWAP3 POP POP POP JUMP JUMPDEST PUSH0 DUP2 SWAP1 POP SWAP2 SWAP1 POP JUMP JUMPDEST PUSH0 PUSH2 0xB7C PUSH2 0xB77 PUSH2 0xB72 DUP5 PUSH2 0x518 JUMP JUMPDEST PUSH2 0xB59 JUMP JUMPDEST PUSH2 0x518 JUMP JUMPDEST SWAP1 POP SWAP2 SWAP1 POP JUMP JUMPDEST PUSH0 DUP2 SWAP1 POP SWAP2 SWAP1 POP JUMP JUMPDEST PUSH2 0xB95 DUP4 PUSH2 0xB62 JUMP JUMPDEST PUSH2 0xBA9 PUSH2 0xBA1 DUP3 PUSH2 0xB83 JUMP JUMPDEST DUP5 DUP5 SLOAD PUSH2 0xB08 JUMP JUMPDEST DUP3 SSTORE POP POP POP POP JUMP JUMPDEST PUSH0 SWAP1 JUMP JUMPDEST PUSH2 0xBBD PUSH2 0xBB1 JUMP JUMPDEST PUSH2 0xBC8 DUP2 DUP5 DUP5 PUSH2 0xB8C JUMP JUMPDEST POP POP POP JUMP JUMPDEST JUMPDEST DUP2 DUP2 LT ISZERO PUSH2 0xBEB JUMPI PUSH2 0xBE0 PUSH0 DUP3 PUSH2 0xBB5 JUMP JUMPDEST PUSH1 0x1 DUP2 ADD SWAP1 POP PUSH2 0xBCE JUMP JUMPDEST POP POP JUMP JUMPDEST PUSH1 0x1F DUP3 GT ISZERO PUSH2 0xC30 JUMPI PUSH2 0xC01 DUP2 PUSH2 0xADB JUMP JUMPDEST PUSH2 0xC0A DUP5 PUSH2 0xAED JUMP JUMPDEST DUP2 ADD PUSH1 0x20 DUP6 LT ISZERO PUSH2 0xC19 JUMPI DUP2 SWAP1 POP JUMPDEST PUSH2 0xC2D PUSH2 0xC25 DUP6 PUSH2 0xAED JUMP JUMPDEST DUP4 ADD DUP3 PUSH2 0xBCD JUMP JUMPDEST POP POP JUMPDEST POP POP POP JUMP JUMPDEST PUSH0 DUP3 DUP3 SHR SWAP1 POP SWAP3 SWAP2 POP POP JUMP JUMPDEST PUSH0 PUSH2 0xC50 PUSH0 NOT DUP5 PUSH1 0x8 MUL PUSH2 0xC35 JUMP JUMPDEST NOT DUP1 DUP4 AND SWAP2 POP POP SWAP3 SWAP2 POP POP JUMP JUMPDEST PUSH0 PUSH2 0xC68 DUP4 DUP4 PUSH2 0xC41 JUMP JUMPDEST SWAP2 POP DUP3 PUSH1 0x2 MUL DUP3 OR SWAP1 POP SWAP3 SWAP2 POP POP JUMP JUMPDEST PUSH2 0xC81 DUP3 PUSH2 0x803 JUMP JUMPDEST PUSH8 0xFFFFFFFFFFFFFFFF DUP2 GT ISZERO PUSH2 0xC9A JUMPI PUSH2 0xC99 PUSH2 0x65B JUMP JUMPDEST JUMPDEST PUSH2 0xCA4 DUP3 SLOAD PUSH2 0xAAB JUMP JUMPDEST PUSH2 0xCAF DUP3 DUP3 DUP6 PUSH2 0xBEF JUMP JUMPDEST PUSH0 PUSH1 0x20 SWAP1 POP PUSH1 0x1F DUP4 GT PUSH1 0x1 DUP2 EQ PUSH2 0xCE0 JUMPI PUSH0 DUP5 ISZERO PUSH2 0xCCE JUMPI DUP3 DUP8 ADD MLOAD SWAP1 POP JUMPDEST PUSH2 0xCD8 DUP6 DUP3 PUSH2 0xC5D JUMP JUMPDEST DUP7 SSTORE POP PUSH2 0xD3F JUMP JUMPDEST PUSH1 0x1F NOT DUP5 AND PUSH2 0xCEE DUP7 PUSH2 0xADB JUMP JUMPDEST PUSH0 JUMPDEST DUP3 DUP2 LT ISZERO PUSH2 0xD15 JUMPI DUP5 DUP10 ADD MLOAD DUP3 SSTORE PUSH1 0x1 DUP3 ADD SWAP2 POP PUSH1 0x20 DUP6 ADD SWAP5 POP PUSH1 0x20 DUP2 ADD SWAP1 POP PUSH2 0xCF0 JUMP JUMPDEST DUP7 DUP4 LT ISZERO PUSH2 0xD32 JUMPI DUP5 DUP10 ADD MLOAD PUSH2 0xD2E PUSH1 0x1F DUP10 AND DUP3 PUSH2 0xC41 JUMP JUMPDEST DUP4 SSTORE POP JUMPDEST PUSH1 0x1 PUSH1 0x2 DUP9 MUL ADD DUP9 SSTORE POP POP POP JUMPDEST POP POP POP POP POP POP JUMP INVALID LOG2 PUSH5 0x6970667358 0x22 SLT KECCAK256 0xC7 0xC8 DELEGATECALL BALANCE 0xD2 CODESIZE 0xBA DUP14 LOG4 PUSH21 0x22C2D1A2D1EC007C9604E919750C663A71750D2A12 0xE4 PUSH5 0x736F6C6343 STOP ADDMOD BYTE STOP CALLER "
		},
		"gasEstimates": {
			"creation": {
				"codeDepositCost": "690600",
				"executionCost": "infinite",
				"totalCost": "infinite"
			},
			"external": {
				"addToArray(uint8)": "50657",
				"myAddress()": "2627",
				"myArray(uint256)": "6597",
				"myBool()": "2489",
				"myInt()": "2448",
				"myString()": "infinite",
				"myUint()": "2448",
				"person()": "infinite",
				"setAddress(address)": "24854",
				"setBool(bool)": "24719",
				"setInt(int256)": "22582",
				"setPerson(string,uint256)": "infinite",
				"setString(string)": "infinite",
				"setUint(uint256)": "22603"
			}
		},
		"methodIdentifiers": {
			"addToArray(uint8)": "741d3b42",
			"myAddress()": "26b85ee1",
			"myArray(uint256)": "cc3e57d9",
			"myBool()": "6deecdbe",
			"myInt()": "2cb777a6",
			"myString()": "492bfa18",
			"myUint()": "06540f7e",
			"person()": "77ec2b55",
			"setAddress(address)": "e30081a0",
			"setBool(bool)": "1e26fd33",
			"setInt(int256)": "747586b8",
			"setPerson(string,uint256)": "2fda437e",
			"setString(string)": "7fcaf666",
			"setUint(uint256)": "4ef65c3b"
		}
	},
	"abi": [
		{
			"inputs": [],
			"stateMutability": "nonpayable",
			"type": "constructor"
		},
		{
			"inputs": [
				{
					"internalType": "uint8",
					"name": "_value",
					"type": "uint8"
				}
			],
			"name": "addToArray",
			"outputs": [],
			"stateMutability": "nonpayable",
			"type": "function"
		},
		{
			"inputs": [],
			"name": "myAddress",
			"outputs": [
				{
					"internalType": "address",
					"name": "",
					"type": "address"
				}
			],
			"stateMutability": "view",
			"type": "function"
		},
		{
			"inputs": [
				{
					"internalType": "uint256",
					"name": "",
					"type": "uint256"
				}
			],
			"name": "myArray",
			"outputs": [
				{
					"internalType": "uint8",
					"name": "",
					"type": "uint8"
				}
			],
			"stateMutability": "view",
			"type": "function"
		},
		{
			"inputs": [],
			"name": "myBool",
			"outputs": [
				{
					"internalType": "bool",
					"name": "",
					"type": "bool"
				}
			],
			"stateMutability": "view",
			"type": "function"
		},
		{
			"inputs": [],
			"name": "myInt",
			"outputs": [
				{
					"internalType": "int256",
					"name": "",
					"type": "int256"
				}
			],
			"stateMutability": "view",
			"type": "function"
		},
		{
			"inputs": [],
			"name": "myString",
			"outputs": [
				{
					"internalType": "string",
					"name": "",
					"type": "string"
				}
			],
			"stateMutability": "view",
			"type": "function"
		},
		{
			"inputs": [],
			"name": "myUint",
			"outputs": [
				{
					"internalType": "uint256",
					"name": "",
					"type": "uint256"
				}
			],
			"stateMutability": "view",
			"type": "function"
		},
		{
			"inputs": [],
			"name": "person",
			"outputs": [
				{
					"internalType": "string",
					"name": "name",
					"type": "string"
				},
				{
					"internalType": "uint256",
					"name": "age",
					"type": "uint256"
				}
			],
			"stateMutability": "view",
			"type": "function"
		},
		{
			"inputs": [
				{
					"internalType": "address",
					"name": "_myAddress",
					"type": "address"
				}
			],
			"name": "setAddress",
			"outputs": [],
			"stateMutability": "nonpayable",
			"type": "function"
		},
		{
			"inputs": [
				{
					"internalType": "bool",
					"name": "_myBool",
					"type": "bool"
				}
			],
			"name": "setBool",
			"outputs": [],
			"stateMutability": "nonpayable",
			"type": "function"
		},
		{
			"inputs": [
				{
					"internalType": "int256",
					"name": "_myInt",
					"type": "int256"
				}
			],
			"name": "setInt",
			"outputs": [],
			"stateMutability": "nonpayable",
			"type": "function"
		},
		{
			"inputs": [
				{
					"internalType": "string",
					"name": "_name",
					"type": "string"
				},
				{
					"internalType": "uint256",
					"name": "_age",
					"type": "uint256"
				}
			],
			"name": "setPerson",
			"outputs": [],
			"stateMutability": "nonpayable",
			"type": "function"
		},
		{
			"inputs": [
				{
					"internalType": "string",
					"name": "_myString",
					"type": "string"
				}
			],
			"name": "setString",
			"outputs": [],
			"stateMutability": "nonpayable",
			"type": "function"
		},
		{
			"inputs": [
				{
					"internalType": "uint256",
					"name": "_myUint",
					"type": "uint256"
				}
			],
			"name": "setUint",
			"outputs": [],
			"stateMutability": "nonpayable",
			"type": "function"
		}
	]
}