{
	"data": {
		"bytecode": {
			"linkReferences": {},
			"object": "608060405234801561000f575f80fd5b50604051610cc7380380610cc78339818101604052810190610031919061019a565b5f8081905550806001908161004691906103ee565b50506104bd565b5f604051905090565b5f80fd5b5f80fd5b5f80fd5b5f80fd5b5f601f19601f8301169050919050565b7f4e487b71000000000000000000000000000000000000000000000000000000005f52604160045260245ffd5b6100ac82610066565b810181811067ffffffffffffffff821117156100cb576100ca610076565b5b80604052505050565b5f6100dd61004d565b90506100e982826100a3565b919050565b5f67ffffffffffffffff82111561010857610107610076565b5b61011182610066565b9050602081019050919050565b8281835e5f83830152505050565b5f61013e610139846100ee565b6100d4565b90508281526020810184848401111561015a57610159610062565b5b61016584828561011e565b509392505050565b5f82601f8301126101815761018061005e565b5b815161019184826020860161012c565b91505092915050565b5f602082840312156101af576101ae610056565b5b5f82015167ffffffffffffffff8111156101cc576101cb61005a565b5b6101d88482850161016d565b91505092915050565b5f81519050919050565b7f4e487b71000000000000000000000000000000000000000000000000000000005f52602260045260245ffd5b5f600282049050600182168061022f57607f821691505b602082108103610242576102416101eb565b5b50919050565b5f819050815f5260205f209050919050565b5f6020601f8301049050919050565b5f82821b905092915050565b5f600883026102a47fffffffffffffffffffffffffffffffffffffffffffffffffffffffffffffffff82610269565b6102ae8683610269565b95508019841693508086168417925050509392505050565b5f819050919050565b5f819050919050565b5f6102f26102ed6102e8846102c6565b6102cf565b6102c6565b9050919050565b5f819050919050565b61030b836102d8565b61031f610317826102f9565b848454610275565b825550505050565b5f90565b610333610327565b61033e818484610302565b505050565b5b81811015610361576103565f8261032b565b600181019050610344565b5050565b601f8211156103a65761037781610248565b6103808461025a565b8101602085101561038f578190505b6103a361039b8561025a565b830182610343565b50505b505050565b5f82821c905092915050565b5f6103c65f19846008026103ab565b1980831691505092915050565b5f6103de83836103b7565b9150826002028217905092915050565b6103f7826101e1565b67ffffffffffffffff8111156104105761040f610076565b5b61041a8254610218565b610425828285610365565b5f60209050601f831160018114610456575f8415610444578287015190505b61044e85826103d3565b8655506104b5565b601f19841661046486610248565b5f5b8281101561048b57848901518255600182019150602085019450602081019050610466565b868310156104a857848901516104a4601f8916826103b7565b8355505b6001600288020188555050505b505050505050565b6107fd806104ca5f395ff3fe608060405234801561000f575f80fd5b5060043610610055575f3560e01c806306661abd146100595780631923be2414610077578063e21f37ce14610093578063e5071b8e146100b1578063e88dc1e2146100bb575b5f80fd5b6100616100eb565b60405161006e91906101db565b60405180910390f35b610091600480360381019061008c9190610341565b6100f0565b005b61009b610103565b6040516100a891906103e8565b60405180910390f35b6100b961018f565b005b6100d560048036038101906100d09190610432565b6101a9565b6040516100e291906101db565b60405180910390f35b5f5481565b80600190816100ff9190610657565b5050565b600180546101109061048a565b80601f016020809104026020016040519081016040528092919081815260200182805461013c9061048a565b80156101875780601f1061015e57610100808354040283529160200191610187565b820191905f5260205f20905b81548152906001019060200180831161016a57829003601f168201915b505050505081565b60015f808282546101a09190610753565b92505081905550565b5f80825f546101b89190610786565b905080915050919050565b5f819050919050565b6101d5816101c3565b82525050565b5f6020820190506101ee5f8301846101cc565b92915050565b5f604051905090565b5f80fd5b5f80fd5b5f80fd5b5f80fd5b5f601f19601f8301169050919050565b7f4e487b71000000000000000000000000000000000000000000000000000000005f52604160045260245ffd5b6102538261020d565b810181811067ffffffffffffffff821117156102725761027161021d565b5b80604052505050565b5f6102846101f4565b9050610290828261024a565b919050565b5f67ffffffffffffffff8211156102af576102ae61021d565b5b6102b88261020d565b9050602081019050919050565b828183375f83830152505050565b5f6102e56102e084610295565b61027b565b90508281526020810184848401111561030157610300610209565b5b61030c8482856102c5565b509392505050565b5f82601f83011261032857610327610205565b5b81356103388482602086016102d3565b91505092915050565b5f60208284031215610356576103556101fd565b5b5f82013567ffffffffffffffff81111561037357610372610201565b5b61037f84828501610314565b91505092915050565b5f81519050919050565b5f82825260208201905092915050565b8281835e5f83830152505050565b5f6103ba82610388565b6103c48185610392565b93506103d48185602086016103a2565b6103dd8161020d565b840191505092915050565b5f6020820190508181035f83015261040081846103b0565b905092915050565b610411816101c3565b811461041b575f80fd5b50565b5f8135905061042c81610408565b92915050565b5f60208284031215610447576104466101fd565b5b5f6104548482850161041e565b91505092915050565b7f4e487b71000000000000000000000000000000000000000000000000000000005f52602260045260245ffd5b5f60028204905060018216806104a157607f821691505b6020821081036104b4576104b361045d565b5b50919050565b5f819050815f5260205f209050919050565b5f6020601f8301049050919050565b5f82821b905092915050565b5f600883026105167fffffffffffffffffffffffffffffffffffffffffffffffffffffffffffffffff826104db565b61052086836104db565b95508019841693508086168417925050509392505050565b5f819050919050565b5f61055b610556610551846101c3565b610538565b6101c3565b9050919050565b5f819050919050565b61057483610541565b61058861058082610562565b8484546104e7565b825550505050565b5f90565b61059c610590565b6105a781848461056b565b505050565b5b818110156105ca576105bf5f82610594565b6001810190506105ad565b5050565b601f82111561060f576105e0816104ba565b6105e9846104cc565b810160208510156105f8578190505b61060c610604856104cc565b8301826105ac565b50505b505050565b5f82821c905092915050565b5f61062f5f1984600802610614565b1980831691505092915050565b5f6106478383610620565b9150826002028217905092915050565b61066082610388565b67ffffffffffffffff8111156106795761067861021d565b5b610683825461048a565b61068e8282856105ce565b5f60209050601f8311600181146106bf575f84156106ad578287015190505b6106b7858261063c565b86555061071e565b601f1984166106cd866104ba565b5f5b828110156106f4578489015182556001820191506020850194506020810190506106cf565b86831015610711578489015161070d601f891682610620565b8355505b6001600288020188555050505b505050505050565b7f4e487b71000000000000000000000000000000000000000000000000000000005f52601160045260245ffd5b5f61075d826101c3565b9150610768836101c3565b92508282019050808211156107805761077f610726565b5b92915050565b5f610790826101c3565b915061079b836101c3565b92508282026107a9816101c3565b915082820484148315176107c0576107bf610726565b5b509291505056fea2646970667358221220481a3735d8d13dc6b6a7612f96f9f5e959e285ccb93bd99e1c0eec72f982667964736f6c634300081a0033",
			"opcodes": "PUSH1 0x80 PUSH1 0x40 MSTORE CALLVALUE DUP1 ISZERO PUSH2 0xF JUMPI PUSH0 DUP1 REVERT JUMPDEST POP PUSH1 0x40 MLOAD PUSH2 0xCC7 CODESIZE SUB DUP1 PUSH2 0xCC7 DUP4 CODECOPY DUP2 DUP2 ADD PUSH1 0x40 MSTORE DUP2 ADD SWAP1 PUSH2 0x31 SWAP2 SWAP1 PUSH2 0x19A JUMP JUMPDEST PUSH0 DUP1 DUP2 SWAP1 SSTORE POP DUP1 PUSH1 0x1 SWAP1 DUP2 PUSH2 0x46 SWAP2 SWAP1 PUSH2 0x3EE JUMP JUMPDEST POP POP PUSH2 0x4BD JUMP JUMPDEST PUSH0 PUSH1 0x40 MLOAD SWAP1 POP SWAP1 JUMP JUMPDEST PUSH0 DUP1 REVERT JUMPDEST PUSH0 DUP1 REVERT JUMPDEST PUSH0 DUP1 REVERT JUMPDEST PUSH0 DUP1 REVERT JUMPDEST PUSH0 PUSH1 0x1F NOT PUSH1 0x1F DUP4 ADD AND SWAP1 POP SWAP2 SWAP1 POP JUMP JUMPDEST PUSH32 0x4E487B7100000000000000000000000000000000000000000000000000000000 PUSH0 MSTORE PUSH1 0x41 PUSH1 0x4 MSTORE PUSH1 0x24 PUSH0 REVERT JUMPDEST PUSH2 0xAC DUP3 PUSH2 0x66 JUMP JUMPDEST DUP2 ADD DUP2 DUP2 LT PUSH8 0xFFFFFFFFFFFFFFFF DUP3 GT OR ISZERO PUSH2 0xCB JUMPI PUSH2 0xCA PUSH2 0x76 JUMP JUMPDEST JUMPDEST DUP1 PUSH1 0x40 MSTORE POP POP POP JUMP JUMPDEST PUSH0 PUSH2 0xDD PUSH2 0x4D JUMP JUMPDEST SWAP1 POP PUSH2 0xE9 DUP3 DUP3 PUSH2 0xA3 JUMP JUMPDEST SWAP2 SWAP1 POP JUMP JUMPDEST PUSH0 PUSH8 0xFFFFFFFFFFFFFFFF DUP3 GT ISZERO PUSH2 0x108 JUMPI PUSH2 0x107 PUSH2 0x76 JUMP JUMPDEST JUMPDEST PUSH2 0x111 DUP3 PUSH2 0x66 JUMP JUMPDEST SWAP1 POP PUSH1 0x20 DUP2 ADD SWAP1 POP SWAP2 SWAP1 POP JUMP JUMPDEST DUP3 DUP2 DUP4 MCOPY PUSH0 DUP4 DUP4 ADD MSTORE POP POP POP JUMP JUMPDEST PUSH0 PUSH2 0x13E PUSH2 0x139 DUP5 PUSH2 0xEE JUMP JUMPDEST PUSH2 0xD4 JUMP JUMPDEST SWAP1 POP DUP3 DUP2 MSTORE PUSH1 0x20 DUP2 ADD DUP5 DUP5 DUP5 ADD GT ISZERO PUSH2 0x15A JUMPI PUSH2 0x159 PUSH2 0x62 JUMP JUMPDEST JUMPDEST PUSH2 0x165 DUP5 DUP3 DUP6 PUSH2 0x11E JUMP JUMPDEST POP SWAP4 SWAP3 POP POP POP JUMP JUMPDEST PUSH0 DUP3 PUSH1 0x1F DUP4 ADD SLT PUSH2 0x181 JUMPI PUSH2 0x180 PUSH2 0x5E JUMP JUMPDEST JUMPDEST DUP2 MLOAD PUSH2 0x191 DUP5 DUP3 PUSH1 0x20 DUP7 ADD PUSH2 0x12C JUMP JUMPDEST SWAP2 POP POP SWAP3 SWAP2 POP POP JUMP JUMPDEST PUSH0 PUSH1 0x20 DUP3 DUP5 SUB SLT ISZERO PUSH2 0x1AF JUMPI PUSH2 0x1AE PUSH2 0x56 JUMP JUMPDEST JUMPDEST PUSH0 DUP3 ADD MLOAD PUSH8 0xFFFFFFFFFFFFFFFF DUP2 GT ISZERO PUSH2 0x1CC JUMPI PUSH2 0x1CB PUSH2 0x5A JUMP JUMPDEST JUMPDEST PUSH2 0x1D8 DUP5 DUP3 DUP6 ADD PUSH2 0x16D JUMP JUMPDEST SWAP2 POP POP SWAP3 SWAP2 POP POP JUMP JUMPDEST PUSH0 DUP2 MLOAD SWAP1 POP SWAP2 SWAP1 POP JUMP JUMPDEST PUSH32 0x4E487B7100000000000000000000000000000000000000000000000000000000 PUSH0 MSTORE PUSH1 0x22 PUSH1 0x4 MSTORE PUSH1 0x24 PUSH0 REVERT JUMPDEST PUSH0 PUSH1 0x2 DUP3 DIV SWAP1 POP PUSH1 0x1 DUP3 AND DUP1 PUSH2 0x22F JUMPI PUSH1 0x7F DUP3 AND SWAP2 POP JUMPDEST PUSH1 0x20 DUP3 LT DUP2 SUB PUSH2 0x242 JUMPI PUSH2 0x241 PUSH2 0x1EB JUMP JUMPDEST JUMPDEST POP SWAP2 SWAP1 POP JUMP JUMPDEST PUSH0 DUP2 SWAP1 POP DUP2 PUSH0 MSTORE PUSH1 0x20 PUSH0 KECCAK256 SWAP1 POP SWAP2 SWAP1 POP JUMP JUMPDEST PUSH0 PUSH1 0x20 PUSH1 0x1F DUP4 ADD DIV SWAP1 POP SWAP2 SWAP1 POP JUMP JUMPDEST PUSH0 DUP3 DUP3 SHL SWAP1 POP SWAP3 SWAP2 POP POP JUMP JUMPDEST PUSH0 PUSH1 0x8 DUP4 MUL PUSH2 0x2A4 PUSH32 0xFFFFFFFFFFFFFFFFFFFFFFFFFFFFFFFFFFFFFFFFFFFFFFFFFFFFFFFFFFFFFFFF DUP3 PUSH2 0x269 JUMP JUMPDEST PUSH2 0x2AE DUP7 DUP4 PUSH2 0x269 JUMP JUMPDEST SWAP6 POP DUP1 NOT DUP5 AND SWAP4 POP DUP1 DUP7 AND DUP5 OR SWAP3 POP POP POP SWAP4 SWAP3 POP POP POP JUMP JUMPDEST PUSH0 DUP2 SWAP1 POP SWAP2 SWAP1 POP JUMP JUMPDEST PUSH0 DUP2 SWAP1 POP SWAP2 SWAP1 POP JUMP JUMPDEST PUSH0 PUSH2 0x2F2 PUSH2 0x2ED PUSH2 0x2E8 DUP5 PUSH2 0x2C6 JUMP JUMPDEST PUSH2 0x2CF JUMP JUMPDEST PUSH2 0x2C6 JUMP JUMPDEST SWAP1 POP SWAP2 SWAP1 POP JUMP JUMPDEST PUSH0 DUP2 SWAP1 POP SWAP2 SWAP1 POP JUMP JUMPDEST PUSH2 0x30B DUP4 PUSH2 0x2D8 JUMP JUMPDEST PUSH2 0x31F PUSH2 0x317 DUP3 PUSH2 0x2F9 JUMP JUMPDEST DUP5 DUP5 SLOAD PUSH2 0x275 JUMP JUMPDEST DUP3 SSTORE POP POP POP POP JUMP JUMPDEST PUSH0 SWAP1 JUMP JUMPDEST PUSH2 0x333 PUSH2 0x327 JUMP JUMPDEST PUSH2 0x33E DUP2 DUP5 DUP5 PUSH2 0x302 JUMP JUMPDEST POP POP POP JUMP JUMPDEST JUMPDEST DUP2 DUP2 LT ISZERO PUSH2 0x361 JUMPI PUSH2 0x356 PUSH0 DUP3 PUSH2 0x32B JUMP JUMPDEST PUSH1 0x1 DUP2 ADD SWAP1 POP PUSH2 0x344 JUMP JUMPDEST POP POP JUMP JUMPDEST PUSH1 0x1F DUP3 GT ISZERO PUSH2 0x3A6 JUMPI PUSH2 0x377 DUP2 PUSH2 0x248 JUMP JUMPDEST PUSH2 0x380 DUP5 PUSH2 0x25A JUMP JUMPDEST DUP2 ADD PUSH1 0x20 DUP6 LT ISZERO PUSH2 0x38F JUMPI DUP2 SWAP1 POP JUMPDEST PUSH2 0x3A3 PUSH2 0x39B DUP6 PUSH2 0x25A JUMP JUMPDEST DUP4 ADD DUP3 PUSH2 0x343 JUMP JUMPDEST POP POP JUMPDEST POP POP POP JUMP JUMPDEST PUSH0 DUP3 DUP3 SHR SWAP1 POP SWAP3 SWAP2 POP POP JUMP JUMPDEST PUSH0 PUSH2 0x3C6 PUSH0 NOT DUP5 PUSH1 0x8 MUL PUSH2 0x3AB JUMP JUMPDEST NOT DUP1 DUP4 AND SWAP2 POP POP SWAP3 SWAP2 POP POP JUMP JUMPDEST PUSH0 PUSH2 0x3DE DUP4 DUP4 PUSH2 0x3B7 JUMP JUMPDEST SWAP2 POP DUP3 PUSH1 0x2 MUL DUP3 OR SWAP1 POP SWAP3 SWAP2 POP POP JUMP JUMPDEST PUSH2 0x3F7 DUP3 PUSH2 0x1E1 JUMP JUMPDEST PUSH8 0xFFFFFFFFFFFFFFFF DUP2 GT ISZERO PUSH2 0x410 JUMPI PUSH2 0x40F PUSH2 0x76 JUMP JUMPDEST JUMPDEST PUSH2 0x41A DUP3 SLOAD PUSH2 0x218 JUMP JUMPDEST PUSH2 0x425 DUP3 DUP3 DUP6 PUSH2 0x365 JUMP JUMPDEST PUSH0 PUSH1 0x20 SWAP1 POP PUSH1 0x1F DUP4 GT PUSH1 0x1 DUP2 EQ PUSH2 0x456 JUMPI PUSH0 DUP5 ISZERO PUSH2 0x444 JUMPI DUP3 DUP8 ADD MLOAD SWAP1 POP JUMPDEST PUSH2 0x44E DUP6 DUP3 PUSH2 0x3D3 JUMP JUMPDEST DUP7 SSTORE POP PUSH2 0x4B5 JUMP JUMPDEST PUSH1 0x1F NOT DUP5 AND PUSH2 0x464 DUP7 PUSH2 0x248 JUMP JUMPDEST PUSH0 JUMPDEST DUP3 DUP2 LT ISZERO PUSH2 0x48B JUMPI DUP5 DUP10 ADD MLOAD DUP3 SSTORE PUSH1 0x1 DUP3 ADD SWAP2 POP PUSH1 0x20 DUP6 ADD SWAP5 POP PUSH1 0x20 DUP2 ADD SWAP1 POP PUSH2 0x466 JUMP JUMPDEST DUP7 DUP4 LT ISZERO PUSH2 0x4A8 JUMPI DUP5 DUP10 ADD MLOAD PUSH2 0x4A4 PUSH1 0x1F DUP10 AND DUP3 PUSH2 0x3B7 JUMP JUMPDEST DUP4 SSTORE POP JUMPDEST PUSH1 0x1 PUSH1 0x2 DUP9 MUL ADD DUP9 SSTORE POP POP POP JUMPDEST POP POP POP POP POP POP JUMP JUMPDEST PUSH2 0x7FD DUP1 PUSH2 0x4CA PUSH0 CODECOPY PUSH0 RETURN INVALID PUSH1 0x80 PUSH1 0x40 MSTORE CALLVALUE DUP1 ISZERO PUSH2 0xF JUMPI PUSH0 DUP1 REVERT JUMPDEST POP PUSH1 0x4 CALLDATASIZE LT PUSH2 0x55 JUMPI PUSH0 CALLDATALOAD PUSH1 0xE0 SHR DUP1 PUSH4 0x6661ABD EQ PUSH2 0x59 JUMPI DUP1 PUSH4 0x1923BE24 EQ PUSH2 0x77 JUMPI DUP1 PUSH4 0xE21F37CE EQ PUSH2 0x93 JUMPI DUP1 PUSH4 0xE5071B8E EQ PUSH2 0xB1 JUMPI DUP1 PUSH4 0xE88DC1E2 EQ PUSH2 0xBB JUMPI JUMPDEST PUSH0 DUP1 REVERT JUMPDEST PUSH2 0x61 PUSH2 0xEB JUMP JUMPDEST PUSH1 0x40 MLOAD PUSH2 0x6E SWAP2 SWAP1 PUSH2 0x1DB JUMP JUMPDEST PUSH1 0x40 MLOAD DUP1 SWAP2 SUB SWAP1 RETURN JUMPDEST PUSH2 0x91 PUSH1 0x4 DUP1 CALLDATASIZE SUB DUP2 ADD SWAP1 PUSH2 0x8C SWAP2 SWAP1 PUSH2 0x341 JUMP JUMPDEST PUSH2 0xF0 JUMP JUMPDEST STOP JUMPDEST PUSH2 0x9B PUSH2 0x103 JUMP JUMPDEST PUSH1 0x40 MLOAD PUSH2 0xA8 SWAP2 SWAP1 PUSH2 0x3E8 JUMP JUMPDEST PUSH1 0x40 MLOAD DUP1 SWAP2 SUB SWAP1 RETURN JUMPDEST PUSH2 0xB9 PUSH2 0x18F JUMP JUMPDEST STOP JUMPDEST PUSH2 0xD5 PUSH1 0x4 DUP1 CALLDATASIZE SUB DUP2 ADD SWAP1 PUSH2 0xD0 SWAP2 SWAP1 PUSH2 0x432 JUMP JUMPDEST PUSH2 0x1A9 JUMP JUMPDEST PUSH1 0x40 MLOAD PUSH2 0xE2 SWAP2 SWAP1 PUSH2 0x1DB JUMP JUMPDEST PUSH1 0x40 MLOAD DUP1 SWAP2 SUB SWAP1 RETURN JUMPDEST PUSH0 SLOAD DUP2 JUMP JUMPDEST DUP1 PUSH1 0x1 SWAP1 DUP2 PUSH2 0xFF SWAP2 SWAP1 PUSH2 0x657 JUMP JUMPDEST POP POP JUMP JUMPDEST PUSH1 0x1 DUP1 SLOAD PUSH2 0x110 SWAP1 PUSH2 0x48A JUMP JUMPDEST DUP1 PUSH1 0x1F ADD PUSH1 0x20 DUP1 SWAP2 DIV MUL PUSH1 0x20 ADD PUSH1 0x40 MLOAD SWAP1 DUP2 ADD PUSH1 0x40 MSTORE DUP1 SWAP3 SWAP2 SWAP1 DUP2 DUP2 MSTORE PUSH1 0x20 ADD DUP3 DUP1 SLOAD PUSH2 0x13C SWAP1 PUSH2 0x48A JUMP JUMPDEST DUP1 ISZERO PUSH2 0x187 JUMPI DUP1 PUSH1 0x1F LT PUSH2 0x15E JUMPI PUSH2 0x100 DUP1 DUP4 SLOAD DIV MUL DUP4 MSTORE SWAP2 PUSH1 0x20 ADD SWAP2 PUSH2 0x187 JUMP JUMPDEST DUP3 ADD SWAP2 SWAP1 PUSH0 MSTORE PUSH1 0x20 PUSH0 KECCAK256 SWAP1 JUMPDEST DUP2 SLOAD DUP2 MSTORE SWAP1 PUSH1 0x1 ADD SWAP1 PUSH1 0x20 ADD DUP1 DUP4 GT PUSH2 0x16A JUMPI DUP3 SWAP1 SUB PUSH1 0x1F AND DUP3 ADD SWAP2 JUMPDEST POP POP POP POP POP DUP2 JUMP JUMPDEST PUSH1 0x1 PUSH0 DUP1 DUP3 DUP3 SLOAD PUSH2 0x1A0 SWAP2 SWAP1 PUSH2 0x753 JUMP JUMPDEST SWAP3 POP POP DUP2 SWAP1 SSTORE POP JUMP JUMPDEST PUSH0 DUP1 DUP3 PUSH0 SLOAD PUSH2 0x1B8 SWAP2 SWAP1 PUSH2 0x786 JUMP JUMPDEST SWAP1 POP DUP1 SWAP2 POP POP SWAP2 SWAP1 POP JUMP JUMPDEST PUSH0 DUP2 SWAP1 POP SWAP2 SWAP1 POP JUMP JUMPDEST PUSH2 0x1D5 DUP2 PUSH2 0x1C3 JUMP JUMPDEST DUP3 MSTORE POP POP JUMP JUMPDEST PUSH0 PUSH1 0x20 DUP3 ADD SWAP1 POP PUSH2 0x1EE PUSH0 DUP4 ADD DUP5 PUSH2 0x1CC JUMP JUMPDEST SWAP3 SWAP2 POP POP JUMP JUMPDEST PUSH0 PUSH1 0x40 MLOAD SWAP1 POP SWAP1 JUMP JUMPDEST PUSH0 DUP1 REVERT JUMPDEST PUSH0 DUP1 REVERT JUMPDEST PUSH0 DUP1 REVERT JUMPDEST PUSH0 DUP1 REVERT JUMPDEST PUSH0 PUSH1 0x1F NOT PUSH1 0x1F DUP4 ADD AND SWAP1 POP SWAP2 SWAP1 POP JUMP JUMPDEST PUSH32 0x4E487B7100000000000000000000000000000000000000000000000000000000 PUSH0 MSTORE PUSH1 0x41 PUSH1 0x4 MSTORE PUSH1 0x24 PUSH0 REVERT JUMPDEST PUSH2 0x253 DUP3 PUSH2 0x20D JUMP JUMPDEST DUP2 ADD DUP2 DUP2 LT PUSH8 0xFFFFFFFFFFFFFFFF DUP3 GT OR ISZERO PUSH2 0x272 JUMPI PUSH2 0x271 PUSH2 0x21D JUMP JUMPDEST JUMPDEST DUP1 PUSH1 0x40 MSTORE POP POP POP JUMP JUMPDEST PUSH0 PUSH2 0x284 PUSH2 0x1F4 JUMP JUMPDEST SWAP1 POP PUSH2 0x290 DUP3 DUP3 PUSH2 0x24A JUMP JUMPDEST SWAP2 SWAP1 POP JUMP JUMPDEST PUSH0 PUSH8 0xFFFFFFFFFFFFFFFF DUP3 GT ISZERO PUSH2 0x2AF JUMPI PUSH2 0x2AE PUSH2 0x21D JUMP JUMPDEST JUMPDEST PUSH2 0x2B8 DUP3 PUSH2 0x20D JUMP JUMPDEST SWAP1 POP PUSH1 0x20 DUP2 ADD SWAP1 POP SWAP2 SWAP1 POP JUMP JUMPDEST DUP3 DUP2 DUP4 CALLDATACOPY PUSH0 DUP4 DUP4 ADD MSTORE POP POP POP JUMP JUMPDEST PUSH0 PUSH2 0x2E5 PUSH2 0x2E0 DUP5 PUSH2 0x295 JUMP JUMPDEST PUSH2 0x27B JUMP JUMPDEST SWAP1 POP DUP3 DUP2 MSTORE PUSH1 0x20 DUP2 ADD DUP5 DUP5 DUP5 ADD GT ISZERO PUSH2 0x301 JUMPI PUSH2 0x300 PUSH2 0x209 JUMP JUMPDEST JUMPDEST PUSH2 0x30C DUP5 DUP3 DUP6 PUSH2 0x2C5 JUMP JUMPDEST POP SWAP4 SWAP3 POP POP POP JUMP JUMPDEST PUSH0 DUP3 PUSH1 0x1F DUP4 ADD SLT PUSH2 0x328 JUMPI PUSH2 0x327 PUSH2 0x205 JUMP JUMPDEST JUMPDEST DUP2 CALLDATALOAD PUSH2 0x338 DUP5 DUP3 PUSH1 0x20 DUP7 ADD PUSH2 0x2D3 JUMP JUMPDEST SWAP2 POP POP SWAP3 SWAP2 POP POP JUMP JUMPDEST PUSH0 PUSH1 0x20 DUP3 DUP5 SUB SLT ISZERO PUSH2 0x356 JUMPI PUSH2 0x355 PUSH2 0x1FD JUMP JUMPDEST JUMPDEST PUSH0 DUP3 ADD CALLDATALOAD PUSH8 0xFFFFFFFFFFFFFFFF DUP2 GT ISZERO PUSH2 0x373 JUMPI PUSH2 0x372 PUSH2 0x201 JUMP JUMPDEST JUMPDEST PUSH2 0x37F DUP5 DUP3 DUP6 ADD PUSH2 0x314 JUMP JUMPDEST SWAP2 POP POP SWAP3 SWAP2 POP POP JUMP JUMPDEST PUSH0 DUP2 MLOAD SWAP1 POP SWAP2 SWAP1 POP JUMP JUMPDEST PUSH0 DUP3 DUP3 MSTORE PUSH1 0x20 DUP3 ADD SWAP1 POP SWAP3 SWAP2 POP POP JUMP JUMPDEST DUP3 DUP2 DUP4 MCOPY PUSH0 DUP4 DUP4 ADD MSTORE POP POP POP JUMP JUMPDEST PUSH0 PUSH2 0x3BA DUP3 PUSH2 0x388 JUMP JUMPDEST PUSH2 0x3C4 DUP2 DUP6 PUSH2 0x392 JUMP JUMPDEST SWAP4 POP PUSH2 0x3D4 DUP2 DUP6 PUSH1 0x20 DUP7 ADD PUSH2 0x3A2 JUMP JUMPDEST PUSH2 0x3DD DUP2 PUSH2 0x20D JUMP JUMPDEST DUP5 ADD SWAP2 POP POP SWAP3 SWAP2 POP POP JUMP JUMPDEST PUSH0 PUSH1 0x20 DUP3 ADD SWAP1 POP DUP2 DUP2 SUB PUSH0 DUP4 ADD MSTORE PUSH2 0x400 DUP2 DUP5 PUSH2 0x3B0 JUMP JUMPDEST SWAP1 POP SWAP3 SWAP2 POP POP JUMP JUMPDEST PUSH2 0x411 DUP2 PUSH2 0x1C3 JUMP JUMPDEST DUP2 EQ PUSH2 0x41B JUMPI PUSH0 DUP1 REVERT JUMPDEST POP JUMP JUMPDEST PUSH0 DUP2 CALLDATALOAD SWAP1 POP PUSH2 0x42C DUP2 PUSH2 0x408 JUMP JUMPDEST SWAP3 SWAP2 POP POP JUMP JUMPDEST PUSH0 PUSH1 0x20 DUP3 DUP5 SUB SLT ISZERO PUSH2 0x447 JUMPI PUSH2 0x446 PUSH2 0x1FD JUMP JUMPDEST JUMPDEST PUSH0 PUSH2 0x454 DUP5 DUP3 DUP6 ADD PUSH2 0x41E JUMP JUMPDEST SWAP2 POP POP SWAP3 SWAP2 POP POP JUMP JUMPDEST PUSH32 0x4E487B7100000000000000000000000000000000000000000000000000000000 PUSH0 MSTORE PUSH1 0x22 PUSH1 0x4 MSTORE PUSH1 0x24 PUSH0 REVERT JUMPDEST PUSH0 PUSH1 0x2 DUP3 DIV SWAP1 POP PUSH1 0x1 DUP3 AND DUP1 PUSH2 0x4A1 JUMPI PUSH1 0x7F DUP3 AND SWAP2 POP JUMPDEST PUSH1 0x20 DUP3 LT DUP2 SUB PUSH2 0x4B4 JUMPI PUSH2 0x4B3 PUSH2 0x45D JUMP JUMPDEST JUMPDEST POP SWAP2 SWAP1 POP JUMP JUMPDEST PUSH0 DUP2 SWAP1 POP DUP2 PUSH0 MSTORE PUSH1 0x20 PUSH0 KECCAK256 SWAP1 POP SWAP2 SWAP1 POP JUMP JUMPDEST PUSH0 PUSH1 0x20 PUSH1 0x1F DUP4 ADD DIV SWAP1 POP SWAP2 SWAP1 POP JUMP JUMPDEST PUSH0 DUP3 DUP3 SHL SWAP1 POP SWAP3 SWAP2 POP POP JUMP JUMPDEST PUSH0 PUSH1 0x8 DUP4 MUL PUSH2 0x516 PUSH32 0xFFFFFFFFFFFFFFFFFFFFFFFFFFFFFFFFFFFFFFFFFFFFFFFFFFFFFFFFFFFFFFFF DUP3 PUSH2 0x4DB JUMP JUMPDEST PUSH2 0x520 DUP7 DUP4 PUSH2 0x4DB JUMP JUMPDEST SWAP6 POP DUP1 NOT DUP5 AND SWAP4 POP DUP1 DUP7 AND DUP5 OR SWAP3 POP POP POP SWAP4 SWAP3 POP POP POP JUMP JUMPDEST PUSH0 DUP2 SWAP1 POP SWAP2 SWAP1 POP JUMP JUMPDEST PUSH0 PUSH2 0x55B PUSH2 0x556 PUSH2 0x551 DUP5 PUSH2 0x1C3 JUMP JUMPDEST PUSH2 0x538 JUMP JUMPDEST PUSH2 0x1C3 JUMP JUMPDEST SWAP1 POP SWAP2 SWAP1 POP JUMP JUMPDEST PUSH0 DUP2 SWAP1 POP SWAP2 SWAP1 POP JUMP JUMPDEST PUSH2 0x574 DUP4 PUSH2 0x541 JUMP JUMPDEST PUSH2 0x588 PUSH2 0x580 DUP3 PUSH2 0x562 JUMP JUMPDEST DUP5 DUP5 SLOAD PUSH2 0x4E7 JUMP JUMPDEST DUP3 SSTORE POP POP POP POP JUMP JUMPDEST PUSH0 SWAP1 JUMP JUMPDEST PUSH2 0x59C PUSH2 0x590 JUMP JUMPDEST PUSH2 0x5A7 DUP2 DUP5 DUP5 PUSH2 0x56B JUMP JUMPDEST POP POP POP JUMP JUMPDEST JUMPDEST DUP2 DUP2 LT ISZERO PUSH2 0x5CA JUMPI PUSH2 0x5BF PUSH0 DUP3 PUSH2 0x594 JUMP JUMPDEST PUSH1 0x1 DUP2 ADD SWAP1 POP PUSH2 0x5AD JUMP JUMPDEST POP POP JUMP JUMPDEST PUSH1 0x1F DUP3 GT ISZERO PUSH2 0x60F JUMPI PUSH2 0x5E0 DUP2 PUSH2 0x4BA JUMP JUMPDEST PUSH2 0x5E9 DUP5 PUSH2 0x4CC JUMP JUMPDEST DUP2 ADD PUSH1 0x20 DUP6 LT ISZERO PUSH2 0x5F8 JUMPI DUP2 SWAP1 POP JUMPDEST PUSH2 0x60C PUSH2 0x604 DUP6 PUSH2 0x4CC JUMP JUMPDEST DUP4 ADD DUP3 PUSH2 0x5AC JUMP JUMPDEST POP POP JUMPDEST POP POP POP JUMP JUMPDEST PUSH0 DUP3 DUP3 SHR SWAP1 POP SWAP3 SWAP2 POP POP JUMP JUMPDEST PUSH0 PUSH2 0x62F PUSH0 NOT DUP5 PUSH1 0x8 MUL PUSH2 0x614 JUMP JUMPDEST NOT DUP1 DUP4 AND SWAP2 POP POP SWAP3 SWAP2 POP POP JUMP JUMPDEST PUSH0 PUSH2 0x647 DUP4 DUP4 PUSH2 0x620 JUMP JUMPDEST SWAP2 POP DUP3 PUSH1 0x2 MUL DUP3 OR SWAP1 POP SWAP3 SWAP2 POP POP JUMP JUMPDEST PUSH2 0x660 DUP3 PUSH2 0x388 JUMP JUMPDEST PUSH8 0xFFFFFFFFFFFFFFFF DUP2 GT ISZERO PUSH2 0x679 JUMPI PUSH2 0x678 PUSH2 0x21D JUMP JUMPDEST JUMPDEST PUSH2 0x683 DUP3 SLOAD PUSH2 0x48A JUMP JUMPDEST PUSH2 0x68E DUP3 DUP3 DUP6 PUSH2 0x5CE JUMP JUMPDEST PUSH0 PUSH1 0x20 SWAP1 POP PUSH1 0x1F DUP4 GT PUSH1 0x1 DUP2 EQ PUSH2 0x6BF JUMPI PUSH0 DUP5 ISZERO PUSH2 0x6AD JUMPI DUP3 DUP8 ADD MLOAD SWAP1 POP JUMPDEST PUSH2 0x6B7 DUP6 DUP3 PUSH2 0x63C JUMP JUMPDEST DUP7 SSTORE POP PUSH2 0x71E JUMP JUMPDEST PUSH1 0x1F NOT DUP5 AND PUSH2 0x6CD DUP7 PUSH2 0x4BA JUMP JUMPDEST PUSH0 JUMPDEST DUP3 DUP2 LT ISZERO PUSH2 0x6F4 JUMPI DUP5 DUP10 ADD MLOAD DUP3 SSTORE PUSH1 0x1 DUP3 ADD SWAP2 POP PUSH1 0x20 DUP6 ADD SWAP5 POP PUSH1 0x20 DUP2 ADD SWAP1 POP PUSH2 0x6CF JUMP JUMPDEST DUP7 DUP4 LT ISZERO PUSH2 0x711 JUMPI DUP5 DUP10 ADD MLOAD PUSH2 0x70D PUSH1 0x1F DUP10 AND DUP3 PUSH2 0x620 JUMP JUMPDEST DUP4 SSTORE POP JUMPDEST PUSH1 0x1 PUSH1 0x2 DUP9 MUL ADD DUP9 SSTORE POP POP POP JUMPDEST POP POP POP POP POP POP JUMP JUMPDEST PUSH32 0x4E487B7100000000000000000000000000000000000000000000000000000000 PUSH0 MSTORE PUSH1 0x11 PUSH1 0x4 MSTORE PUSH1 0x24 PUSH0 REVERT JUMPDEST PUSH0 PUSH2 0x75D DUP3 PUSH2 0x1C3 JUMP JUMPDEST SWAP2 POP PUSH2 0x768 DUP4 PUSH2 0x1C3 JUMP JUMPDEST SWAP3 POP DUP3 DUP3 ADD SWAP1 POP DUP1 DUP3 GT ISZERO PUSH2 0x780 JUMPI PUSH2 0x77F PUSH2 0x726 JUMP JUMPDEST JUMPDEST SWAP3 SWAP2 POP POP JUMP JUMPDEST PUSH0 PUSH2 0x790 DUP3 PUSH2 0x1C3 JUMP JUMPDEST SWAP2 POP PUSH2 0x79B DUP4 PUSH2 0x1C3 JUMP JUMPDEST SWAP3 POP DUP3 DUP3 MUL PUSH2 0x7A9 DUP2 PUSH2 0x1C3 JUMP JUMPDEST SWAP2 POP DUP3 DUP3 DIV DUP5 EQ DUP4 ISZERO OR PUSH2 0x7C0 JUMPI PUSH2 0x7BF PUSH2 0x726 JUMP JUMPDEST JUMPDEST POP SWAP3 SWAP2 POP POP JUMP INVALID LOG2 PUSH5 0x6970667358 0x22 SLT KECCAK256 BASEFEE BYTE CALLDATACOPY CALLDATALOAD 0xD8 0xD1 RETURNDATASIZE 0xC6 0xB6 0xA7 PUSH2 0x2F96 0xF9 CREATE2 0xE9 MSIZE 0xE2 DUP6 0xCC 0xB9 EXTCODESIZE 0xD9 SWAP15 SHR 0xE 0xEC PUSH19 0xF982667964736F6C634300081A003300000000 "
		},
		"gasEstimates": {
			"creation": {
				"codeDepositCost": "409000",
				"executionCost": "infinite",
				"totalCost": "infinite"
			},
			"external": {
				"count()": "2402",
				"getCountMultiplied(uint256)": "infinite",
				"incrementCount()": "infinite",
				"message()": "infinite",
				"updateMessage(string)": "infinite"
			}
		},
		"methodIdentifiers": {
			"count()": "06661abd",
			"getCountMultiplied(uint256)": "e88dc1e2",
			"incrementCount()": "e5071b8e",
			"message()": "e21f37ce",
			"updateMessage(string)": "1923be24"
		}
	},
	"abi": [
		{
			"inputs": [
				{
					"internalType": "string",
					"name": "_message",
					"type": "string"
				}
			],
			"stateMutability": "nonpayable",
			"type": "constructor"
		},
		{
			"inputs": [],
			"name": "count",
			"outputs": [
				{
					"internalType": "uint256",
					"name": "",
					"type": "uint256"
				}
			],
			"stateMutability": "view",
			"type": "function"
		},
		{
			"inputs": [
				{
					"internalType": "uint256",
					"name": "factor",
					"type": "uint256"
				}
			],
			"name": "getCountMultiplied",
			"outputs": [
				{
					"internalType": "uint256",
					"name": "",
					"type": "uint256"
				}
			],
			"stateMutability": "view",
			"type": "function"
		},
		{
			"inputs": [],
			"name": "incrementCount",
			"outputs": [],
			"stateMutability": "nonpayable",
			"type": "function"
		},
		{
			"inputs": [],
			"name": "message",
			"outputs": [
				{
					"internalType": "string",
					"name": "",
					"type": "string"
				}
			],
			"stateMutability": "view",
			"type": "function"
		},
		{
			"inputs": [
				{
					"internalType": "string",
					"name": "_newMessage",
					"type": "string"
				}
			],
			"name": "updateMessage",
			"outputs": [],
			"stateMutability": "nonpayable",
			"type": "function"
		}
	]
}